
/home/pingvin/PROJECTS/Git/Inventoteca/gas_car/main_logic/code/build/main_logic.elf:     file format elf32-littlearm

Sections:
Idx Name          Size      VMA       LMA       File off  Algn
  0 .boot2        00000100  10000000  10000000  00001000  2**0
                  CONTENTS, ALLOC, LOAD, READONLY, CODE
  1 .text         000060a8  10000100  10000100  00001100  2**3
                  CONTENTS, ALLOC, LOAD, READONLY, CODE
  2 .rodata       00000450  100061a8  100061a8  000071a8  2**3
                  CONTENTS, ALLOC, LOAD, READONLY, DATA
  3 .binary_info  00000024  100065f8  100065f8  000075f8  2**2
                  CONTENTS, ALLOC, LOAD, DATA
  4 .ram_vector_table 000000c0  20000000  20000000  00008418  2**2
                  CONTENTS
  5 .data         00000358  200000c0  1000661c  000080c0  2**4
                  CONTENTS, ALLOC, LOAD, READONLY, CODE
  6 .uninitialized_data 00000000  20000418  20000418  000084d8  2**0
                  CONTENTS
  7 .scratch_x    00000000  20040000  20040000  000084d8  2**0
                  CONTENTS
  8 .scratch_y    00000000  20041000  20041000  000084d8  2**0
                  CONTENTS
  9 .bss          00001520  20000418  20000418  00008418  2**3
                  ALLOC
 10 .heap         00000800  20001938  20001938  000084d8  2**2
                  CONTENTS, READONLY
 11 .stack_dummy  00000800  20041000  20041000  00008ce0  2**5
                  CONTENTS, READONLY
 12 .ARM.attributes 00000028  00000000  00000000  000094e0  2**0
                  CONTENTS, READONLY
 13 .comment      00000045  00000000  00000000  00009508  2**0
                  CONTENTS, READONLY
 14 .debug_line_str 000000c2  00000000  00000000  0000954d  2**0
                  CONTENTS, READONLY, DEBUGGING, OCTETS
 15 .debug_frame  000000c8  00000000  00000000  00009610  2**2
                  CONTENTS, READONLY, DEBUGGING, OCTETS

/home/pingvin/PROJECTS/Git/Inventoteca/gas_car/main_logic/code/build/main_logic.elf:     file format elf32-littlearm


Disassembly of section .boot2:

10000000 <__boot2_start__>:
10000000:	4b32b500 	.word	0x4b32b500
10000004:	60582021 	.word	0x60582021
10000008:	21026898 	.word	0x21026898
1000000c:	60984388 	.word	0x60984388
10000010:	611860d8 	.word	0x611860d8
10000014:	4b2e6158 	.word	0x4b2e6158
10000018:	60992100 	.word	0x60992100
1000001c:	61592102 	.word	0x61592102
10000020:	22f02101 	.word	0x22f02101
10000024:	492b5099 	.word	0x492b5099
10000028:	21016019 	.word	0x21016019
1000002c:	20356099 	.word	0x20356099
10000030:	f844f000 	.word	0xf844f000
10000034:	42902202 	.word	0x42902202
10000038:	2106d014 	.word	0x2106d014
1000003c:	f0006619 	.word	0xf0006619
10000040:	6e19f834 	.word	0x6e19f834
10000044:	66192101 	.word	0x66192101
10000048:	66182000 	.word	0x66182000
1000004c:	f000661a 	.word	0xf000661a
10000050:	6e19f82c 	.word	0x6e19f82c
10000054:	6e196e19 	.word	0x6e196e19
10000058:	f0002005 	.word	0xf0002005
1000005c:	2101f82f 	.word	0x2101f82f
10000060:	d1f94208 	.word	0xd1f94208
10000064:	60992100 	.word	0x60992100
10000068:	6019491b 	.word	0x6019491b
1000006c:	60592100 	.word	0x60592100
10000070:	481b491a 	.word	0x481b491a
10000074:	21016001 	.word	0x21016001
10000078:	21eb6099 	.word	0x21eb6099
1000007c:	21a06619 	.word	0x21a06619
10000080:	f0006619 	.word	0xf0006619
10000084:	2100f812 	.word	0x2100f812
10000088:	49166099 	.word	0x49166099
1000008c:	60014814 	.word	0x60014814
10000090:	60992101 	.word	0x60992101
10000094:	2800bc01 	.word	0x2800bc01
10000098:	4700d000 	.word	0x4700d000
1000009c:	49134812 	.word	0x49134812
100000a0:	c8036008 	.word	0xc8036008
100000a4:	8808f380 	.word	0x8808f380
100000a8:	b5034708 	.word	0xb5034708
100000ac:	20046a99 	.word	0x20046a99
100000b0:	d0fb4201 	.word	0xd0fb4201
100000b4:	42012001 	.word	0x42012001
100000b8:	bd03d1f8 	.word	0xbd03d1f8
100000bc:	6618b502 	.word	0x6618b502
100000c0:	f7ff6618 	.word	0xf7ff6618
100000c4:	6e18fff2 	.word	0x6e18fff2
100000c8:	bd026e18 	.word	0xbd026e18
100000cc:	40020000 	.word	0x40020000
100000d0:	18000000 	.word	0x18000000
100000d4:	00070000 	.word	0x00070000
100000d8:	005f0300 	.word	0x005f0300
100000dc:	00002221 	.word	0x00002221
100000e0:	180000f4 	.word	0x180000f4
100000e4:	a0002022 	.word	0xa0002022
100000e8:	10000100 	.word	0x10000100
100000ec:	e000ed08 	.word	0xe000ed08
	...
100000fc:	7a4eb274 	.word	0x7a4eb274

Disassembly of section .text:

10000100 <__VECTOR_TABLE>:
10000100:	20042000 	.word	0x20042000
10000104:	100001f7 	.word	0x100001f7
10000108:	100001c3 	.word	0x100001c3
1000010c:	100001c5 	.word	0x100001c5
10000110:	100001c1 	.word	0x100001c1
10000114:	100001c1 	.word	0x100001c1
10000118:	100001c1 	.word	0x100001c1
1000011c:	100001c1 	.word	0x100001c1
10000120:	100001c1 	.word	0x100001c1
10000124:	100001c1 	.word	0x100001c1
10000128:	100001c1 	.word	0x100001c1
1000012c:	100001c7 	.word	0x100001c7
10000130:	100001c1 	.word	0x100001c1
10000134:	100001c1 	.word	0x100001c1
10000138:	100001c9 	.word	0x100001c9
1000013c:	100001cb 	.word	0x100001cb
10000140:	100001cd 	.word	0x100001cd
10000144:	100001cd 	.word	0x100001cd
10000148:	100001cd 	.word	0x100001cd
1000014c:	100001cd 	.word	0x100001cd
10000150:	100001cd 	.word	0x100001cd
10000154:	100001cd 	.word	0x100001cd
10000158:	100001cd 	.word	0x100001cd
1000015c:	100001cd 	.word	0x100001cd
10000160:	100001cd 	.word	0x100001cd
10000164:	100001cd 	.word	0x100001cd
10000168:	100001cd 	.word	0x100001cd
1000016c:	100001cd 	.word	0x100001cd
10000170:	100001cd 	.word	0x100001cd
10000174:	100001cd 	.word	0x100001cd
10000178:	100001cd 	.word	0x100001cd
1000017c:	100001cd 	.word	0x100001cd
10000180:	100001cd 	.word	0x100001cd
10000184:	100001cd 	.word	0x100001cd
10000188:	100001cd 	.word	0x100001cd
1000018c:	100001cd 	.word	0x100001cd
10000190:	100001cd 	.word	0x100001cd
10000194:	100001cd 	.word	0x100001cd
10000198:	100001cd 	.word	0x100001cd
1000019c:	100001cd 	.word	0x100001cd
100001a0:	100001cd 	.word	0x100001cd
100001a4:	100001cd 	.word	0x100001cd
100001a8:	100001cd 	.word	0x100001cd
100001ac:	100001cd 	.word	0x100001cd
100001b0:	100001cd 	.word	0x100001cd
100001b4:	100001cd 	.word	0x100001cd
100001b8:	100001cd 	.word	0x100001cd
100001bc:	100001cd 	.word	0x100001cd

100001c0 <isr_invalid>:
100001c0:	be00      	bkpt	0x0000

100001c2 <isr_nmi>:
100001c2:	be00      	bkpt	0x0000

100001c4 <isr_hardfault>:
100001c4:	be00      	bkpt	0x0000

100001c6 <isr_svcall>:
100001c6:	be00      	bkpt	0x0000

100001c8 <isr_pendsv>:
100001c8:	be00      	bkpt	0x0000

100001ca <isr_systick>:
100001ca:	be00      	bkpt	0x0000

100001cc <__unhandled_user_irq>:
100001cc:	f000 f84b 	bl	10000266 <__get_current_exception>
100001d0:	3810      	subs	r0, #16

100001d2 <unhandled_user_irq_num_in_r0>:
100001d2:	be00      	bkpt	0x0000

100001d4 <binary_info_header>:
100001d4:	7188ebf2 	.word	0x7188ebf2
100001d8:	100065f8 	.word	0x100065f8
100001dc:	1000661c 	.word	0x1000661c
100001e0:	10000234 	.word	0x10000234
100001e4:	e71aa390 	.word	0xe71aa390

100001e8 <_entry_point>:
100001e8:	2000      	movs	r0, #0
100001ea:	4921      	ldr	r1, [pc, #132]	; (10000270 <__get_current_exception+0xa>)
100001ec:	6008      	str	r0, [r1, #0]
100001ee:	c806      	ldmia	r0!, {r1, r2}
100001f0:	f381 8808 	msr	MSP, r1
100001f4:	4710      	bx	r2

100001f6 <_reset_handler>:
100001f6:	481f      	ldr	r0, [pc, #124]	; (10000274 <__get_current_exception+0xe>)
100001f8:	6800      	ldr	r0, [r0, #0]
100001fa:	2800      	cmp	r0, #0
100001fc:	d12f      	bne.n	1000025e <hold_non_core0_in_bootrom>
100001fe:	a40d      	add	r4, pc, #52	; (adr r4, 10000234 <data_cpy_table>)
10000200:	cc0e      	ldmia	r4!, {r1, r2, r3}
10000202:	2900      	cmp	r1, #0
10000204:	d002      	beq.n	1000020c <_reset_handler+0x16>
10000206:	f000 f812 	bl	1000022e <data_cpy>
1000020a:	e7f9      	b.n	10000200 <_reset_handler+0xa>
1000020c:	491a      	ldr	r1, [pc, #104]	; (10000278 <__get_current_exception+0x12>)
1000020e:	4a1b      	ldr	r2, [pc, #108]	; (1000027c <__get_current_exception+0x16>)
10000210:	2000      	movs	r0, #0
10000212:	e000      	b.n	10000216 <bss_fill_test>

10000214 <bss_fill_loop>:
10000214:	c101      	stmia	r1!, {r0}

10000216 <bss_fill_test>:
10000216:	4291      	cmp	r1, r2
10000218:	d1fc      	bne.n	10000214 <bss_fill_loop>

1000021a <platform_entry>:
1000021a:	4919      	ldr	r1, [pc, #100]	; (10000280 <__get_current_exception+0x1a>)
1000021c:	4788      	blx	r1
1000021e:	4919      	ldr	r1, [pc, #100]	; (10000284 <__get_current_exception+0x1e>)
10000220:	4788      	blx	r1
10000222:	4919      	ldr	r1, [pc, #100]	; (10000288 <__get_current_exception+0x22>)
10000224:	4788      	blx	r1
10000226:	be00      	bkpt	0x0000
10000228:	e7fd      	b.n	10000226 <platform_entry+0xc>

1000022a <data_cpy_loop>:
1000022a:	c901      	ldmia	r1!, {r0}
1000022c:	c201      	stmia	r2!, {r0}

1000022e <data_cpy>:
1000022e:	429a      	cmp	r2, r3
10000230:	d3fb      	bcc.n	1000022a <data_cpy_loop>
10000232:	4770      	bx	lr

10000234 <data_cpy_table>:
10000234:	1000661c 	.word	0x1000661c
10000238:	200000c0 	.word	0x200000c0
1000023c:	20000418 	.word	0x20000418
10000240:	10006974 	.word	0x10006974
10000244:	20040000 	.word	0x20040000
10000248:	20040000 	.word	0x20040000
1000024c:	10006974 	.word	0x10006974
10000250:	20041000 	.word	0x20041000
10000254:	20041000 	.word	0x20041000
10000258:	00000000 	.word	0x00000000
1000025c:	4770      	bx	lr

1000025e <hold_non_core0_in_bootrom>:
1000025e:	480b      	ldr	r0, [pc, #44]	; (1000028c <__get_current_exception+0x26>)
10000260:	f004 faaa 	bl	100047b8 <rom_func_lookup>
10000264:	4700      	bx	r0

10000266 <__get_current_exception>:
10000266:	f3ef 8005 	mrs	r0, IPSR
1000026a:	b2c0      	uxtb	r0, r0
1000026c:	4770      	bx	lr
1000026e:	0000      	.short	0x0000
10000270:	e000ed08 	.word	0xe000ed08
10000274:	d0000000 	.word	0xd0000000
10000278:	20000418 	.word	0x20000418
1000027c:	20001938 	.word	0x20001938
10000280:	10002c71 	.word	0x10002c71
10000284:	10001031 	.word	0x10001031
10000288:	10002d61 	.word	0x10002d61
1000028c:	00005657 	.word	0x00005657

10000290 <__bi_50>:
10000290:	50520006 5360b3ab 10006568              ..RP..`She..

1000029c <__bi_38>:
1000029c:	50520006 02031c86 10006578              ..RP....xe..

100002a8 <__bi_30>:
100002a8:	50520006 9da22254 10006584              ..RPT"...e..

100002b4 <__bi_22>:
100002b4:	50520005 68f465de 10006974              ..RP.e.hti..

100002c0 <_init>:
100002c0:	b5f8      	push	{r3, r4, r5, r6, r7, lr}
100002c2:	46c0      	nop			; (mov r8, r8)

100002c4 <register_tm_clones>:
100002c4:	4806      	ldr	r0, [pc, #24]	; (100002e0 <register_tm_clones+0x1c>)
100002c6:	4907      	ldr	r1, [pc, #28]	; (100002e4 <register_tm_clones+0x20>)
100002c8:	1a09      	subs	r1, r1, r0
100002ca:	108b      	asrs	r3, r1, #2
100002cc:	0fc9      	lsrs	r1, r1, #31
100002ce:	18c9      	adds	r1, r1, r3
100002d0:	b510      	push	{r4, lr}
100002d2:	1049      	asrs	r1, r1, #1
100002d4:	d003      	beq.n	100002de <register_tm_clones+0x1a>
100002d6:	4b04      	ldr	r3, [pc, #16]	; (100002e8 <register_tm_clones+0x24>)
100002d8:	2b00      	cmp	r3, #0
100002da:	d000      	beq.n	100002de <register_tm_clones+0x1a>
100002dc:	4798      	blx	r3
100002de:	bd10      	pop	{r4, pc}
100002e0:	20000418 	.word	0x20000418
100002e4:	20000418 	.word	0x20000418
100002e8:	00000000 	.word	0x00000000

100002ec <frame_dummy>:
100002ec:	4b05      	ldr	r3, [pc, #20]	; (10000304 <frame_dummy+0x18>)
100002ee:	b510      	push	{r4, lr}
100002f0:	2b00      	cmp	r3, #0
100002f2:	d003      	beq.n	100002fc <frame_dummy+0x10>
100002f4:	4904      	ldr	r1, [pc, #16]	; (10000308 <frame_dummy+0x1c>)
100002f6:	4805      	ldr	r0, [pc, #20]	; (1000030c <frame_dummy+0x20>)
100002f8:	e000      	b.n	100002fc <frame_dummy+0x10>
100002fa:	bf00      	nop
100002fc:	f7ff ffe2 	bl	100002c4 <register_tm_clones>
10000300:	bd10      	pop	{r4, pc}
10000302:	46c0      	nop			; (mov r8, r8)
10000304:	00000000 	.word	0x00000000
10000308:	200018d0 	.word	0x200018d0
1000030c:	100061a8 	.word	0x100061a8

10000310 <timer_callback>:
10000310:	4a02      	ldr	r2, [pc, #8]	; (1000031c <timer_callback+0xc>)
10000312:	6813      	ldr	r3, [r2, #0]
10000314:	3301      	adds	r3, #1
10000316:	6013      	str	r3, [r2, #0]
10000318:	4770      	bx	lr
1000031a:	46c0      	nop			; (mov r8, r8)
1000031c:	200018cc 	.word	0x200018cc

10000320 <bufferToTime>:
10000320:	b570      	push	{r4, r5, r6, lr}
10000322:	7844      	ldrb	r4, [r0, #1]
10000324:	491a      	ldr	r1, [pc, #104]	; (10000390 <bufferToTime+0x70>)
10000326:	0663      	lsls	r3, r4, #25
10000328:	0f5b      	lsrs	r3, r3, #29
1000032a:	009a      	lsls	r2, r3, #2
1000032c:	189a      	adds	r2, r3, r2
1000032e:	230f      	movs	r3, #15
10000330:	401c      	ands	r4, r3
10000332:	0052      	lsls	r2, r2, #1
10000334:	1912      	adds	r2, r2, r4
10000336:	700a      	strb	r2, [r1, #0]
10000338:	2203      	movs	r2, #3
1000033a:	7885      	ldrb	r5, [r0, #2]
1000033c:	4c15      	ldr	r4, [pc, #84]	; (10000394 <bufferToTime+0x74>)
1000033e:	0929      	lsrs	r1, r5, #4
10000340:	4011      	ands	r1, r2
10000342:	008e      	lsls	r6, r1, #2
10000344:	1989      	adds	r1, r1, r6
10000346:	401d      	ands	r5, r3
10000348:	0049      	lsls	r1, r1, #1
1000034a:	1949      	adds	r1, r1, r5
1000034c:	7021      	strb	r1, [r4, #0]
1000034e:	7904      	ldrb	r4, [r0, #4]
10000350:	4911      	ldr	r1, [pc, #68]	; (10000398 <bufferToTime+0x78>)
10000352:	0925      	lsrs	r5, r4, #4
10000354:	402a      	ands	r2, r5
10000356:	0095      	lsls	r5, r2, #2
10000358:	1952      	adds	r2, r2, r5
1000035a:	401c      	ands	r4, r3
1000035c:	0052      	lsls	r2, r2, #1
1000035e:	1912      	adds	r2, r2, r4
10000360:	7944      	ldrb	r4, [r0, #5]
10000362:	700a      	strb	r2, [r1, #0]
10000364:	06e2      	lsls	r2, r4, #27
10000366:	0fd2      	lsrs	r2, r2, #31
10000368:	0095      	lsls	r5, r2, #2
1000036a:	1952      	adds	r2, r2, r5
1000036c:	401c      	ands	r4, r3
1000036e:	490b      	ldr	r1, [pc, #44]	; (1000039c <bufferToTime+0x7c>)
10000370:	3c01      	subs	r4, #1
10000372:	0052      	lsls	r2, r2, #1
10000374:	1912      	adds	r2, r2, r4
10000376:	700a      	strb	r2, [r1, #0]
10000378:	4909      	ldr	r1, [pc, #36]	; (100003a0 <bufferToTime+0x80>)
1000037a:	7982      	ldrb	r2, [r0, #6]
1000037c:	7808      	ldrb	r0, [r1, #0]
1000037e:	4013      	ands	r3, r2
10000380:	0912      	lsrs	r2, r2, #4
10000382:	181b      	adds	r3, r3, r0
10000384:	0090      	lsls	r0, r2, #2
10000386:	1812      	adds	r2, r2, r0
10000388:	0052      	lsls	r2, r2, #1
1000038a:	189b      	adds	r3, r3, r2
1000038c:	700b      	strb	r3, [r1, #0]
1000038e:	bd70      	pop	{r4, r5, r6, pc}
10000390:	2000192f 	.word	0x2000192f
10000394:	2000192c 	.word	0x2000192c
10000398:	20001929 	.word	0x20001929
1000039c:	20001930 	.word	0x20001930
100003a0:	20001936 	.word	0x20001936

100003a4 <readDS3231Time>:
100003a4:	b5f0      	push	{r4, r5, r6, r7, lr}
100003a6:	2713      	movs	r7, #19
100003a8:	2300      	movs	r3, #0
100003aa:	b08b      	sub	sp, #44	; 0x2c
100003ac:	2212      	movs	r2, #18
100003ae:	2100      	movs	r1, #0
100003b0:	446f      	add	r7, sp
100003b2:	a805      	add	r0, sp, #20
100003b4:	703b      	strb	r3, [r7, #0]
100003b6:	f005 f8e3 	bl	10005580 <__wrap_memset>
100003ba:	f002 f8db 	bl	10002574 <time_us_64>
100003be:	2300      	movs	r3, #0
100003c0:	0004      	movs	r4, r0
100003c2:	000d      	movs	r5, r1
100003c4:	4a1b      	ldr	r2, [pc, #108]	; (10000434 <readDS3231Time+0x90>)
100003c6:	1912      	adds	r2, r2, r4
100003c8:	416b      	adcs	r3, r5
100003ca:	4299      	cmp	r1, r3
100003cc:	d82d      	bhi.n	1000042a <readDS3231Time+0x86>
100003ce:	d02a      	beq.n	10000426 <readDS3231Time+0x82>
100003d0:	9202      	str	r2, [sp, #8]
100003d2:	9303      	str	r3, [sp, #12]
100003d4:	2301      	movs	r3, #1
100003d6:	4e18      	ldr	r6, [pc, #96]	; (10000438 <readDS3231Time+0x94>)
100003d8:	003a      	movs	r2, r7
100003da:	9300      	str	r3, [sp, #0]
100003dc:	2168      	movs	r1, #104	; 0x68
100003de:	0030      	movs	r0, r6
100003e0:	f005 fd68 	bl	10005eb4 <i2c_write_blocking_until>
100003e4:	f002 f8c6 	bl	10002574 <time_us_64>
100003e8:	2300      	movs	r3, #0
100003ea:	0004      	movs	r4, r0
100003ec:	000d      	movs	r5, r1
100003ee:	4a11      	ldr	r2, [pc, #68]	; (10000434 <readDS3231Time+0x90>)
100003f0:	1912      	adds	r2, r2, r4
100003f2:	416b      	adcs	r3, r5
100003f4:	4299      	cmp	r1, r3
100003f6:	d812      	bhi.n	1000041e <readDS3231Time+0x7a>
100003f8:	d00f      	beq.n	1000041a <readDS3231Time+0x76>
100003fa:	9202      	str	r2, [sp, #8]
100003fc:	9303      	str	r3, [sp, #12]
100003fe:	2301      	movs	r3, #1
10000400:	2168      	movs	r1, #104	; 0x68
10000402:	9300      	str	r3, [sp, #0]
10000404:	aa05      	add	r2, sp, #20
10000406:	3311      	adds	r3, #17
10000408:	0030      	movs	r0, r6
1000040a:	f005 fdbf 	bl	10005f8c <i2c_read_blocking_until>
1000040e:	a805      	add	r0, sp, #20
10000410:	f7ff ff86 	bl	10000320 <bufferToTime>
10000414:	2001      	movs	r0, #1
10000416:	b00b      	add	sp, #44	; 0x2c
10000418:	bdf0      	pop	{r4, r5, r6, r7, pc}
1000041a:	4290      	cmp	r0, r2
1000041c:	d9ed      	bls.n	100003fa <readDS3231Time+0x56>
1000041e:	2201      	movs	r2, #1
10000420:	4252      	negs	r2, r2
10000422:	17d3      	asrs	r3, r2, #31
10000424:	e7e9      	b.n	100003fa <readDS3231Time+0x56>
10000426:	4290      	cmp	r0, r2
10000428:	d9d2      	bls.n	100003d0 <readDS3231Time+0x2c>
1000042a:	2201      	movs	r2, #1
1000042c:	4252      	negs	r2, r2
1000042e:	17d3      	asrs	r3, r2, #31
10000430:	e7ce      	b.n	100003d0 <readDS3231Time+0x2c>
10000432:	46c0      	nop			; (mov r8, r8)
10000434:	00001388 	.word	0x00001388
10000438:	200003f4 	.word	0x200003f4

1000043c <printCheck>:
1000043c:	b5f0      	push	{r4, r5, r6, r7, lr}
1000043e:	46de      	mov	lr, fp
10000440:	4657      	mov	r7, sl
10000442:	464e      	mov	r6, r9
10000444:	4645      	mov	r5, r8
10000446:	b5e0      	push	{r5, r6, r7, lr}
10000448:	b0cd      	sub	sp, #308	; 0x134
1000044a:	9306      	str	r3, [sp, #24]
1000044c:	ab56      	add	r3, sp, #344	; 0x158
1000044e:	781b      	ldrb	r3, [r3, #0]
10000450:	9104      	str	r1, [sp, #16]
10000452:	9307      	str	r3, [sp, #28]
10000454:	ab57      	add	r3, sp, #348	; 0x15c
10000456:	781b      	ldrb	r3, [r3, #0]
10000458:	9205      	str	r2, [sp, #20]
1000045a:	9308      	str	r3, [sp, #32]
1000045c:	ab58      	add	r3, sp, #352	; 0x160
1000045e:	781b      	ldrb	r3, [r3, #0]
10000460:	a90a      	add	r1, sp, #40	; 0x28
10000462:	9309      	str	r3, [sp, #36]	; 0x24
10000464:	ab59      	add	r3, sp, #356	; 0x164
10000466:	781b      	ldrb	r3, [r3, #0]
10000468:	2700      	movs	r7, #0
1000046a:	930a      	str	r3, [sp, #40]	; 0x28
1000046c:	231b      	movs	r3, #27
1000046e:	469a      	mov	sl, r3
10000470:	4652      	mov	r2, sl
10000472:	468c      	mov	ip, r1
10000474:	4dfa      	ldr	r5, [pc, #1000]	; (10000860 <printCheck+0x424>)
10000476:	ab0a      	add	r3, sp, #40	; 0x28
10000478:	729a      	strb	r2, [r3, #10]
1000047a:	3a11      	subs	r2, #17
1000047c:	4681      	mov	r9, r0
1000047e:	4462      	add	r2, ip
10000480:	2301      	movs	r3, #1
10000482:	215d      	movs	r1, #93	; 0x5d
10000484:	0028      	movs	r0, r5
10000486:	9700      	str	r7, [sp, #0]
10000488:	f005 fcac 	bl	10005de4 <i2c_write_blocking>
1000048c:	2321      	movs	r3, #33	; 0x21
1000048e:	469b      	mov	fp, r3
10000490:	a90a      	add	r1, sp, #40	; 0x28
10000492:	465a      	mov	r2, fp
10000494:	468c      	mov	ip, r1
10000496:	ab0a      	add	r3, sp, #40	; 0x28
10000498:	729a      	strb	r2, [r3, #10]
1000049a:	3a17      	subs	r2, #23
1000049c:	4462      	add	r2, ip
1000049e:	2301      	movs	r3, #1
100004a0:	215d      	movs	r1, #93	; 0x5d
100004a2:	0028      	movs	r0, r5
100004a4:	9700      	str	r7, [sp, #0]
100004a6:	f005 fc9d 	bl	10005de4 <i2c_write_blocking>
100004aa:	2330      	movs	r3, #48	; 0x30
100004ac:	aa0a      	add	r2, sp, #40	; 0x28
100004ae:	a90a      	add	r1, sp, #40	; 0x28
100004b0:	468c      	mov	ip, r1
100004b2:	7293      	strb	r3, [r2, #10]
100004b4:	220a      	movs	r2, #10
100004b6:	215d      	movs	r1, #93	; 0x5d
100004b8:	4462      	add	r2, ip
100004ba:	3b2f      	subs	r3, #47	; 0x2f
100004bc:	0028      	movs	r0, r5
100004be:	9700      	str	r7, [sp, #0]
100004c0:	f005 fc90 	bl	10005de4 <i2c_write_blocking>
100004c4:	ab0d      	add	r3, sp, #52	; 0x34
100004c6:	4698      	mov	r8, r3
100004c8:	4642      	mov	r2, r8
100004ca:	4be6      	ldr	r3, [pc, #920]	; (10000864 <printCheck+0x428>)
100004cc:	ac26      	add	r4, sp, #152	; 0x98
100004ce:	cb03      	ldmia	r3!, {r0, r1}
100004d0:	c203      	stmia	r2!, {r0, r1}
100004d2:	781b      	ldrb	r3, [r3, #0]
100004d4:	215d      	movs	r1, #93	; 0x5d
100004d6:	7013      	strb	r3, [r2, #0]
100004d8:	0028      	movs	r0, r5
100004da:	2309      	movs	r3, #9
100004dc:	4642      	mov	r2, r8
100004de:	9700      	str	r7, [sp, #0]
100004e0:	f005 fc80 	bl	10005de4 <i2c_write_blocking>
100004e4:	4be0      	ldr	r3, [pc, #896]	; (10000868 <printCheck+0x42c>)
100004e6:	464a      	mov	r2, r9
100004e8:	0019      	movs	r1, r3
100004ea:	0020      	movs	r0, r4
100004ec:	9303      	str	r3, [sp, #12]
100004ee:	f004 f91d 	bl	1000472c <__wrap_sprintf>
100004f2:	0020      	movs	r0, r4
100004f4:	f005 fdee 	bl	100060d4 <strlen>
100004f8:	0006      	movs	r6, r0
100004fa:	0002      	movs	r2, r0
100004fc:	0021      	movs	r1, r4
100004fe:	4640      	mov	r0, r8
10000500:	f005 fd68 	bl	10005fd4 <strncpy>
10000504:	0033      	movs	r3, r6
10000506:	4642      	mov	r2, r8
10000508:	215d      	movs	r1, #93	; 0x5d
1000050a:	0028      	movs	r0, r5
1000050c:	9700      	str	r7, [sp, #0]
1000050e:	f005 fc69 	bl	10005de4 <i2c_write_blocking>
10000512:	ab0a      	add	r3, sp, #40	; 0x28
10000514:	469c      	mov	ip, r3
10000516:	260b      	movs	r6, #11
10000518:	230d      	movs	r3, #13
1000051a:	4466      	add	r6, ip
1000051c:	7033      	strb	r3, [r6, #0]
1000051e:	0032      	movs	r2, r6
10000520:	215d      	movs	r1, #93	; 0x5d
10000522:	3b0c      	subs	r3, #12
10000524:	0028      	movs	r0, r5
10000526:	9700      	str	r7, [sp, #0]
10000528:	9602      	str	r6, [sp, #8]
1000052a:	f005 fc5b 	bl	10005de4 <i2c_write_blocking>
1000052e:	230a      	movs	r3, #10
10000530:	0032      	movs	r2, r6
10000532:	7033      	strb	r3, [r6, #0]
10000534:	215d      	movs	r1, #93	; 0x5d
10000536:	3b09      	subs	r3, #9
10000538:	0028      	movs	r0, r5
1000053a:	9700      	str	r7, [sp, #0]
1000053c:	f005 fc52 	bl	10005de4 <i2c_write_blocking>
10000540:	4652      	mov	r2, sl
10000542:	a90a      	add	r1, sp, #40	; 0x28
10000544:	468c      	mov	ip, r1
10000546:	ab0a      	add	r3, sp, #40	; 0x28
10000548:	729a      	strb	r2, [r3, #10]
1000054a:	3a11      	subs	r2, #17
1000054c:	4462      	add	r2, ip
1000054e:	2301      	movs	r3, #1
10000550:	215d      	movs	r1, #93	; 0x5d
10000552:	0028      	movs	r0, r5
10000554:	9700      	str	r7, [sp, #0]
10000556:	f005 fc45 	bl	10005de4 <i2c_write_blocking>
1000055a:	465a      	mov	r2, fp
1000055c:	a90a      	add	r1, sp, #40	; 0x28
1000055e:	468c      	mov	ip, r1
10000560:	ab0a      	add	r3, sp, #40	; 0x28
10000562:	729a      	strb	r2, [r3, #10]
10000564:	3a17      	subs	r2, #23
10000566:	4462      	add	r2, ip
10000568:	2301      	movs	r3, #1
1000056a:	215d      	movs	r1, #93	; 0x5d
1000056c:	0028      	movs	r0, r5
1000056e:	9700      	str	r7, [sp, #0]
10000570:	f005 fc38 	bl	10005de4 <i2c_write_blocking>
10000574:	a90a      	add	r1, sp, #40	; 0x28
10000576:	468c      	mov	ip, r1
10000578:	220a      	movs	r2, #10
1000057a:	ab0a      	add	r3, sp, #40	; 0x28
1000057c:	729f      	strb	r7, [r3, #10]
1000057e:	215d      	movs	r1, #93	; 0x5d
10000580:	2301      	movs	r3, #1
10000582:	0028      	movs	r0, r5
10000584:	9700      	str	r7, [sp, #0]
10000586:	4462      	add	r2, ip
10000588:	f005 fc2c 	bl	10005de4 <i2c_write_blocking>
1000058c:	464b      	mov	r3, r9
1000058e:	2b00      	cmp	r3, #0
10000590:	d100      	bne.n	10000594 <printCheck+0x158>
10000592:	e32a      	b.n	10000bea <printCheck+0x7ae>
10000594:	27fa      	movs	r7, #250	; 0xfa
10000596:	00bf      	lsls	r7, r7, #2
10000598:	45b9      	cmp	r9, r7
1000059a:	d319      	bcc.n	100005d0 <printCheck+0x194>
1000059c:	0020      	movs	r0, r4
1000059e:	f005 fd99 	bl	100060d4 <strlen>
100005a2:	4bb2      	ldr	r3, [pc, #712]	; (1000086c <printCheck+0x430>)
100005a4:	4682      	mov	sl, r0
100005a6:	469b      	mov	fp, r3
100005a8:	0039      	movs	r1, r7
100005aa:	4648      	mov	r0, r9
100005ac:	f004 f95e 	bl	1000486c <__wrap___aeabi_uidiv>
100005b0:	465b      	mov	r3, fp
100005b2:	0080      	lsls	r0, r0, #2
100005b4:	5819      	ldr	r1, [r3, r0]
100005b6:	4653      	mov	r3, sl
100005b8:	18e0      	adds	r0, r4, r3
100005ba:	f005 fd3b 	bl	10006034 <stpcpy>
100005be:	2206      	movs	r2, #6
100005c0:	49ab      	ldr	r1, [pc, #684]	; (10000870 <printCheck+0x434>)
100005c2:	f004 ffe3 	bl	1000558c <__wrap___aeabi_memcpy>
100005c6:	4648      	mov	r0, r9
100005c8:	0039      	movs	r1, r7
100005ca:	f004 f94f 	bl	1000486c <__wrap___aeabi_uidiv>
100005ce:	4689      	mov	r9, r1
100005d0:	464b      	mov	r3, r9
100005d2:	2bc7      	cmp	r3, #199	; 0xc7
100005d4:	d800      	bhi.n	100005d8 <printCheck+0x19c>
100005d6:	e2ea      	b.n	10000bae <printCheck+0x772>
100005d8:	0020      	movs	r0, r4
100005da:	f005 fd7b 	bl	100060d4 <strlen>
100005de:	4ba3      	ldr	r3, [pc, #652]	; (1000086c <printCheck+0x430>)
100005e0:	0007      	movs	r7, r0
100005e2:	469b      	mov	fp, r3
100005e4:	2164      	movs	r1, #100	; 0x64
100005e6:	4648      	mov	r0, r9
100005e8:	f004 f940 	bl	1000486c <__wrap___aeabi_uidiv>
100005ec:	465b      	mov	r3, fp
100005ee:	0080      	lsls	r0, r0, #2
100005f0:	5819      	ldr	r1, [r3, r0]
100005f2:	19e0      	adds	r0, r4, r7
100005f4:	f005 fd1e 	bl	10006034 <stpcpy>
100005f8:	220a      	movs	r2, #10
100005fa:	499e      	ldr	r1, [pc, #632]	; (10000874 <printCheck+0x438>)
100005fc:	f004 ffc6 	bl	1000558c <__wrap___aeabi_memcpy>
10000600:	4648      	mov	r0, r9
10000602:	2164      	movs	r1, #100	; 0x64
10000604:	f004 f932 	bl	1000486c <__wrap___aeabi_uidiv>
10000608:	4689      	mov	r9, r1
1000060a:	464b      	mov	r3, r9
1000060c:	2b1d      	cmp	r3, #29
1000060e:	d800      	bhi.n	10000612 <printCheck+0x1d6>
10000610:	e2d6      	b.n	10000bc0 <printCheck+0x784>
10000612:	0020      	movs	r0, r4
10000614:	f005 fd5e 	bl	100060d4 <strlen>
10000618:	4682      	mov	sl, r0
1000061a:	210a      	movs	r1, #10
1000061c:	4648      	mov	r0, r9
1000061e:	f004 f925 	bl	1000486c <__wrap___aeabi_uidiv>
10000622:	4653      	mov	r3, sl
10000624:	4f94      	ldr	r7, [pc, #592]	; (10000878 <printCheck+0x43c>)
10000626:	0080      	lsls	r0, r0, #2
10000628:	59c1      	ldr	r1, [r0, r7]
1000062a:	18e0      	adds	r0, r4, r3
1000062c:	f005 fd02 	bl	10006034 <stpcpy>
10000630:	2202      	movs	r2, #2
10000632:	4992      	ldr	r1, [pc, #584]	; (1000087c <printCheck+0x440>)
10000634:	0007      	movs	r7, r0
10000636:	f004 ffa9 	bl	1000558c <__wrap___aeabi_memcpy>
1000063a:	4648      	mov	r0, r9
1000063c:	210a      	movs	r1, #10
1000063e:	f004 f915 	bl	1000486c <__wrap___aeabi_uidiv>
10000642:	4689      	mov	r9, r1
10000644:	2900      	cmp	r1, #0
10000646:	d000      	beq.n	1000064a <printCheck+0x20e>
10000648:	e316      	b.n	10000c78 <printCheck+0x83c>
1000064a:	0020      	movs	r0, r4
1000064c:	f005 fd42 	bl	100060d4 <strlen>
10000650:	2700      	movs	r7, #0
10000652:	4681      	mov	r9, r0
10000654:	0002      	movs	r2, r0
10000656:	0021      	movs	r1, r4
10000658:	4640      	mov	r0, r8
1000065a:	f005 fcbb 	bl	10005fd4 <strncpy>
1000065e:	464b      	mov	r3, r9
10000660:	4642      	mov	r2, r8
10000662:	215d      	movs	r1, #93	; 0x5d
10000664:	0028      	movs	r0, r5
10000666:	9700      	str	r7, [sp, #0]
10000668:	f005 fbbc 	bl	10005de4 <i2c_write_blocking>
1000066c:	230d      	movs	r3, #13
1000066e:	9e02      	ldr	r6, [sp, #8]
10000670:	215d      	movs	r1, #93	; 0x5d
10000672:	7033      	strb	r3, [r6, #0]
10000674:	0032      	movs	r2, r6
10000676:	0028      	movs	r0, r5
10000678:	9700      	str	r7, [sp, #0]
1000067a:	3b0c      	subs	r3, #12
1000067c:	f005 fbb2 	bl	10005de4 <i2c_write_blocking>
10000680:	220a      	movs	r2, #10
10000682:	9602      	str	r6, [sp, #8]
10000684:	4693      	mov	fp, r2
10000686:	7032      	strb	r2, [r6, #0]
10000688:	0032      	movs	r2, r6
1000068a:	0026      	movs	r6, r4
1000068c:	215d      	movs	r1, #93	; 0x5d
1000068e:	2301      	movs	r3, #1
10000690:	0028      	movs	r0, r5
10000692:	9700      	str	r7, [sp, #0]
10000694:	f005 fba6 	bl	10005de4 <i2c_write_blocking>
10000698:	4b79      	ldr	r3, [pc, #484]	; (10000880 <printCheck+0x444>)
1000069a:	cb07      	ldmia	r3!, {r0, r1, r2}
1000069c:	c607      	stmia	r6!, {r0, r1, r2}
1000069e:	881b      	ldrh	r3, [r3, #0]
100006a0:	0021      	movs	r1, r4
100006a2:	960b      	str	r6, [sp, #44]	; 0x2c
100006a4:	220d      	movs	r2, #13
100006a6:	8033      	strh	r3, [r6, #0]
100006a8:	4640      	mov	r0, r8
100006aa:	f005 fc93 	bl	10005fd4 <strncpy>
100006ae:	230d      	movs	r3, #13
100006b0:	4642      	mov	r2, r8
100006b2:	215d      	movs	r1, #93	; 0x5d
100006b4:	0028      	movs	r0, r5
100006b6:	9700      	str	r7, [sp, #0]
100006b8:	f005 fb94 	bl	10005de4 <i2c_write_blocking>
100006bc:	4a71      	ldr	r2, [pc, #452]	; (10000884 <printCheck+0x448>)
100006be:	2164      	movs	r1, #100	; 0x64
100006c0:	6810      	ldr	r0, [r2, #0]
100006c2:	4692      	mov	sl, r2
100006c4:	f004 f8d2 	bl	1000486c <__wrap___aeabi_uidiv>
100006c8:	9e03      	ldr	r6, [sp, #12]
100006ca:	0002      	movs	r2, r0
100006cc:	0031      	movs	r1, r6
100006ce:	0020      	movs	r0, r4
100006d0:	f005 f93a 	bl	10005948 <__wrap_printf>
100006d4:	0020      	movs	r0, r4
100006d6:	f005 fcfd 	bl	100060d4 <strlen>
100006da:	4681      	mov	r9, r0
100006dc:	0002      	movs	r2, r0
100006de:	0021      	movs	r1, r4
100006e0:	4640      	mov	r0, r8
100006e2:	f005 fc77 	bl	10005fd4 <strncpy>
100006e6:	464b      	mov	r3, r9
100006e8:	4642      	mov	r2, r8
100006ea:	215d      	movs	r1, #93	; 0x5d
100006ec:	0028      	movs	r0, r5
100006ee:	9700      	str	r7, [sp, #0]
100006f0:	f005 fb78 	bl	10005de4 <i2c_write_blocking>
100006f4:	4964      	ldr	r1, [pc, #400]	; (10000888 <printCheck+0x44c>)
100006f6:	0020      	movs	r0, r4
100006f8:	f005 f926 	bl	10005948 <__wrap_printf>
100006fc:	0020      	movs	r0, r4
100006fe:	f005 fce9 	bl	100060d4 <strlen>
10000702:	4681      	mov	r9, r0
10000704:	0002      	movs	r2, r0
10000706:	0021      	movs	r1, r4
10000708:	4640      	mov	r0, r8
1000070a:	f005 fc63 	bl	10005fd4 <strncpy>
1000070e:	464b      	mov	r3, r9
10000710:	4642      	mov	r2, r8
10000712:	215d      	movs	r1, #93	; 0x5d
10000714:	0028      	movs	r0, r5
10000716:	9700      	str	r7, [sp, #0]
10000718:	f005 fb64 	bl	10005de4 <i2c_write_blocking>
1000071c:	4652      	mov	r2, sl
1000071e:	2164      	movs	r1, #100	; 0x64
10000720:	6810      	ldr	r0, [r2, #0]
10000722:	f004 f8a3 	bl	1000486c <__wrap___aeabi_uidiv>
10000726:	0020      	movs	r0, r4
10000728:	000a      	movs	r2, r1
1000072a:	0031      	movs	r1, r6
1000072c:	f005 f90c 	bl	10005948 <__wrap_printf>
10000730:	0020      	movs	r0, r4
10000732:	f005 fccf 	bl	100060d4 <strlen>
10000736:	4681      	mov	r9, r0
10000738:	0002      	movs	r2, r0
1000073a:	0021      	movs	r1, r4
1000073c:	4640      	mov	r0, r8
1000073e:	f005 fc49 	bl	10005fd4 <strncpy>
10000742:	464b      	mov	r3, r9
10000744:	4642      	mov	r2, r8
10000746:	215d      	movs	r1, #93	; 0x5d
10000748:	0028      	movs	r0, r5
1000074a:	9700      	str	r7, [sp, #0]
1000074c:	f005 fb4a 	bl	10005de4 <i2c_write_blocking>
10000750:	230d      	movs	r3, #13
10000752:	9902      	ldr	r1, [sp, #8]
10000754:	0028      	movs	r0, r5
10000756:	700b      	strb	r3, [r1, #0]
10000758:	000a      	movs	r2, r1
1000075a:	2301      	movs	r3, #1
1000075c:	215d      	movs	r1, #93	; 0x5d
1000075e:	9700      	str	r7, [sp, #0]
10000760:	f005 fb40 	bl	10005de4 <i2c_write_blocking>
10000764:	465a      	mov	r2, fp
10000766:	9902      	ldr	r1, [sp, #8]
10000768:	2301      	movs	r3, #1
1000076a:	700a      	strb	r2, [r1, #0]
1000076c:	0028      	movs	r0, r5
1000076e:	000a      	movs	r2, r1
10000770:	9700      	str	r7, [sp, #0]
10000772:	215d      	movs	r1, #93	; 0x5d
10000774:	f005 fb36 	bl	10005de4 <i2c_write_blocking>
10000778:	0031      	movs	r1, r6
1000077a:	9a05      	ldr	r2, [sp, #20]
1000077c:	0020      	movs	r0, r4
1000077e:	f003 ffd5 	bl	1000472c <__wrap_sprintf>
10000782:	0020      	movs	r0, r4
10000784:	f005 fca6 	bl	100060d4 <strlen>
10000788:	4681      	mov	r9, r0
1000078a:	0002      	movs	r2, r0
1000078c:	0021      	movs	r1, r4
1000078e:	4640      	mov	r0, r8
10000790:	f005 fc20 	bl	10005fd4 <strncpy>
10000794:	464b      	mov	r3, r9
10000796:	4642      	mov	r2, r8
10000798:	215d      	movs	r1, #93	; 0x5d
1000079a:	0028      	movs	r0, r5
1000079c:	9700      	str	r7, [sp, #0]
1000079e:	f005 fb21 	bl	10005de4 <i2c_write_blocking>
100007a2:	222f      	movs	r2, #47	; 0x2f
100007a4:	0021      	movs	r1, r4
100007a6:	4692      	mov	sl, r2
100007a8:	8022      	strh	r2, [r4, #0]
100007aa:	4640      	mov	r0, r8
100007ac:	3a2e      	subs	r2, #46	; 0x2e
100007ae:	f005 fc11 	bl	10005fd4 <strncpy>
100007b2:	2301      	movs	r3, #1
100007b4:	4642      	mov	r2, r8
100007b6:	215d      	movs	r1, #93	; 0x5d
100007b8:	0028      	movs	r0, r5
100007ba:	9700      	str	r7, [sp, #0]
100007bc:	f005 fb12 	bl	10005de4 <i2c_write_blocking>
100007c0:	0031      	movs	r1, r6
100007c2:	9a06      	ldr	r2, [sp, #24]
100007c4:	0020      	movs	r0, r4
100007c6:	f005 f8bf 	bl	10005948 <__wrap_printf>
100007ca:	0020      	movs	r0, r4
100007cc:	f005 fc82 	bl	100060d4 <strlen>
100007d0:	4681      	mov	r9, r0
100007d2:	0002      	movs	r2, r0
100007d4:	0021      	movs	r1, r4
100007d6:	4640      	mov	r0, r8
100007d8:	f005 fbfc 	bl	10005fd4 <strncpy>
100007dc:	464b      	mov	r3, r9
100007de:	4642      	mov	r2, r8
100007e0:	215d      	movs	r1, #93	; 0x5d
100007e2:	0028      	movs	r0, r5
100007e4:	9700      	str	r7, [sp, #0]
100007e6:	f005 fafd 	bl	10005de4 <i2c_write_blocking>
100007ea:	4652      	mov	r2, sl
100007ec:	0021      	movs	r1, r4
100007ee:	8022      	strh	r2, [r4, #0]
100007f0:	4640      	mov	r0, r8
100007f2:	3a2e      	subs	r2, #46	; 0x2e
100007f4:	f005 fbee 	bl	10005fd4 <strncpy>
100007f8:	2301      	movs	r3, #1
100007fa:	4642      	mov	r2, r8
100007fc:	215d      	movs	r1, #93	; 0x5d
100007fe:	0028      	movs	r0, r5
10000800:	9700      	str	r7, [sp, #0]
10000802:	f005 faef 	bl	10005de4 <i2c_write_blocking>
10000806:	0031      	movs	r1, r6
10000808:	9a07      	ldr	r2, [sp, #28]
1000080a:	0020      	movs	r0, r4
1000080c:	f005 f89c 	bl	10005948 <__wrap_printf>
10000810:	0020      	movs	r0, r4
10000812:	f005 fc5f 	bl	100060d4 <strlen>
10000816:	4681      	mov	r9, r0
10000818:	0002      	movs	r2, r0
1000081a:	0021      	movs	r1, r4
1000081c:	4640      	mov	r0, r8
1000081e:	f005 fbd9 	bl	10005fd4 <strncpy>
10000822:	464b      	mov	r3, r9
10000824:	4642      	mov	r2, r8
10000826:	215d      	movs	r1, #93	; 0x5d
10000828:	0028      	movs	r0, r5
1000082a:	9700      	str	r7, [sp, #0]
1000082c:	f005 fada 	bl	10005de4 <i2c_write_blocking>
10000830:	2320      	movs	r3, #32
10000832:	0021      	movs	r1, r4
10000834:	2201      	movs	r2, #1
10000836:	4640      	mov	r0, r8
10000838:	8023      	strh	r3, [r4, #0]
1000083a:	f005 fbcb 	bl	10005fd4 <strncpy>
1000083e:	2301      	movs	r3, #1
10000840:	4642      	mov	r2, r8
10000842:	215d      	movs	r1, #93	; 0x5d
10000844:	0028      	movs	r0, r5
10000846:	9700      	str	r7, [sp, #0]
10000848:	f005 facc 	bl	10005de4 <i2c_write_blocking>
1000084c:	0031      	movs	r1, r6
1000084e:	9a08      	ldr	r2, [sp, #32]
10000850:	0020      	movs	r0, r4
10000852:	f005 f879 	bl	10005948 <__wrap_printf>
10000856:	0020      	movs	r0, r4
10000858:	f005 fc3c 	bl	100060d4 <strlen>
1000085c:	4681      	mov	r9, r0
1000085e:	e015      	b.n	1000088c <printCheck+0x450>
10000860:	200003f4 	.word	0x200003f4
10000864:	100061a8 	.word	0x100061a8
10000868:	100061b4 	.word	0x100061b4
1000086c:	20000300 	.word	0x20000300
10000870:	100061c0 	.word	0x100061c0
10000874:	100061c8 	.word	0x100061c8
10000878:	200002d8 	.word	0x200002d8
1000087c:	10006238 	.word	0x10006238
10000880:	10006208 	.word	0x10006208
10000884:	20000334 	.word	0x20000334
10000888:	10006218 	.word	0x10006218
1000088c:	0002      	movs	r2, r0
1000088e:	0021      	movs	r1, r4
10000890:	4640      	mov	r0, r8
10000892:	f005 fb9f 	bl	10005fd4 <strncpy>
10000896:	464b      	mov	r3, r9
10000898:	4642      	mov	r2, r8
1000089a:	215d      	movs	r1, #93	; 0x5d
1000089c:	0028      	movs	r0, r5
1000089e:	9700      	str	r7, [sp, #0]
100008a0:	f005 faa0 	bl	10005de4 <i2c_write_blocking>
100008a4:	233a      	movs	r3, #58	; 0x3a
100008a6:	0021      	movs	r1, r4
100008a8:	2201      	movs	r2, #1
100008aa:	4640      	mov	r0, r8
100008ac:	8023      	strh	r3, [r4, #0]
100008ae:	f005 fb91 	bl	10005fd4 <strncpy>
100008b2:	2301      	movs	r3, #1
100008b4:	4642      	mov	r2, r8
100008b6:	215d      	movs	r1, #93	; 0x5d
100008b8:	0028      	movs	r0, r5
100008ba:	9700      	str	r7, [sp, #0]
100008bc:	f005 fa92 	bl	10005de4 <i2c_write_blocking>
100008c0:	0031      	movs	r1, r6
100008c2:	9a09      	ldr	r2, [sp, #36]	; 0x24
100008c4:	0020      	movs	r0, r4
100008c6:	f005 f83f 	bl	10005948 <__wrap_printf>
100008ca:	0020      	movs	r0, r4
100008cc:	f005 fc02 	bl	100060d4 <strlen>
100008d0:	4681      	mov	r9, r0
100008d2:	0002      	movs	r2, r0
100008d4:	0021      	movs	r1, r4
100008d6:	4640      	mov	r0, r8
100008d8:	f005 fb7c 	bl	10005fd4 <strncpy>
100008dc:	464b      	mov	r3, r9
100008de:	4642      	mov	r2, r8
100008e0:	215d      	movs	r1, #93	; 0x5d
100008e2:	0028      	movs	r0, r5
100008e4:	9700      	str	r7, [sp, #0]
100008e6:	f005 fa7d 	bl	10005de4 <i2c_write_blocking>
100008ea:	230d      	movs	r3, #13
100008ec:	46b2      	mov	sl, r6
100008ee:	001e      	movs	r6, r3
100008f0:	9902      	ldr	r1, [sp, #8]
100008f2:	2301      	movs	r3, #1
100008f4:	700e      	strb	r6, [r1, #0]
100008f6:	000a      	movs	r2, r1
100008f8:	0028      	movs	r0, r5
100008fa:	215d      	movs	r1, #93	; 0x5d
100008fc:	9700      	str	r7, [sp, #0]
100008fe:	f005 fa71 	bl	10005de4 <i2c_write_blocking>
10000902:	465a      	mov	r2, fp
10000904:	9902      	ldr	r1, [sp, #8]
10000906:	2301      	movs	r3, #1
10000908:	700a      	strb	r2, [r1, #0]
1000090a:	0028      	movs	r0, r5
1000090c:	000a      	movs	r2, r1
1000090e:	9700      	str	r7, [sp, #0]
10000910:	215d      	movs	r1, #93	; 0x5d
10000912:	f005 fa67 	bl	10005de4 <i2c_write_blocking>
10000916:	0020      	movs	r0, r4
10000918:	4be5      	ldr	r3, [pc, #916]	; (10000cb0 <printCheck+0x874>)
1000091a:	cb06      	ldmia	r3!, {r1, r2}
1000091c:	c006      	stmia	r0!, {r1, r2}
1000091e:	781b      	ldrb	r3, [r3, #0]
10000920:	0021      	movs	r1, r4
10000922:	7003      	strb	r3, [r0, #0]
10000924:	2208      	movs	r2, #8
10000926:	4640      	mov	r0, r8
10000928:	f005 fb54 	bl	10005fd4 <strncpy>
1000092c:	4642      	mov	r2, r8
1000092e:	2308      	movs	r3, #8
10000930:	215d      	movs	r1, #93	; 0x5d
10000932:	0028      	movs	r0, r5
10000934:	9700      	str	r7, [sp, #0]
10000936:	f005 fa55 	bl	10005de4 <i2c_write_blocking>
1000093a:	9902      	ldr	r1, [sp, #8]
1000093c:	2301      	movs	r3, #1
1000093e:	700e      	strb	r6, [r1, #0]
10000940:	000a      	movs	r2, r1
10000942:	0028      	movs	r0, r5
10000944:	215d      	movs	r1, #93	; 0x5d
10000946:	9700      	str	r7, [sp, #0]
10000948:	f005 fa4c 	bl	10005de4 <i2c_write_blocking>
1000094c:	465a      	mov	r2, fp
1000094e:	9902      	ldr	r1, [sp, #8]
10000950:	2301      	movs	r3, #1
10000952:	700a      	strb	r2, [r1, #0]
10000954:	0028      	movs	r0, r5
10000956:	000a      	movs	r2, r1
10000958:	9700      	str	r7, [sp, #0]
1000095a:	215d      	movs	r1, #93	; 0x5d
1000095c:	f005 fa42 	bl	10005de4 <i2c_write_blocking>
10000960:	0022      	movs	r2, r4
10000962:	4bd4      	ldr	r3, [pc, #848]	; (10000cb4 <printCheck+0x878>)
10000964:	cb03      	ldmia	r3!, {r0, r1}
10000966:	c203      	stmia	r2!, {r0, r1}
10000968:	0021      	movs	r1, r4
1000096a:	2207      	movs	r2, #7
1000096c:	4640      	mov	r0, r8
1000096e:	f005 fb31 	bl	10005fd4 <strncpy>
10000972:	2307      	movs	r3, #7
10000974:	4642      	mov	r2, r8
10000976:	215d      	movs	r1, #93	; 0x5d
10000978:	0028      	movs	r0, r5
1000097a:	9700      	str	r7, [sp, #0]
1000097c:	f005 fa32 	bl	10005de4 <i2c_write_blocking>
10000980:	4651      	mov	r1, sl
10000982:	9a0a      	ldr	r2, [sp, #40]	; 0x28
10000984:	0020      	movs	r0, r4
10000986:	9103      	str	r1, [sp, #12]
10000988:	f003 fed0 	bl	1000472c <__wrap_sprintf>
1000098c:	0020      	movs	r0, r4
1000098e:	f005 fba1 	bl	100060d4 <strlen>
10000992:	4682      	mov	sl, r0
10000994:	0002      	movs	r2, r0
10000996:	0021      	movs	r1, r4
10000998:	4640      	mov	r0, r8
1000099a:	f005 fb1b 	bl	10005fd4 <strncpy>
1000099e:	4653      	mov	r3, sl
100009a0:	4642      	mov	r2, r8
100009a2:	215d      	movs	r1, #93	; 0x5d
100009a4:	0028      	movs	r0, r5
100009a6:	9700      	str	r7, [sp, #0]
100009a8:	f005 fa1c 	bl	10005de4 <i2c_write_blocking>
100009ac:	1c32      	adds	r2, r6, #0
100009ae:	9e02      	ldr	r6, [sp, #8]
100009b0:	2301      	movs	r3, #1
100009b2:	7032      	strb	r2, [r6, #0]
100009b4:	215d      	movs	r1, #93	; 0x5d
100009b6:	0032      	movs	r2, r6
100009b8:	0028      	movs	r0, r5
100009ba:	9700      	str	r7, [sp, #0]
100009bc:	f005 fa12 	bl	10005de4 <i2c_write_blocking>
100009c0:	465a      	mov	r2, fp
100009c2:	2301      	movs	r3, #1
100009c4:	7032      	strb	r2, [r6, #0]
100009c6:	215d      	movs	r1, #93	; 0x5d
100009c8:	0032      	movs	r2, r6
100009ca:	0028      	movs	r0, r5
100009cc:	9700      	str	r7, [sp, #0]
100009ce:	9602      	str	r6, [sp, #8]
100009d0:	f005 fa08 	bl	10005de4 <i2c_write_blocking>
100009d4:	a80a      	add	r0, sp, #40	; 0x28
100009d6:	221b      	movs	r2, #27
100009d8:	4684      	mov	ip, r0
100009da:	0016      	movs	r6, r2
100009dc:	7282      	strb	r2, [r0, #10]
100009de:	3a11      	subs	r2, #17
100009e0:	4462      	add	r2, ip
100009e2:	2301      	movs	r3, #1
100009e4:	215d      	movs	r1, #93	; 0x5d
100009e6:	0028      	movs	r0, r5
100009e8:	9700      	str	r7, [sp, #0]
100009ea:	f005 f9fb 	bl	10005de4 <i2c_write_blocking>
100009ee:	2221      	movs	r2, #33	; 0x21
100009f0:	4692      	mov	sl, r2
100009f2:	4650      	mov	r0, sl
100009f4:	aa0a      	add	r2, sp, #40	; 0x28
100009f6:	a90a      	add	r1, sp, #40	; 0x28
100009f8:	468c      	mov	ip, r1
100009fa:	7290      	strb	r0, [r2, #10]
100009fc:	220a      	movs	r2, #10
100009fe:	2301      	movs	r3, #1
10000a00:	4462      	add	r2, ip
10000a02:	215d      	movs	r1, #93	; 0x5d
10000a04:	0028      	movs	r0, r5
10000a06:	9700      	str	r7, [sp, #0]
10000a08:	f005 f9ec 	bl	10005de4 <i2c_write_blocking>
10000a0c:	2330      	movs	r3, #48	; 0x30
10000a0e:	aa0a      	add	r2, sp, #40	; 0x28
10000a10:	a90a      	add	r1, sp, #40	; 0x28
10000a12:	468c      	mov	ip, r1
10000a14:	7293      	strb	r3, [r2, #10]
10000a16:	220a      	movs	r2, #10
10000a18:	215d      	movs	r1, #93	; 0x5d
10000a1a:	4462      	add	r2, ip
10000a1c:	0028      	movs	r0, r5
10000a1e:	9700      	str	r7, [sp, #0]
10000a20:	3b2f      	subs	r3, #47	; 0x2f
10000a22:	f005 f9df 	bl	10005de4 <i2c_write_blocking>
10000a26:	0022      	movs	r2, r4
10000a28:	4ba3      	ldr	r3, [pc, #652]	; (10000cb8 <printCheck+0x87c>)
10000a2a:	cb03      	ldmia	r3!, {r0, r1}
10000a2c:	c203      	stmia	r2!, {r0, r1}
10000a2e:	881b      	ldrh	r3, [r3, #0]
10000a30:	0021      	movs	r1, r4
10000a32:	8013      	strh	r3, [r2, #0]
10000a34:	4640      	mov	r0, r8
10000a36:	2209      	movs	r2, #9
10000a38:	f005 facc 	bl	10005fd4 <strncpy>
10000a3c:	2309      	movs	r3, #9
10000a3e:	4642      	mov	r2, r8
10000a40:	215d      	movs	r1, #93	; 0x5d
10000a42:	0028      	movs	r0, r5
10000a44:	9700      	str	r7, [sp, #0]
10000a46:	f005 f9cd 	bl	10005de4 <i2c_write_blocking>
10000a4a:	9a04      	ldr	r2, [sp, #16]
10000a4c:	9903      	ldr	r1, [sp, #12]
10000a4e:	0020      	movs	r0, r4
10000a50:	f003 fe6c 	bl	1000472c <__wrap_sprintf>
10000a54:	0020      	movs	r0, r4
10000a56:	f005 fb3d 	bl	100060d4 <strlen>
10000a5a:	4681      	mov	r9, r0
10000a5c:	0002      	movs	r2, r0
10000a5e:	0021      	movs	r1, r4
10000a60:	4640      	mov	r0, r8
10000a62:	f005 fab7 	bl	10005fd4 <strncpy>
10000a66:	464b      	mov	r3, r9
10000a68:	4642      	mov	r2, r8
10000a6a:	215d      	movs	r1, #93	; 0x5d
10000a6c:	0028      	movs	r0, r5
10000a6e:	9700      	str	r7, [sp, #0]
10000a70:	f005 f9b8 	bl	10005de4 <i2c_write_blocking>
10000a74:	230d      	movs	r3, #13
10000a76:	9902      	ldr	r1, [sp, #8]
10000a78:	0028      	movs	r0, r5
10000a7a:	700b      	strb	r3, [r1, #0]
10000a7c:	000a      	movs	r2, r1
10000a7e:	2301      	movs	r3, #1
10000a80:	215d      	movs	r1, #93	; 0x5d
10000a82:	9700      	str	r7, [sp, #0]
10000a84:	f005 f9ae 	bl	10005de4 <i2c_write_blocking>
10000a88:	465a      	mov	r2, fp
10000a8a:	9902      	ldr	r1, [sp, #8]
10000a8c:	2301      	movs	r3, #1
10000a8e:	700a      	strb	r2, [r1, #0]
10000a90:	0028      	movs	r0, r5
10000a92:	000a      	movs	r2, r1
10000a94:	9700      	str	r7, [sp, #0]
10000a96:	215d      	movs	r1, #93	; 0x5d
10000a98:	f005 f9a4 	bl	10005de4 <i2c_write_blocking>
10000a9c:	a90a      	add	r1, sp, #40	; 0x28
10000a9e:	0032      	movs	r2, r6
10000aa0:	468c      	mov	ip, r1
10000aa2:	3a11      	subs	r2, #17
10000aa4:	728e      	strb	r6, [r1, #10]
10000aa6:	4462      	add	r2, ip
10000aa8:	2301      	movs	r3, #1
10000aaa:	215d      	movs	r1, #93	; 0x5d
10000aac:	0028      	movs	r0, r5
10000aae:	9700      	str	r7, [sp, #0]
10000ab0:	f005 f998 	bl	10005de4 <i2c_write_blocking>
10000ab4:	4651      	mov	r1, sl
10000ab6:	aa0a      	add	r2, sp, #40	; 0x28
10000ab8:	7291      	strb	r1, [r2, #10]
10000aba:	a90a      	add	r1, sp, #40	; 0x28
10000abc:	468c      	mov	ip, r1
10000abe:	220a      	movs	r2, #10
10000ac0:	2301      	movs	r3, #1
10000ac2:	4462      	add	r2, ip
10000ac4:	215d      	movs	r1, #93	; 0x5d
10000ac6:	0028      	movs	r0, r5
10000ac8:	9700      	str	r7, [sp, #0]
10000aca:	f005 f98b 	bl	10005de4 <i2c_write_blocking>
10000ace:	aa0a      	add	r2, sp, #40	; 0x28
10000ad0:	a90a      	add	r1, sp, #40	; 0x28
10000ad2:	468c      	mov	ip, r1
10000ad4:	7297      	strb	r7, [r2, #10]
10000ad6:	220a      	movs	r2, #10
10000ad8:	215d      	movs	r1, #93	; 0x5d
10000ada:	4462      	add	r2, ip
10000adc:	2301      	movs	r3, #1
10000ade:	0028      	movs	r0, r5
10000ae0:	9700      	str	r7, [sp, #0]
10000ae2:	f005 f97f 	bl	10005de4 <i2c_write_blocking>
10000ae6:	0022      	movs	r2, r4
10000ae8:	4b74      	ldr	r3, [pc, #464]	; (10000cbc <printCheck+0x880>)
10000aea:	cb43      	ldmia	r3!, {r0, r1, r6}
10000aec:	c243      	stmia	r2!, {r0, r1, r6}
10000aee:	9e0b      	ldr	r6, [sp, #44]	; 0x2c
10000af0:	cb07      	ldmia	r3!, {r0, r1, r2}
10000af2:	c607      	stmia	r6!, {r0, r1, r2}
10000af4:	8819      	ldrh	r1, [r3, #0]
10000af6:	221a      	movs	r2, #26
10000af8:	8031      	strh	r1, [r6, #0]
10000afa:	789b      	ldrb	r3, [r3, #2]
10000afc:	0021      	movs	r1, r4
10000afe:	70b3      	strb	r3, [r6, #2]
10000b00:	4640      	mov	r0, r8
10000b02:	f005 fa67 	bl	10005fd4 <strncpy>
10000b06:	4642      	mov	r2, r8
10000b08:	231a      	movs	r3, #26
10000b0a:	215d      	movs	r1, #93	; 0x5d
10000b0c:	0028      	movs	r0, r5
10000b0e:	9700      	str	r7, [sp, #0]
10000b10:	f005 f968 	bl	10005de4 <i2c_write_blocking>
10000b14:	230d      	movs	r3, #13
10000b16:	9c02      	ldr	r4, [sp, #8]
10000b18:	215d      	movs	r1, #93	; 0x5d
10000b1a:	7023      	strb	r3, [r4, #0]
10000b1c:	0022      	movs	r2, r4
10000b1e:	0028      	movs	r0, r5
10000b20:	9700      	str	r7, [sp, #0]
10000b22:	3b0c      	subs	r3, #12
10000b24:	f005 f95e 	bl	10005de4 <i2c_write_blocking>
10000b28:	465b      	mov	r3, fp
10000b2a:	0022      	movs	r2, r4
10000b2c:	7023      	strb	r3, [r4, #0]
10000b2e:	215d      	movs	r1, #93	; 0x5d
10000b30:	0028      	movs	r0, r5
10000b32:	9700      	str	r7, [sp, #0]
10000b34:	3b09      	subs	r3, #9
10000b36:	f005 f955 	bl	10005de4 <i2c_write_blocking>
10000b3a:	231d      	movs	r3, #29
10000b3c:	aa0a      	add	r2, sp, #40	; 0x28
10000b3e:	a90a      	add	r1, sp, #40	; 0x28
10000b40:	468c      	mov	ip, r1
10000b42:	7293      	strb	r3, [r2, #10]
10000b44:	220a      	movs	r2, #10
10000b46:	215d      	movs	r1, #93	; 0x5d
10000b48:	4462      	add	r2, ip
10000b4a:	0028      	movs	r0, r5
10000b4c:	9700      	str	r7, [sp, #0]
10000b4e:	3b1c      	subs	r3, #28
10000b50:	f005 f948 	bl	10005de4 <i2c_write_blocking>
10000b54:	2356      	movs	r3, #86	; 0x56
10000b56:	aa0a      	add	r2, sp, #40	; 0x28
10000b58:	a90a      	add	r1, sp, #40	; 0x28
10000b5a:	468c      	mov	ip, r1
10000b5c:	7293      	strb	r3, [r2, #10]
10000b5e:	220a      	movs	r2, #10
10000b60:	215d      	movs	r1, #93	; 0x5d
10000b62:	4462      	add	r2, ip
10000b64:	0028      	movs	r0, r5
10000b66:	9700      	str	r7, [sp, #0]
10000b68:	3b55      	subs	r3, #85	; 0x55
10000b6a:	f005 f93b 	bl	10005de4 <i2c_write_blocking>
10000b6e:	2366      	movs	r3, #102	; 0x66
10000b70:	aa0a      	add	r2, sp, #40	; 0x28
10000b72:	a90a      	add	r1, sp, #40	; 0x28
10000b74:	468c      	mov	ip, r1
10000b76:	7293      	strb	r3, [r2, #10]
10000b78:	220a      	movs	r2, #10
10000b7a:	215d      	movs	r1, #93	; 0x5d
10000b7c:	4462      	add	r2, ip
10000b7e:	0028      	movs	r0, r5
10000b80:	9700      	str	r7, [sp, #0]
10000b82:	3b65      	subs	r3, #101	; 0x65
10000b84:	f005 f92e 	bl	10005de4 <i2c_write_blocking>
10000b88:	a90a      	add	r1, sp, #40	; 0x28
10000b8a:	468c      	mov	ip, r1
10000b8c:	465a      	mov	r2, fp
10000b8e:	ab0a      	add	r3, sp, #40	; 0x28
10000b90:	729a      	strb	r2, [r3, #10]
10000b92:	215d      	movs	r1, #93	; 0x5d
10000b94:	2301      	movs	r3, #1
10000b96:	0028      	movs	r0, r5
10000b98:	9700      	str	r7, [sp, #0]
10000b9a:	4462      	add	r2, ip
10000b9c:	f005 f922 	bl	10005de4 <i2c_write_blocking>
10000ba0:	b04d      	add	sp, #308	; 0x134
10000ba2:	bcf0      	pop	{r4, r5, r6, r7}
10000ba4:	46bb      	mov	fp, r7
10000ba6:	46b2      	mov	sl, r6
10000ba8:	46a9      	mov	r9, r5
10000baa:	46a0      	mov	r8, r4
10000bac:	bdf0      	pop	{r4, r5, r6, r7, pc}
10000bae:	2b64      	cmp	r3, #100	; 0x64
10000bb0:	d956      	bls.n	10000c60 <printCheck+0x824>
10000bb2:	0020      	movs	r0, r4
10000bb4:	f005 fa8e 	bl	100060d4 <strlen>
10000bb8:	2208      	movs	r2, #8
10000bba:	4941      	ldr	r1, [pc, #260]	; (10000cc0 <printCheck+0x884>)
10000bbc:	1820      	adds	r0, r4, r0
10000bbe:	e51d      	b.n	100005fc <printCheck+0x1c0>
10000bc0:	2b14      	cmp	r3, #20
10000bc2:	d818      	bhi.n	10000bf6 <printCheck+0x7ba>
10000bc4:	d060      	beq.n	10000c88 <printCheck+0x84c>
10000bc6:	2b0f      	cmp	r3, #15
10000bc8:	d829      	bhi.n	10000c1e <printCheck+0x7e2>
10000bca:	2b0a      	cmp	r3, #10
10000bcc:	d965      	bls.n	10000c9a <printCheck+0x85e>
10000bce:	464a      	mov	r2, r9
10000bd0:	4b3c      	ldr	r3, [pc, #240]	; (10000cc4 <printCheck+0x888>)
10000bd2:	3a0a      	subs	r2, #10
10000bd4:	0092      	lsls	r2, r2, #2
10000bd6:	58d1      	ldr	r1, [r2, r3]
10000bd8:	0020      	movs	r0, r4
10000bda:	f005 fa4d 	bl	10006078 <strcat>
10000bde:	4648      	mov	r0, r9
10000be0:	210a      	movs	r1, #10
10000be2:	f003 fe43 	bl	1000486c <__wrap___aeabi_uidiv>
10000be6:	4689      	mov	r9, r1
10000be8:	e012      	b.n	10000c10 <printCheck+0x7d4>
10000bea:	4b37      	ldr	r3, [pc, #220]	; (10000cc8 <printCheck+0x88c>)
10000bec:	681a      	ldr	r2, [r3, #0]
10000bee:	9226      	str	r2, [sp, #152]	; 0x98
10000bf0:	791b      	ldrb	r3, [r3, #4]
10000bf2:	7123      	strb	r3, [r4, #4]
10000bf4:	e529      	b.n	1000064a <printCheck+0x20e>
10000bf6:	0020      	movs	r0, r4
10000bf8:	f005 fa6c 	bl	100060d4 <strlen>
10000bfc:	2207      	movs	r2, #7
10000bfe:	4933      	ldr	r1, [pc, #204]	; (10000ccc <printCheck+0x890>)
10000c00:	1820      	adds	r0, r4, r0
10000c02:	f004 fcc3 	bl	1000558c <__wrap___aeabi_memcpy>
10000c06:	4648      	mov	r0, r9
10000c08:	210a      	movs	r1, #10
10000c0a:	f003 fe2f 	bl	1000486c <__wrap___aeabi_uidiv>
10000c0e:	4689      	mov	r9, r1
10000c10:	464b      	mov	r3, r9
10000c12:	2b00      	cmp	r3, #0
10000c14:	d100      	bne.n	10000c18 <printCheck+0x7dc>
10000c16:	e518      	b.n	1000064a <printCheck+0x20e>
10000c18:	4b2d      	ldr	r3, [pc, #180]	; (10000cd0 <printCheck+0x894>)
10000c1a:	469b      	mov	fp, r3
10000c1c:	e018      	b.n	10000c50 <printCheck+0x814>
10000c1e:	0020      	movs	r0, r4
10000c20:	f005 fa58 	bl	100060d4 <strlen>
10000c24:	2206      	movs	r2, #6
10000c26:	0007      	movs	r7, r0
10000c28:	492a      	ldr	r1, [pc, #168]	; (10000cd4 <printCheck+0x898>)
10000c2a:	1820      	adds	r0, r4, r0
10000c2c:	f004 fcae 	bl	1000558c <__wrap___aeabi_memcpy>
10000c30:	4b27      	ldr	r3, [pc, #156]	; (10000cd0 <printCheck+0x894>)
10000c32:	3705      	adds	r7, #5
10000c34:	469b      	mov	fp, r3
10000c36:	464b      	mov	r3, r9
10000c38:	465a      	mov	r2, fp
10000c3a:	3b0a      	subs	r3, #10
10000c3c:	009b      	lsls	r3, r3, #2
10000c3e:	58d1      	ldr	r1, [r2, r3]
10000c40:	19e0      	adds	r0, r4, r7
10000c42:	f005 fa3f 	bl	100060c4 <strcpy>
10000c46:	4648      	mov	r0, r9
10000c48:	210a      	movs	r1, #10
10000c4a:	f003 fe0f 	bl	1000486c <__wrap___aeabi_uidiv>
10000c4e:	4689      	mov	r9, r1
10000c50:	464b      	mov	r3, r9
10000c52:	465a      	mov	r2, fp
10000c54:	009b      	lsls	r3, r3, #2
10000c56:	0020      	movs	r0, r4
10000c58:	58d1      	ldr	r1, [r2, r3]
10000c5a:	f005 fa0d 	bl	10006078 <strcat>
10000c5e:	e4f4      	b.n	1000064a <printCheck+0x20e>
10000c60:	2b64      	cmp	r3, #100	; 0x64
10000c62:	d000      	beq.n	10000c66 <printCheck+0x82a>
10000c64:	e4d1      	b.n	1000060a <printCheck+0x1ce>
10000c66:	0020      	movs	r0, r4
10000c68:	f005 fa34 	bl	100060d4 <strlen>
10000c6c:	2205      	movs	r2, #5
10000c6e:	491a      	ldr	r1, [pc, #104]	; (10000cd8 <printCheck+0x89c>)
10000c70:	1820      	adds	r0, r4, r0
10000c72:	f004 fc8b 	bl	1000558c <__wrap___aeabi_memcpy>
10000c76:	e4e8      	b.n	1000064a <printCheck+0x20e>
10000c78:	2203      	movs	r2, #3
10000c7a:	4918      	ldr	r1, [pc, #96]	; (10000cdc <printCheck+0x8a0>)
10000c7c:	1c78      	adds	r0, r7, #1
10000c7e:	f004 fc85 	bl	1000558c <__wrap___aeabi_memcpy>
10000c82:	4b13      	ldr	r3, [pc, #76]	; (10000cd0 <printCheck+0x894>)
10000c84:	469b      	mov	fp, r3
10000c86:	e7e3      	b.n	10000c50 <printCheck+0x814>
10000c88:	0020      	movs	r0, r4
10000c8a:	f005 fa23 	bl	100060d4 <strlen>
10000c8e:	2207      	movs	r2, #7
10000c90:	4913      	ldr	r1, [pc, #76]	; (10000ce0 <printCheck+0x8a4>)
10000c92:	1820      	adds	r0, r4, r0
10000c94:	f004 fc7a 	bl	1000558c <__wrap___aeabi_memcpy>
10000c98:	e4d7      	b.n	1000064a <printCheck+0x20e>
10000c9a:	2b0a      	cmp	r3, #10
10000c9c:	d1b8      	bne.n	10000c10 <printCheck+0x7d4>
10000c9e:	0020      	movs	r0, r4
10000ca0:	f005 fa18 	bl	100060d4 <strlen>
10000ca4:	2205      	movs	r2, #5
10000ca6:	490f      	ldr	r1, [pc, #60]	; (10000ce4 <printCheck+0x8a8>)
10000ca8:	1820      	adds	r0, r4, r0
10000caa:	f004 fc6f 	bl	1000558c <__wrap___aeabi_memcpy>
10000cae:	e4cc      	b.n	1000064a <printCheck+0x20e>
10000cb0:	1000621c 	.word	0x1000621c
10000cb4:	10006228 	.word	0x10006228
10000cb8:	10006230 	.word	0x10006230
10000cbc:	1000623c 	.word	0x1000623c
10000cc0:	100061d4 	.word	0x100061d4
10000cc4:	200002c0 	.word	0x200002c0
10000cc8:	100061b8 	.word	0x100061b8
10000ccc:	100061e8 	.word	0x100061e8
10000cd0:	20000300 	.word	0x20000300
10000cd4:	100061f8 	.word	0x100061f8
10000cd8:	100061dc 	.word	0x100061dc
10000cdc:	100061e4 	.word	0x100061e4
10000ce0:	100061f0 	.word	0x100061f0
10000ce4:	10006200 	.word	0x10006200

10000ce8 <check_status>:
10000ce8:	b5f0      	push	{r4, r5, r6, r7, lr}
10000cea:	46d6      	mov	lr, sl
10000cec:	464f      	mov	r7, r9
10000cee:	4646      	mov	r6, r8
10000cf0:	4b5b      	ldr	r3, [pc, #364]	; (10000e60 <check_status+0x178>)
10000cf2:	2501      	movs	r5, #1
10000cf4:	4699      	mov	r9, r3
10000cf6:	b5c0      	push	{r6, r7, lr}
10000cf8:	4c5a      	ldr	r4, [pc, #360]	; (10000e64 <check_status+0x17c>)
10000cfa:	b082      	sub	sp, #8
10000cfc:	2301      	movs	r3, #1
10000cfe:	464a      	mov	r2, r9
10000d00:	215e      	movs	r1, #94	; 0x5e
10000d02:	0020      	movs	r0, r4
10000d04:	9500      	str	r5, [sp, #0]
10000d06:	f005 f86d 	bl	10005de4 <i2c_write_blocking>
10000d0a:	2300      	movs	r3, #0
10000d0c:	4f56      	ldr	r7, [pc, #344]	; (10000e68 <check_status+0x180>)
10000d0e:	9300      	str	r3, [sp, #0]
10000d10:	003a      	movs	r2, r7
10000d12:	3301      	adds	r3, #1
10000d14:	215e      	movs	r1, #94	; 0x5e
10000d16:	0020      	movs	r0, r4
10000d18:	f005 f8f0 	bl	10005efc <i2c_read_blocking>
10000d1c:	4a53      	ldr	r2, [pc, #332]	; (10000e6c <check_status+0x184>)
10000d1e:	783b      	ldrb	r3, [r7, #0]
10000d20:	4690      	mov	r8, r2
10000d22:	7013      	strb	r3, [r2, #0]
10000d24:	099a      	lsrs	r2, r3, #6
10000d26:	4215      	tst	r5, r2
10000d28:	d000      	beq.n	10000d2c <check_status+0x44>
10000d2a:	e07f      	b.n	10000e2c <check_status+0x144>
10000d2c:	227f      	movs	r2, #127	; 0x7f
10000d2e:	4d50      	ldr	r5, [pc, #320]	; (10000e70 <check_status+0x188>)
10000d30:	4e50      	ldr	r6, [pc, #320]	; (10000e74 <check_status+0x18c>)
10000d32:	7829      	ldrb	r1, [r5, #0]
10000d34:	069b      	lsls	r3, r3, #26
10000d36:	0fdb      	lsrs	r3, r3, #31
10000d38:	400a      	ands	r2, r1
10000d3a:	7033      	strb	r3, [r6, #0]
10000d3c:	2b00      	cmp	r3, #0
10000d3e:	d000      	beq.n	10000d42 <check_status+0x5a>
10000d40:	e07f      	b.n	10000e42 <check_status+0x15a>
10000d42:	3308      	adds	r3, #8
10000d44:	439a      	bics	r2, r3
10000d46:	2064      	movs	r0, #100	; 0x64
10000d48:	702a      	strb	r2, [r5, #0]
10000d4a:	f001 fb75 	bl	10002438 <sleep_ms>
10000d4e:	2301      	movs	r3, #1
10000d50:	464a      	mov	r2, r9
10000d52:	215c      	movs	r1, #92	; 0x5c
10000d54:	9300      	str	r3, [sp, #0]
10000d56:	0020      	movs	r0, r4
10000d58:	469a      	mov	sl, r3
10000d5a:	f005 f843 	bl	10005de4 <i2c_write_blocking>
10000d5e:	2300      	movs	r3, #0
10000d60:	003a      	movs	r2, r7
10000d62:	9300      	str	r3, [sp, #0]
10000d64:	215c      	movs	r1, #92	; 0x5c
10000d66:	3301      	adds	r3, #1
10000d68:	0020      	movs	r0, r4
10000d6a:	f005 f8c7 	bl	10005efc <i2c_read_blocking>
10000d6e:	4642      	mov	r2, r8
10000d70:	783b      	ldrb	r3, [r7, #0]
10000d72:	7013      	strb	r3, [r2, #0]
10000d74:	4652      	mov	r2, sl
10000d76:	089b      	lsrs	r3, r3, #2
10000d78:	4013      	ands	r3, r2
10000d7a:	7033      	strb	r3, [r6, #0]
10000d7c:	d16b      	bne.n	10000e56 <check_status+0x16e>
10000d7e:	782b      	ldrb	r3, [r5, #0]
10000d80:	323f      	adds	r2, #63	; 0x3f
10000d82:	4393      	bics	r3, r2
10000d84:	2064      	movs	r0, #100	; 0x64
10000d86:	702b      	strb	r3, [r5, #0]
10000d88:	f001 fb56 	bl	10002438 <sleep_ms>
10000d8c:	2301      	movs	r3, #1
10000d8e:	464a      	mov	r2, r9
10000d90:	215d      	movs	r1, #93	; 0x5d
10000d92:	9300      	str	r3, [sp, #0]
10000d94:	0020      	movs	r0, r4
10000d96:	469a      	mov	sl, r3
10000d98:	f005 f824 	bl	10005de4 <i2c_write_blocking>
10000d9c:	2300      	movs	r3, #0
10000d9e:	003a      	movs	r2, r7
10000da0:	215d      	movs	r1, #93	; 0x5d
10000da2:	9300      	str	r3, [sp, #0]
10000da4:	0020      	movs	r0, r4
10000da6:	3301      	adds	r3, #1
10000da8:	f005 f8a8 	bl	10005efc <i2c_read_blocking>
10000dac:	4642      	mov	r2, r8
10000dae:	4651      	mov	r1, sl
10000db0:	783b      	ldrb	r3, [r7, #0]
10000db2:	7013      	strb	r3, [r2, #0]
10000db4:	099a      	lsrs	r2, r3, #6
10000db6:	4211      	tst	r1, r2
10000db8:	d149      	bne.n	10000e4e <check_status+0x166>
10000dba:	782a      	ldrb	r2, [r5, #0]
10000dbc:	311f      	adds	r1, #31
10000dbe:	438a      	bics	r2, r1
10000dc0:	069b      	lsls	r3, r3, #26
10000dc2:	0fdb      	lsrs	r3, r3, #31
10000dc4:	7033      	strb	r3, [r6, #0]
10000dc6:	d13f      	bne.n	10000e48 <check_status+0x160>
10000dc8:	3310      	adds	r3, #16
10000dca:	439a      	bics	r2, r3
10000dcc:	2064      	movs	r0, #100	; 0x64
10000dce:	702a      	strb	r2, [r5, #0]
10000dd0:	f001 fb32 	bl	10002438 <sleep_ms>
10000dd4:	782a      	ldrb	r2, [r5, #0]
10000dd6:	4b28      	ldr	r3, [pc, #160]	; (10000e78 <check_status+0x190>)
10000dd8:	2700      	movs	r7, #0
10000dda:	001d      	movs	r5, r3
10000ddc:	701a      	strb	r2, [r3, #0]
10000dde:	2301      	movs	r3, #1
10000de0:	4698      	mov	r8, r3
10000de2:	4e26      	ldr	r6, [pc, #152]	; (10000e7c <check_status+0x194>)
10000de4:	9300      	str	r3, [sp, #0]
10000de6:	0032      	movs	r2, r6
10000de8:	215a      	movs	r1, #90	; 0x5a
10000dea:	0020      	movs	r0, r4
10000dec:	f004 fffa 	bl	10005de4 <i2c_write_blocking>
10000df0:	002a      	movs	r2, r5
10000df2:	2301      	movs	r3, #1
10000df4:	215a      	movs	r1, #90	; 0x5a
10000df6:	0020      	movs	r0, r4
10000df8:	9700      	str	r7, [sp, #0]
10000dfa:	f004 fff3 	bl	10005de4 <i2c_write_blocking>
10000dfe:	2064      	movs	r0, #100	; 0x64
10000e00:	f001 fb1a 	bl	10002438 <sleep_ms>
10000e04:	4643      	mov	r3, r8
10000e06:	0032      	movs	r2, r6
10000e08:	9300      	str	r3, [sp, #0]
10000e0a:	215e      	movs	r1, #94	; 0x5e
10000e0c:	0020      	movs	r0, r4
10000e0e:	f004 ffe9 	bl	10005de4 <i2c_write_blocking>
10000e12:	2301      	movs	r3, #1
10000e14:	002a      	movs	r2, r5
10000e16:	215e      	movs	r1, #94	; 0x5e
10000e18:	0020      	movs	r0, r4
10000e1a:	9700      	str	r7, [sp, #0]
10000e1c:	f004 ffe2 	bl	10005de4 <i2c_write_blocking>
10000e20:	b002      	add	sp, #8
10000e22:	bce0      	pop	{r5, r6, r7}
10000e24:	46ba      	mov	sl, r7
10000e26:	46b1      	mov	r9, r6
10000e28:	46a8      	mov	r8, r5
10000e2a:	bdf0      	pop	{r4, r5, r6, r7, pc}
10000e2c:	2180      	movs	r1, #128	; 0x80
10000e2e:	4d10      	ldr	r5, [pc, #64]	; (10000e70 <check_status+0x188>)
10000e30:	4e10      	ldr	r6, [pc, #64]	; (10000e74 <check_status+0x18c>)
10000e32:	782a      	ldrb	r2, [r5, #0]
10000e34:	069b      	lsls	r3, r3, #26
10000e36:	0fdb      	lsrs	r3, r3, #31
10000e38:	430a      	orrs	r2, r1
10000e3a:	7033      	strb	r3, [r6, #0]
10000e3c:	2b00      	cmp	r3, #0
10000e3e:	d100      	bne.n	10000e42 <check_status+0x15a>
10000e40:	e77f      	b.n	10000d42 <check_status+0x5a>
10000e42:	2308      	movs	r3, #8
10000e44:	431a      	orrs	r2, r3
10000e46:	e77e      	b.n	10000d46 <check_status+0x5e>
10000e48:	2310      	movs	r3, #16
10000e4a:	431a      	orrs	r2, r3
10000e4c:	e7be      	b.n	10000dcc <check_status+0xe4>
10000e4e:	2120      	movs	r1, #32
10000e50:	782a      	ldrb	r2, [r5, #0]
10000e52:	430a      	orrs	r2, r1
10000e54:	e7b4      	b.n	10000dc0 <check_status+0xd8>
10000e56:	2240      	movs	r2, #64	; 0x40
10000e58:	782b      	ldrb	r3, [r5, #0]
10000e5a:	4313      	orrs	r3, r2
10000e5c:	e792      	b.n	10000d84 <check_status+0x9c>
10000e5e:	46c0      	nop			; (mov r8, r8)
10000e60:	10006303 	.word	0x10006303
10000e64:	200003f4 	.word	0x200003f4
10000e68:	20001900 	.word	0x20001900
10000e6c:	20001934 	.word	0x20001934
10000e70:	2000192b 	.word	0x2000192b
10000e74:	20001925 	.word	0x20001925
10000e78:	20000868 	.word	0x20000868
10000e7c:	10006300 	.word	0x10006300

10000e80 <saveLog>:
10000e80:	b5f0      	push	{r4, r5, r6, r7, lr}
10000e82:	4c30      	ldr	r4, [pc, #192]	; (10000f44 <saveLog+0xc4>)
10000e84:	44a5      	add	sp, r4
10000e86:	f7ff fa8d 	bl	100003a4 <readDS3231Time>
10000e8a:	4b2f      	ldr	r3, [pc, #188]	; (10000f48 <saveLog+0xc8>)
10000e8c:	4a2f      	ldr	r2, [pc, #188]	; (10000f4c <saveLog+0xcc>)
10000e8e:	6818      	ldr	r0, [r3, #0]
10000e90:	4b2f      	ldr	r3, [pc, #188]	; (10000f50 <saveLog+0xd0>)
10000e92:	7815      	ldrb	r5, [r2, #0]
10000e94:	781b      	ldrb	r3, [r3, #0]
10000e96:	0e02      	lsrs	r2, r0, #24
10000e98:	021b      	lsls	r3, r3, #8
10000e9a:	0412      	lsls	r2, r2, #16
10000e9c:	431d      	orrs	r5, r3
10000e9e:	0c03      	lsrs	r3, r0, #16
10000ea0:	061b      	lsls	r3, r3, #24
10000ea2:	4315      	orrs	r5, r2
10000ea4:	431d      	orrs	r5, r3
10000ea6:	4b2b      	ldr	r3, [pc, #172]	; (10000f54 <saveLog+0xd4>)
10000ea8:	4e2b      	ldr	r6, [pc, #172]	; (10000f58 <saveLog+0xd8>)
10000eaa:	6819      	ldr	r1, [r3, #0]
10000eac:	881a      	ldrh	r2, [r3, #0]
10000eae:	4b2b      	ldr	r3, [pc, #172]	; (10000f5c <saveLog+0xdc>)
10000eb0:	7837      	ldrb	r7, [r6, #0]
10000eb2:	4e2b      	ldr	r6, [pc, #172]	; (10000f60 <saveLog+0xe0>)
10000eb4:	781b      	ldrb	r3, [r3, #0]
10000eb6:	7836      	ldrb	r6, [r6, #0]
10000eb8:	021b      	lsls	r3, r3, #8
10000eba:	0436      	lsls	r6, r6, #16
10000ebc:	433b      	orrs	r3, r7
10000ebe:	4333      	orrs	r3, r6
10000ec0:	4e28      	ldr	r6, [pc, #160]	; (10000f64 <saveLog+0xe4>)
10000ec2:	021b      	lsls	r3, r3, #8
10000ec4:	7836      	ldrb	r6, [r6, #0]
10000ec6:	4c28      	ldr	r4, [pc, #160]	; (10000f68 <saveLog+0xe8>)
10000ec8:	0636      	lsls	r6, r6, #24
10000eca:	0a1b      	lsrs	r3, r3, #8
10000ecc:	4333      	orrs	r3, r6
10000ece:	6023      	str	r3, [r4, #0]
10000ed0:	0a03      	lsrs	r3, r0, #8
10000ed2:	b2c0      	uxtb	r0, r0
10000ed4:	0200      	lsls	r0, r0, #8
10000ed6:	b2db      	uxtb	r3, r3
10000ed8:	4303      	orrs	r3, r0
10000eda:	0e08      	lsrs	r0, r1, #24
10000edc:	0400      	lsls	r0, r0, #16
10000ede:	4303      	orrs	r3, r0
10000ee0:	0c09      	lsrs	r1, r1, #16
10000ee2:	021b      	lsls	r3, r3, #8
10000ee4:	6065      	str	r5, [r4, #4]
10000ee6:	0609      	lsls	r1, r1, #24
10000ee8:	4d20      	ldr	r5, [pc, #128]	; (10000f6c <saveLog+0xec>)
10000eea:	0a1b      	lsrs	r3, r3, #8
10000eec:	430b      	orrs	r3, r1
10000eee:	60a3      	str	r3, [r4, #8]
10000ef0:	682b      	ldr	r3, [r5, #0]
10000ef2:	ba52      	rev16	r2, r2
10000ef4:	ba1b      	rev	r3, r3
10000ef6:	81a2      	strh	r2, [r4, #12]
10000ef8:	9300      	str	r3, [sp, #0]
10000efa:	f3ef 8310 	mrs	r3, PRIMASK
10000efe:	b672      	cpsid	i
10000f00:	2680      	movs	r6, #128	; 0x80
10000f02:	4f1b      	ldr	r7, [pc, #108]	; (10000f70 <saveLog+0xf0>)
10000f04:	0176      	lsls	r6, r6, #5
10000f06:	0031      	movs	r1, r6
10000f08:	6828      	ldr	r0, [r5, #0]
10000f0a:	603b      	str	r3, [r7, #0]
10000f0c:	f005 f93c 	bl	10006188 <__flash_range_erase_veneer>
10000f10:	0032      	movs	r2, r6
10000f12:	0021      	movs	r1, r4
10000f14:	6828      	ldr	r0, [r5, #0]
10000f16:	2480      	movs	r4, #128	; 0x80
10000f18:	f005 f91e 	bl	10006158 <__flash_range_program_veneer>
10000f1c:	46b4      	mov	ip, r6
10000f1e:	682b      	ldr	r3, [r5, #0]
10000f20:	02a4      	lsls	r4, r4, #10
10000f22:	4463      	add	r3, ip
10000f24:	0031      	movs	r1, r6
10000f26:	0020      	movs	r0, r4
10000f28:	602b      	str	r3, [r5, #0]
10000f2a:	f005 f92d 	bl	10006188 <__flash_range_erase_veneer>
10000f2e:	0032      	movs	r2, r6
10000f30:	4669      	mov	r1, sp
10000f32:	0020      	movs	r0, r4
10000f34:	f005 f910 	bl	10006158 <__flash_range_program_veneer>
10000f38:	683b      	ldr	r3, [r7, #0]
10000f3a:	f383 8810 	msr	PRIMASK, r3
10000f3e:	4b0d      	ldr	r3, [pc, #52]	; (10000f74 <saveLog+0xf4>)
10000f40:	449d      	add	sp, r3
10000f42:	bdf0      	pop	{r4, r5, r6, r7, pc}
10000f44:	ffffeffc 	.word	0xffffeffc
10000f48:	200018c4 	.word	0x200018c4
10000f4c:	2000192f 	.word	0x2000192f
10000f50:	20000328 	.word	0x20000328
10000f54:	200018e8 	.word	0x200018e8
10000f58:	20001936 	.word	0x20001936
10000f5c:	20001930 	.word	0x20001930
10000f60:	20001929 	.word	0x20001929
10000f64:	2000192c 	.word	0x2000192c
10000f68:	20000874 	.word	0x20000874
10000f6c:	20000338 	.word	0x20000338
10000f70:	200018bc 	.word	0x200018bc
10000f74:	00001004 	.word	0x00001004

10000f78 <printLog>:
10000f78:	b5f0      	push	{r4, r5, r6, r7, lr}
10000f7a:	4657      	mov	r7, sl
10000f7c:	464e      	mov	r6, r9
10000f7e:	46de      	mov	lr, fp
10000f80:	4645      	mov	r5, r8
10000f82:	4b27      	ldr	r3, [pc, #156]	; (10001020 <printLog+0xa8>)
10000f84:	b5e0      	push	{r5, r6, r7, lr}
10000f86:	469b      	mov	fp, r3
10000f88:	4b26      	ldr	r3, [pc, #152]	; (10001024 <printLog+0xac>)
10000f8a:	2600      	movs	r6, #0
10000f8c:	469a      	mov	sl, r3
10000f8e:	4b26      	ldr	r3, [pc, #152]	; (10001028 <printLog+0xb0>)
10000f90:	4f26      	ldr	r7, [pc, #152]	; (1000102c <printLog+0xb4>)
10000f92:	4699      	mov	r9, r3
10000f94:	b089      	sub	sp, #36	; 0x24
10000f96:	465b      	mov	r3, fp
10000f98:	681b      	ldr	r3, [r3, #0]
10000f9a:	2164      	movs	r1, #100	; 0x64
10000f9c:	199c      	adds	r4, r3, r6
10000f9e:	79a0      	ldrb	r0, [r4, #6]
10000fa0:	4698      	mov	r8, r3
10000fa2:	79e3      	ldrb	r3, [r4, #7]
10000fa4:	0600      	lsls	r0, r0, #24
10000fa6:	041b      	lsls	r3, r3, #16
10000fa8:	4318      	orrs	r0, r3
10000faa:	7a63      	ldrb	r3, [r4, #9]
10000fac:	4318      	orrs	r0, r3
10000fae:	7a23      	ldrb	r3, [r4, #8]
10000fb0:	021b      	lsls	r3, r3, #8
10000fb2:	4318      	orrs	r0, r3
10000fb4:	4653      	mov	r3, sl
10000fb6:	6018      	str	r0, [r3, #0]
10000fb8:	7aa5      	ldrb	r5, [r4, #10]
10000fba:	7ae3      	ldrb	r3, [r4, #11]
10000fbc:	062d      	lsls	r5, r5, #24
10000fbe:	041b      	lsls	r3, r3, #16
10000fc0:	431d      	orrs	r5, r3
10000fc2:	7b63      	ldrb	r3, [r4, #13]
10000fc4:	431d      	orrs	r5, r3
10000fc6:	7b23      	ldrb	r3, [r4, #12]
10000fc8:	021b      	lsls	r3, r3, #8
10000fca:	431d      	orrs	r5, r3
10000fcc:	464b      	mov	r3, r9
10000fce:	601d      	str	r5, [r3, #0]
10000fd0:	7863      	ldrb	r3, [r4, #1]
10000fd2:	78a2      	ldrb	r2, [r4, #2]
10000fd4:	9305      	str	r3, [sp, #20]
10000fd6:	9206      	str	r2, [sp, #24]
10000fd8:	f003 fc48 	bl	1000486c <__wrap___aeabi_uidiv>
10000fdc:	2164      	movs	r1, #100	; 0x64
10000fde:	9007      	str	r0, [sp, #28]
10000fe0:	0028      	movs	r0, r5
10000fe2:	f003 fc43 	bl	1000486c <__wrap___aeabi_uidiv>
10000fe6:	7963      	ldrb	r3, [r4, #5]
10000fe8:	9a06      	ldr	r2, [sp, #24]
10000fea:	9303      	str	r3, [sp, #12]
10000fec:	7923      	ldrb	r3, [r4, #4]
10000fee:	9907      	ldr	r1, [sp, #28]
10000ff0:	9302      	str	r3, [sp, #8]
10000ff2:	78e3      	ldrb	r3, [r4, #3]
10000ff4:	4644      	mov	r4, r8
10000ff6:	9301      	str	r3, [sp, #4]
10000ff8:	5da3      	ldrb	r3, [r4, r6]
10000ffa:	9300      	str	r3, [sp, #0]
10000ffc:	9b05      	ldr	r3, [sp, #20]
10000ffe:	f7ff fa1d 	bl	1000043c <printCheck>
10001002:	2380      	movs	r3, #128	; 0x80
10001004:	015b      	lsls	r3, r3, #5
10001006:	469c      	mov	ip, r3
10001008:	683b      	ldr	r3, [r7, #0]
1000100a:	4466      	add	r6, ip
1000100c:	42b3      	cmp	r3, r6
1000100e:	d2c2      	bcs.n	10000f96 <printLog+0x1e>
10001010:	b009      	add	sp, #36	; 0x24
10001012:	bcf0      	pop	{r4, r5, r6, r7}
10001014:	46bb      	mov	fp, r7
10001016:	46b2      	mov	sl, r6
10001018:	46a9      	mov	r9, r5
1000101a:	46a0      	mov	r8, r4
1000101c:	bdf0      	pop	{r4, r5, r6, r7, pc}
1000101e:	46c0      	nop			; (mov r8, r8)
10001020:	20000340 	.word	0x20000340
10001024:	200018c4 	.word	0x200018c4
10001028:	200018e8 	.word	0x200018e8
1000102c:	20000338 	.word	0x20000338

10001030 <main>:
10001030:	b5f0      	push	{r4, r5, r6, r7, lr}
10001032:	46de      	mov	lr, fp
10001034:	464e      	mov	r6, r9
10001036:	4645      	mov	r5, r8
10001038:	4657      	mov	r7, sl
1000103a:	b5e0      	push	{r5, r6, r7, lr}
1000103c:	4cbf      	ldr	r4, [pc, #764]	; (1000133c <main+0x30c>)
1000103e:	4bc0      	ldr	r3, [pc, #768]	; (10001340 <main+0x310>)
10001040:	44a5      	add	sp, r4
10001042:	001a      	movs	r2, r3
10001044:	930c      	str	r3, [sp, #48]	; 0x30
10001046:	2300      	movs	r3, #0
10001048:	25d0      	movs	r5, #208	; 0xd0
1000104a:	7013      	strb	r3, [r2, #0]
1000104c:	f004 fc88 	bl	10005960 <stdio_init_all>
10001050:	2002      	movs	r0, #2
10001052:	f000 fc15 	bl	10001880 <gpio_init>
10001056:	2304      	movs	r3, #4
10001058:	2680      	movs	r6, #128	; 0x80
1000105a:	062d      	lsls	r5, r5, #24
1000105c:	2200      	movs	r2, #0
1000105e:	2101      	movs	r1, #1
10001060:	62ab      	str	r3, [r5, #40]	; 0x28
10001062:	2002      	movs	r0, #2
10001064:	f000 fbfa 	bl	1000185c <gpio_set_pulls>
10001068:	04b6      	lsls	r6, r6, #18
1000106a:	2019      	movs	r0, #25
1000106c:	f000 fc08 	bl	10001880 <gpio_init>
10001070:	201b      	movs	r0, #27
10001072:	626e      	str	r6, [r5, #36]	; 0x24
10001074:	61ae      	str	r6, [r5, #24]
10001076:	f000 fc03 	bl	10001880 <gpio_init>
1000107a:	2380      	movs	r3, #128	; 0x80
1000107c:	051b      	lsls	r3, r3, #20
1000107e:	626b      	str	r3, [r5, #36]	; 0x24
10001080:	201c      	movs	r0, #28
10001082:	61ab      	str	r3, [r5, #24]
10001084:	f000 fbfc 	bl	10001880 <gpio_init>
10001088:	2380      	movs	r3, #128	; 0x80
1000108a:	4cae      	ldr	r4, [pc, #696]	; (10001344 <main+0x314>)
1000108c:	055b      	lsls	r3, r3, #21
1000108e:	626b      	str	r3, [r5, #36]	; 0x24
10001090:	49ad      	ldr	r1, [pc, #692]	; (10001348 <main+0x318>)
10001092:	61ab      	str	r3, [r5, #24]
10001094:	0020      	movs	r0, r4
10001096:	f004 fe7b 	bl	10005d90 <i2c_init>
1000109a:	2010      	movs	r0, #16
1000109c:	f000 fbf0 	bl	10001880 <gpio_init>
100010a0:	2011      	movs	r0, #17
100010a2:	f000 fbed 	bl	10001880 <gpio_init>
100010a6:	2103      	movs	r1, #3
100010a8:	2010      	movs	r0, #16
100010aa:	f000 fbbf 	bl	1000182c <gpio_set_function>
100010ae:	2103      	movs	r1, #3
100010b0:	2011      	movs	r0, #17
100010b2:	f000 fbbb 	bl	1000182c <gpio_set_function>
100010b6:	2200      	movs	r2, #0
100010b8:	2101      	movs	r1, #1
100010ba:	2010      	movs	r0, #16
100010bc:	f000 fbce 	bl	1000185c <gpio_set_pulls>
100010c0:	2200      	movs	r2, #0
100010c2:	2101      	movs	r1, #1
100010c4:	2011      	movs	r0, #17
100010c6:	f000 fbc9 	bl	1000185c <gpio_set_pulls>
100010ca:	4ba0      	ldr	r3, [pc, #640]	; (1000134c <main+0x31c>)
100010cc:	616e      	str	r6, [r5, #20]
100010ce:	6819      	ldr	r1, [r3, #0]
100010d0:	784b      	ldrb	r3, [r1, #1]
100010d2:	780a      	ldrb	r2, [r1, #0]
100010d4:	021b      	lsls	r3, r3, #8
100010d6:	4313      	orrs	r3, r2
100010d8:	788a      	ldrb	r2, [r1, #2]
100010da:	0412      	lsls	r2, r2, #16
100010dc:	431a      	orrs	r2, r3
100010de:	78cb      	ldrb	r3, [r1, #3]
100010e0:	061b      	lsls	r3, r3, #24
100010e2:	4313      	orrs	r3, r2
100010e4:	228c      	movs	r2, #140	; 0x8c
100010e6:	ba1b      	rev	r3, r3
100010e8:	1e59      	subs	r1, r3, #1
100010ea:	0052      	lsls	r2, r2, #1
100010ec:	4291      	cmp	r1, r2
100010ee:	d300      	bcc.n	100010f2 <main+0xc2>
100010f0:	e370      	b.n	100017d4 <main+0x7a4>
100010f2:	4a97      	ldr	r2, [pc, #604]	; (10001350 <main+0x320>)
100010f4:	ad1c      	add	r5, sp, #112	; 0x70
100010f6:	6013      	str	r3, [r2, #0]
100010f8:	4896      	ldr	r0, [pc, #600]	; (10001354 <main+0x324>)
100010fa:	f001 f99d 	bl	10002438 <sleep_ms>
100010fe:	23d0      	movs	r3, #208	; 0xd0
10001100:	2280      	movs	r2, #128	; 0x80
10001102:	2601      	movs	r6, #1
10001104:	061b      	lsls	r3, r3, #24
10001106:	0512      	lsls	r2, r2, #20
10001108:	615a      	str	r2, [r3, #20]
1000110a:	4b93      	ldr	r3, [pc, #588]	; (10001358 <main+0x328>)
1000110c:	215a      	movs	r1, #90	; 0x5a
1000110e:	001a      	movs	r2, r3
10001110:	930e      	str	r3, [sp, #56]	; 0x38
10001112:	0020      	movs	r0, r4
10001114:	2301      	movs	r3, #1
10001116:	9600      	str	r6, [sp, #0]
10001118:	f004 fe64 	bl	10005de4 <i2c_write_blocking>
1000111c:	2300      	movs	r3, #0
1000111e:	002a      	movs	r2, r5
10001120:	9300      	str	r3, [sp, #0]
10001122:	215a      	movs	r1, #90	; 0x5a
10001124:	0020      	movs	r0, r4
10001126:	3301      	adds	r3, #1
10001128:	f004 fee8 	bl	10005efc <i2c_read_blocking>
1000112c:	2800      	cmp	r0, #0
1000112e:	db01      	blt.n	10001134 <main+0x104>
10001130:	4b8a      	ldr	r3, [pc, #552]	; (1000135c <main+0x32c>)
10001132:	701e      	strb	r6, [r3, #0]
10001134:	26d0      	movs	r6, #208	; 0xd0
10001136:	2780      	movs	r7, #128	; 0x80
10001138:	0636      	lsls	r6, r6, #24
1000113a:	053f      	lsls	r7, r7, #20
1000113c:	2064      	movs	r0, #100	; 0x64
1000113e:	61b7      	str	r7, [r6, #24]
10001140:	f001 f97a 	bl	10002438 <sleep_ms>
10001144:	6177      	str	r7, [r6, #20]
10001146:	2601      	movs	r6, #1
10001148:	2301      	movs	r3, #1
1000114a:	215b      	movs	r1, #91	; 0x5b
1000114c:	9a0e      	ldr	r2, [sp, #56]	; 0x38
1000114e:	0020      	movs	r0, r4
10001150:	9600      	str	r6, [sp, #0]
10001152:	f004 fe47 	bl	10005de4 <i2c_write_blocking>
10001156:	2300      	movs	r3, #0
10001158:	002a      	movs	r2, r5
1000115a:	9300      	str	r3, [sp, #0]
1000115c:	215b      	movs	r1, #91	; 0x5b
1000115e:	3301      	adds	r3, #1
10001160:	0020      	movs	r0, r4
10001162:	f004 fecb 	bl	10005efc <i2c_read_blocking>
10001166:	4b7e      	ldr	r3, [pc, #504]	; (10001360 <main+0x330>)
10001168:	4698      	mov	r8, r3
1000116a:	2800      	cmp	r0, #0
1000116c:	db00      	blt.n	10001170 <main+0x140>
1000116e:	701e      	strb	r6, [r3, #0]
10001170:	26d0      	movs	r6, #208	; 0xd0
10001172:	2780      	movs	r7, #128	; 0x80
10001174:	0636      	lsls	r6, r6, #24
10001176:	053f      	lsls	r7, r7, #20
10001178:	2064      	movs	r0, #100	; 0x64
1000117a:	61b7      	str	r7, [r6, #24]
1000117c:	f001 f95c 	bl	10002438 <sleep_ms>
10001180:	6177      	str	r7, [r6, #20]
10001182:	2601      	movs	r6, #1
10001184:	2301      	movs	r3, #1
10001186:	215c      	movs	r1, #92	; 0x5c
10001188:	9a0e      	ldr	r2, [sp, #56]	; 0x38
1000118a:	0020      	movs	r0, r4
1000118c:	9600      	str	r6, [sp, #0]
1000118e:	f004 fe29 	bl	10005de4 <i2c_write_blocking>
10001192:	2300      	movs	r3, #0
10001194:	002a      	movs	r2, r5
10001196:	9300      	str	r3, [sp, #0]
10001198:	215c      	movs	r1, #92	; 0x5c
1000119a:	3301      	adds	r3, #1
1000119c:	0020      	movs	r0, r4
1000119e:	f004 fead 	bl	10005efc <i2c_read_blocking>
100011a2:	4b70      	ldr	r3, [pc, #448]	; (10001364 <main+0x334>)
100011a4:	4699      	mov	r9, r3
100011a6:	2800      	cmp	r0, #0
100011a8:	da00      	bge.n	100011ac <main+0x17c>
100011aa:	e310      	b.n	100017ce <main+0x79e>
100011ac:	701e      	strb	r6, [r3, #0]
100011ae:	2302      	movs	r3, #2
100011b0:	496d      	ldr	r1, [pc, #436]	; (10001368 <main+0x338>)
100011b2:	780a      	ldrb	r2, [r1, #0]
100011b4:	9109      	str	r1, [sp, #36]	; 0x24
100011b6:	4313      	orrs	r3, r2
100011b8:	700b      	strb	r3, [r1, #0]
100011ba:	26d0      	movs	r6, #208	; 0xd0
100011bc:	2780      	movs	r7, #128	; 0x80
100011be:	0636      	lsls	r6, r6, #24
100011c0:	053f      	lsls	r7, r7, #20
100011c2:	2064      	movs	r0, #100	; 0x64
100011c4:	61b7      	str	r7, [r6, #24]
100011c6:	f001 f937 	bl	10002438 <sleep_ms>
100011ca:	6177      	str	r7, [r6, #20]
100011cc:	2601      	movs	r6, #1
100011ce:	2301      	movs	r3, #1
100011d0:	215d      	movs	r1, #93	; 0x5d
100011d2:	9a0e      	ldr	r2, [sp, #56]	; 0x38
100011d4:	0020      	movs	r0, r4
100011d6:	9600      	str	r6, [sp, #0]
100011d8:	f004 fe04 	bl	10005de4 <i2c_write_blocking>
100011dc:	2300      	movs	r3, #0
100011de:	002a      	movs	r2, r5
100011e0:	9300      	str	r3, [sp, #0]
100011e2:	215d      	movs	r1, #93	; 0x5d
100011e4:	0020      	movs	r0, r4
100011e6:	3301      	adds	r3, #1
100011e8:	f004 fe88 	bl	10005efc <i2c_read_blocking>
100011ec:	2800      	cmp	r0, #0
100011ee:	db06      	blt.n	100011fe <main+0x1ce>
100011f0:	4b5e      	ldr	r3, [pc, #376]	; (1000136c <main+0x33c>)
100011f2:	9909      	ldr	r1, [sp, #36]	; 0x24
100011f4:	701e      	strb	r6, [r3, #0]
100011f6:	2320      	movs	r3, #32
100011f8:	780a      	ldrb	r2, [r1, #0]
100011fa:	4313      	orrs	r3, r2
100011fc:	700b      	strb	r3, [r1, #0]
100011fe:	26d0      	movs	r6, #208	; 0xd0
10001200:	2780      	movs	r7, #128	; 0x80
10001202:	0636      	lsls	r6, r6, #24
10001204:	053f      	lsls	r7, r7, #20
10001206:	2064      	movs	r0, #100	; 0x64
10001208:	61b7      	str	r7, [r6, #24]
1000120a:	f001 f915 	bl	10002438 <sleep_ms>
1000120e:	6177      	str	r7, [r6, #20]
10001210:	2601      	movs	r6, #1
10001212:	2301      	movs	r3, #1
10001214:	215e      	movs	r1, #94	; 0x5e
10001216:	9a0e      	ldr	r2, [sp, #56]	; 0x38
10001218:	0020      	movs	r0, r4
1000121a:	9600      	str	r6, [sp, #0]
1000121c:	f004 fde2 	bl	10005de4 <i2c_write_blocking>
10001220:	2300      	movs	r3, #0
10001222:	002a      	movs	r2, r5
10001224:	9300      	str	r3, [sp, #0]
10001226:	215e      	movs	r1, #94	; 0x5e
10001228:	0020      	movs	r0, r4
1000122a:	3301      	adds	r3, #1
1000122c:	f004 fe66 	bl	10005efc <i2c_read_blocking>
10001230:	4d4f      	ldr	r5, [pc, #316]	; (10001370 <main+0x340>)
10001232:	2800      	cmp	r0, #0
10001234:	db00      	blt.n	10001238 <main+0x208>
10001236:	702e      	strb	r6, [r5, #0]
10001238:	23d0      	movs	r3, #208	; 0xd0
1000123a:	2280      	movs	r2, #128	; 0x80
1000123c:	20fa      	movs	r0, #250	; 0xfa
1000123e:	061b      	lsls	r3, r3, #24
10001240:	0512      	lsls	r2, r2, #20
10001242:	619a      	str	r2, [r3, #24]
10001244:	0080      	lsls	r0, r0, #2
10001246:	f001 f8f7 	bl	10002438 <sleep_ms>
1000124a:	4643      	mov	r3, r8
1000124c:	781b      	ldrb	r3, [r3, #0]
1000124e:	2b00      	cmp	r3, #0
10001250:	d004      	beq.n	1000125c <main+0x22c>
10001252:	464b      	mov	r3, r9
10001254:	781b      	ldrb	r3, [r3, #0]
10001256:	2b00      	cmp	r3, #0
10001258:	d000      	beq.n	1000125c <main+0x22c>
1000125a:	e2b1      	b.n	100017c0 <main+0x790>
1000125c:	4b45      	ldr	r3, [pc, #276]	; (10001374 <main+0x344>)
1000125e:	001a      	movs	r2, r3
10001260:	930a      	str	r3, [sp, #40]	; 0x28
10001262:	2301      	movs	r3, #1
10001264:	7013      	strb	r3, [r2, #0]
10001266:	23d0      	movs	r3, #208	; 0xd0
10001268:	061b      	lsls	r3, r3, #24
1000126a:	685b      	ldr	r3, [r3, #4]
1000126c:	2201      	movs	r2, #1
1000126e:	075b      	lsls	r3, r3, #29
10001270:	d405      	bmi.n	1000127e <main+0x24e>
10001272:	9909      	ldr	r1, [sp, #36]	; 0x24
10001274:	780b      	ldrb	r3, [r1, #0]
10001276:	4393      	bics	r3, r2
10001278:	700b      	strb	r3, [r1, #0]
1000127a:	9b0a      	ldr	r3, [sp, #40]	; 0x28
1000127c:	701a      	strb	r2, [r3, #0]
1000127e:	f7ff fd33 	bl	10000ce8 <check_status>
10001282:	23a0      	movs	r3, #160	; 0xa0
10001284:	4d3c      	ldr	r5, [pc, #240]	; (10001378 <main+0x348>)
10001286:	2600      	movs	r6, #0
10001288:	702b      	strb	r3, [r5, #0]
1000128a:	4b3c      	ldr	r3, [pc, #240]	; (1000137c <main+0x34c>)
1000128c:	215c      	movs	r1, #92	; 0x5c
1000128e:	001a      	movs	r2, r3
10001290:	9307      	str	r3, [sp, #28]
10001292:	2301      	movs	r3, #1
10001294:	0020      	movs	r0, r4
10001296:	9300      	str	r3, [sp, #0]
10001298:	f004 fda4 	bl	10005de4 <i2c_write_blocking>
1000129c:	215c      	movs	r1, #92	; 0x5c
1000129e:	2301      	movs	r3, #1
100012a0:	002a      	movs	r2, r5
100012a2:	9600      	str	r6, [sp, #0]
100012a4:	0020      	movs	r0, r4
100012a6:	f004 fd9d 	bl	10005de4 <i2c_write_blocking>
100012aa:	f000 ff4b 	bl	10002144 <alarm_pool_get_default>
100012ae:	22fa      	movs	r2, #250	; 0xfa
100012b0:	4b33      	ldr	r3, [pc, #204]	; (10001380 <main+0x350>)
100012b2:	9601      	str	r6, [sp, #4]
100012b4:	9302      	str	r3, [sp, #8]
100012b6:	4b33      	ldr	r3, [pc, #204]	; (10001384 <main+0x354>)
100012b8:	0092      	lsls	r2, r2, #2
100012ba:	9300      	str	r3, [sp, #0]
100012bc:	2300      	movs	r3, #0
100012be:	f000 ff45 	bl	1000214c <alarm_pool_add_repeating_timer_us>
100012c2:	4b31      	ldr	r3, [pc, #196]	; (10001388 <main+0x358>)
100012c4:	4a31      	ldr	r2, [pc, #196]	; (1000138c <main+0x35c>)
100012c6:	469b      	mov	fp, r3
100012c8:	681b      	ldr	r3, [r3, #0]
100012ca:	4822      	ldr	r0, [pc, #136]	; (10001354 <main+0x324>)
100012cc:	6013      	str	r3, [r2, #0]
100012ce:	4692      	mov	sl, r2
100012d0:	f001 f8b2 	bl	10002438 <sleep_ms>
100012d4:	4b2e      	ldr	r3, [pc, #184]	; (10001390 <main+0x360>)
100012d6:	27d0      	movs	r7, #208	; 0xd0
100012d8:	930f      	str	r3, [sp, #60]	; 0x3c
100012da:	4b2e      	ldr	r3, [pc, #184]	; (10001394 <main+0x364>)
100012dc:	4e2e      	ldr	r6, [pc, #184]	; (10001398 <main+0x368>)
100012de:	9317      	str	r3, [sp, #92]	; 0x5c
100012e0:	4b2e      	ldr	r3, [pc, #184]	; (1000139c <main+0x36c>)
100012e2:	063f      	lsls	r7, r7, #24
100012e4:	9304      	str	r3, [sp, #16]
100012e6:	4b2e      	ldr	r3, [pc, #184]	; (100013a0 <main+0x370>)
100012e8:	9308      	str	r3, [sp, #32]
100012ea:	4b2e      	ldr	r3, [pc, #184]	; (100013a4 <main+0x374>)
100012ec:	9310      	str	r3, [sp, #64]	; 0x40
100012ee:	4b2e      	ldr	r3, [pc, #184]	; (100013a8 <main+0x378>)
100012f0:	931b      	str	r3, [sp, #108]	; 0x6c
100012f2:	4b2e      	ldr	r3, [pc, #184]	; (100013ac <main+0x37c>)
100012f4:	9311      	str	r3, [sp, #68]	; 0x44
100012f6:	4b2e      	ldr	r3, [pc, #184]	; (100013b0 <main+0x380>)
100012f8:	9312      	str	r3, [sp, #72]	; 0x48
100012fa:	4b2e      	ldr	r3, [pc, #184]	; (100013b4 <main+0x384>)
100012fc:	9313      	str	r3, [sp, #76]	; 0x4c
100012fe:	4b2e      	ldr	r3, [pc, #184]	; (100013b8 <main+0x388>)
10001300:	9305      	str	r3, [sp, #20]
10001302:	4b2e      	ldr	r3, [pc, #184]	; (100013bc <main+0x38c>)
10001304:	9306      	str	r3, [sp, #24]
10001306:	4b2e      	ldr	r3, [pc, #184]	; (100013c0 <main+0x390>)
10001308:	9314      	str	r3, [sp, #80]	; 0x50
1000130a:	4b2e      	ldr	r3, [pc, #184]	; (100013c4 <main+0x394>)
1000130c:	9315      	str	r3, [sp, #84]	; 0x54
1000130e:	4b2e      	ldr	r3, [pc, #184]	; (100013c8 <main+0x398>)
10001310:	9316      	str	r3, [sp, #88]	; 0x58
10001312:	4b2e      	ldr	r3, [pc, #184]	; (100013cc <main+0x39c>)
10001314:	930d      	str	r3, [sp, #52]	; 0x34
10001316:	4b2e      	ldr	r3, [pc, #184]	; (100013d0 <main+0x3a0>)
10001318:	930b      	str	r3, [sp, #44]	; 0x2c
1000131a:	4b2e      	ldr	r3, [pc, #184]	; (100013d4 <main+0x3a4>)
1000131c:	9318      	str	r3, [sp, #96]	; 0x60
1000131e:	4b2e      	ldr	r3, [pc, #184]	; (100013d8 <main+0x3a8>)
10001320:	9319      	str	r3, [sp, #100]	; 0x64
10001322:	4b2e      	ldr	r3, [pc, #184]	; (100013dc <main+0x3ac>)
10001324:	931a      	str	r3, [sp, #104]	; 0x68
10001326:	687b      	ldr	r3, [r7, #4]
10001328:	2201      	movs	r2, #1
1000132a:	075b      	lsls	r3, r3, #29
1000132c:	d458      	bmi.n	100013e0 <main+0x3b0>
1000132e:	9909      	ldr	r1, [sp, #36]	; 0x24
10001330:	780b      	ldrb	r3, [r1, #0]
10001332:	4393      	bics	r3, r2
10001334:	700b      	strb	r3, [r1, #0]
10001336:	9b0a      	ldr	r3, [sp, #40]	; 0x28
10001338:	701a      	strb	r2, [r3, #0]
1000133a:	e051      	b.n	100013e0 <main+0x3b0>
1000133c:	ffffef8c 	.word	0xffffef8c
10001340:	20000328 	.word	0x20000328
10001344:	200003f4 	.word	0x200003f4
10001348:	000186a0 	.word	0x000186a0
1000134c:	2000033c 	.word	0x2000033c
10001350:	20000338 	.word	0x20000338
10001354:	00002710 	.word	0x00002710
10001358:	10006303 	.word	0x10006303
1000135c:	2000192a 	.word	0x2000192a
10001360:	20001932 	.word	0x20001932
10001364:	20001928 	.word	0x20001928
10001368:	2000192b 	.word	0x2000192b
1000136c:	20001933 	.word	0x20001933
10001370:	2000192d 	.word	0x2000192d
10001374:	20001931 	.word	0x20001931
10001378:	20000868 	.word	0x20000868
1000137c:	100062ff 	.word	0x100062ff
10001380:	20000740 	.word	0x20000740
10001384:	10000311 	.word	0x10000311
10001388:	200018cc 	.word	0x200018cc
1000138c:	20000870 	.word	0x20000870
10001390:	2000192c 	.word	0x2000192c
10001394:	2000192f 	.word	0x2000192f
10001398:	20001924 	.word	0x20001924
1000139c:	20001900 	.word	0x20001900
100013a0:	20001934 	.word	0x20001934
100013a4:	20001925 	.word	0x20001925
100013a8:	2000086c 	.word	0x2000086c
100013ac:	100062fe 	.word	0x100062fe
100013b0:	2000032c 	.word	0x2000032c
100013b4:	20000330 	.word	0x20000330
100013b8:	200018c4 	.word	0x200018c4
100013bc:	200018e8 	.word	0x200018e8
100013c0:	20000334 	.word	0x20000334
100013c4:	10006301 	.word	0x10006301
100013c8:	10006302 	.word	0x10006302
100013cc:	200018ec 	.word	0x200018ec
100013d0:	200018c8 	.word	0x200018c8
100013d4:	20001930 	.word	0x20001930
100013d8:	20001929 	.word	0x20001929
100013dc:	20001936 	.word	0x20001936
100013e0:	7833      	ldrb	r3, [r6, #0]
100013e2:	2b02      	cmp	r3, #2
100013e4:	d100      	bne.n	100013e8 <main+0x3b8>
100013e6:	e0f4      	b.n	100015d2 <main+0x5a2>
100013e8:	d900      	bls.n	100013ec <main+0x3bc>
100013ea:	e087      	b.n	100014fc <main+0x4cc>
100013ec:	2b00      	cmp	r3, #0
100013ee:	d100      	bne.n	100013f2 <main+0x3c2>
100013f0:	e0bf      	b.n	10001572 <main+0x542>
100013f2:	2301      	movs	r3, #1
100013f4:	215c      	movs	r1, #92	; 0x5c
100013f6:	9a11      	ldr	r2, [sp, #68]	; 0x44
100013f8:	9300      	str	r3, [sp, #0]
100013fa:	0020      	movs	r0, r4
100013fc:	4699      	mov	r9, r3
100013fe:	f004 fcf1 	bl	10005de4 <i2c_write_blocking>
10001402:	2300      	movs	r3, #0
10001404:	002a      	movs	r2, r5
10001406:	4698      	mov	r8, r3
10001408:	215c      	movs	r1, #92	; 0x5c
1000140a:	9300      	str	r3, [sp, #0]
1000140c:	0020      	movs	r0, r4
1000140e:	3304      	adds	r3, #4
10001410:	f004 fd74 	bl	10005efc <i2c_read_blocking>
10001414:	2064      	movs	r0, #100	; 0x64
10001416:	682b      	ldr	r3, [r5, #0]
10001418:	ba1b      	rev	r3, r3
1000141a:	4358      	muls	r0, r3
1000141c:	9b12      	ldr	r3, [sp, #72]	; 0x48
1000141e:	6819      	ldr	r1, [r3, #0]
10001420:	f003 fa24 	bl	1000486c <__wrap___aeabi_uidiv>
10001424:	9b13      	ldr	r3, [sp, #76]	; 0x4c
10001426:	9914      	ldr	r1, [sp, #80]	; 0x50
10001428:	681b      	ldr	r3, [r3, #0]
1000142a:	9a05      	ldr	r2, [sp, #20]
1000142c:	4343      	muls	r3, r0
1000142e:	6808      	ldr	r0, [r1, #0]
10001430:	6013      	str	r3, [r2, #0]
10001432:	2164      	movs	r1, #100	; 0x64
10001434:	4358      	muls	r0, r3
10001436:	f003 fa19 	bl	1000486c <__wrap___aeabi_uidiv>
1000143a:	9b06      	ldr	r3, [sp, #24]
1000143c:	6018      	str	r0, [r3, #0]
1000143e:	200a      	movs	r0, #10
10001440:	f000 fffa 	bl	10002438 <sleep_ms>
10001444:	9a05      	ldr	r2, [sp, #20]
10001446:	215a      	movs	r1, #90	; 0x5a
10001448:	6813      	ldr	r3, [r2, #0]
1000144a:	464a      	mov	r2, r9
1000144c:	ba1b      	rev	r3, r3
1000144e:	602b      	str	r3, [r5, #0]
10001450:	0020      	movs	r0, r4
10001452:	2301      	movs	r3, #1
10001454:	9200      	str	r2, [sp, #0]
10001456:	9a15      	ldr	r2, [sp, #84]	; 0x54
10001458:	f004 fcc4 	bl	10005de4 <i2c_write_blocking>
1000145c:	4642      	mov	r2, r8
1000145e:	2304      	movs	r3, #4
10001460:	215a      	movs	r1, #90	; 0x5a
10001462:	9200      	str	r2, [sp, #0]
10001464:	0020      	movs	r0, r4
10001466:	002a      	movs	r2, r5
10001468:	f004 fcbc 	bl	10005de4 <i2c_write_blocking>
1000146c:	200a      	movs	r0, #10
1000146e:	f000 ffe3 	bl	10002438 <sleep_ms>
10001472:	9b06      	ldr	r3, [sp, #24]
10001474:	215a      	movs	r1, #90	; 0x5a
10001476:	681b      	ldr	r3, [r3, #0]
10001478:	9a16      	ldr	r2, [sp, #88]	; 0x58
1000147a:	ba1b      	rev	r3, r3
1000147c:	602b      	str	r3, [r5, #0]
1000147e:	464b      	mov	r3, r9
10001480:	0020      	movs	r0, r4
10001482:	9300      	str	r3, [sp, #0]
10001484:	f004 fcae 	bl	10005de4 <i2c_write_blocking>
10001488:	4643      	mov	r3, r8
1000148a:	002a      	movs	r2, r5
1000148c:	215a      	movs	r1, #90	; 0x5a
1000148e:	9300      	str	r3, [sp, #0]
10001490:	0020      	movs	r0, r4
10001492:	3304      	adds	r3, #4
10001494:	f004 fca6 	bl	10005de4 <i2c_write_blocking>
10001498:	200a      	movs	r0, #10
1000149a:	f000 ffcd 	bl	10002438 <sleep_ms>
1000149e:	464b      	mov	r3, r9
100014a0:	215a      	movs	r1, #90	; 0x5a
100014a2:	9a07      	ldr	r2, [sp, #28]
100014a4:	9300      	str	r3, [sp, #0]
100014a6:	0020      	movs	r0, r4
100014a8:	f004 fc9c 	bl	10005de4 <i2c_write_blocking>
100014ac:	4643      	mov	r3, r8
100014ae:	002a      	movs	r2, r5
100014b0:	215a      	movs	r1, #90	; 0x5a
100014b2:	9300      	str	r3, [sp, #0]
100014b4:	0020      	movs	r0, r4
100014b6:	3301      	adds	r3, #1
100014b8:	f004 fd20 	bl	10005efc <i2c_read_blocking>
100014bc:	2240      	movs	r2, #64	; 0x40
100014be:	9b04      	ldr	r3, [sp, #16]
100014c0:	9908      	ldr	r1, [sp, #32]
100014c2:	781b      	ldrb	r3, [r3, #0]
100014c4:	200a      	movs	r0, #10
100014c6:	4313      	orrs	r3, r2
100014c8:	700b      	strb	r3, [r1, #0]
100014ca:	702b      	strb	r3, [r5, #0]
100014cc:	f000 ffb4 	bl	10002438 <sleep_ms>
100014d0:	464b      	mov	r3, r9
100014d2:	215a      	movs	r1, #90	; 0x5a
100014d4:	9a07      	ldr	r2, [sp, #28]
100014d6:	9300      	str	r3, [sp, #0]
100014d8:	0020      	movs	r0, r4
100014da:	f004 fc83 	bl	10005de4 <i2c_write_blocking>
100014de:	4643      	mov	r3, r8
100014e0:	002a      	movs	r2, r5
100014e2:	9300      	str	r3, [sp, #0]
100014e4:	215a      	movs	r1, #90	; 0x5a
100014e6:	3301      	adds	r3, #1
100014e8:	0020      	movs	r0, r4
100014ea:	f004 fc7b 	bl	10005de4 <i2c_write_blocking>
100014ee:	2302      	movs	r3, #2
100014f0:	7033      	strb	r3, [r6, #0]
100014f2:	465b      	mov	r3, fp
100014f4:	4652      	mov	r2, sl
100014f6:	681b      	ldr	r3, [r3, #0]
100014f8:	6013      	str	r3, [r2, #0]
100014fa:	e714      	b.n	10001326 <main+0x2f6>
100014fc:	2b03      	cmp	r3, #3
100014fe:	d000      	beq.n	10001502 <main+0x4d2>
10001500:	e711      	b.n	10001326 <main+0x2f6>
10001502:	2380      	movs	r3, #128	; 0x80
10001504:	055b      	lsls	r3, r3, #21
10001506:	61bb      	str	r3, [r7, #24]
10001508:	9b06      	ldr	r3, [sp, #24]
1000150a:	2164      	movs	r1, #100	; 0x64
1000150c:	6818      	ldr	r0, [r3, #0]
1000150e:	f003 f9ad 	bl	1000486c <__wrap___aeabi_uidiv>
10001512:	9b0d      	ldr	r3, [sp, #52]	; 0x34
10001514:	9a05      	ldr	r2, [sp, #20]
10001516:	6018      	str	r0, [r3, #0]
10001518:	2164      	movs	r1, #100	; 0x64
1000151a:	6810      	ldr	r0, [r2, #0]
1000151c:	f003 f9a6 	bl	1000486c <__wrap___aeabi_uidiv>
10001520:	9a0b      	ldr	r2, [sp, #44]	; 0x2c
10001522:	6010      	str	r0, [r2, #0]
10001524:	f7fe ff3e 	bl	100003a4 <readDS3231Time>
10001528:	f7ff fcaa 	bl	10000e80 <saveLog>
1000152c:	20fa      	movs	r0, #250	; 0xfa
1000152e:	00c0      	lsls	r0, r0, #3
10001530:	f000 ff82 	bl	10002438 <sleep_ms>
10001534:	9818      	ldr	r0, [sp, #96]	; 0x60
10001536:	990b      	ldr	r1, [sp, #44]	; 0x2c
10001538:	7803      	ldrb	r3, [r0, #0]
1000153a:	9819      	ldr	r0, [sp, #100]	; 0x64
1000153c:	4698      	mov	r8, r3
1000153e:	9b0d      	ldr	r3, [sp, #52]	; 0x34
10001540:	7802      	ldrb	r2, [r0, #0]
10001542:	6818      	ldr	r0, [r3, #0]
10001544:	9b0c      	ldr	r3, [sp, #48]	; 0x30
10001546:	6809      	ldr	r1, [r1, #0]
10001548:	781b      	ldrb	r3, [r3, #0]
1000154a:	9303      	str	r3, [sp, #12]
1000154c:	9b17      	ldr	r3, [sp, #92]	; 0x5c
1000154e:	781b      	ldrb	r3, [r3, #0]
10001550:	9302      	str	r3, [sp, #8]
10001552:	9b0f      	ldr	r3, [sp, #60]	; 0x3c
10001554:	781b      	ldrb	r3, [r3, #0]
10001556:	9301      	str	r3, [sp, #4]
10001558:	9b1a      	ldr	r3, [sp, #104]	; 0x68
1000155a:	781b      	ldrb	r3, [r3, #0]
1000155c:	9300      	str	r3, [sp, #0]
1000155e:	4643      	mov	r3, r8
10001560:	f7fe ff6c 	bl	1000043c <printCheck>
10001564:	9a0c      	ldr	r2, [sp, #48]	; 0x30
10001566:	7813      	ldrb	r3, [r2, #0]
10001568:	3301      	adds	r3, #1
1000156a:	7013      	strb	r3, [r2, #0]
1000156c:	2300      	movs	r3, #0
1000156e:	7033      	strb	r3, [r6, #0]
10001570:	e6d9      	b.n	10001326 <main+0x2f6>
10001572:	465b      	mov	r3, fp
10001574:	4652      	mov	r2, sl
10001576:	681b      	ldr	r3, [r3, #0]
10001578:	6812      	ldr	r2, [r2, #0]
1000157a:	1a9b      	subs	r3, r3, r2
1000157c:	4aa4      	ldr	r2, [pc, #656]	; (10001810 <main+0x7e0>)
1000157e:	4293      	cmp	r3, r2
10001580:	d900      	bls.n	10001584 <main+0x554>
10001582:	e106      	b.n	10001792 <main+0x762>
10001584:	2301      	movs	r3, #1
10001586:	215c      	movs	r1, #92	; 0x5c
10001588:	9a0e      	ldr	r2, [sp, #56]	; 0x38
1000158a:	9300      	str	r3, [sp, #0]
1000158c:	0020      	movs	r0, r4
1000158e:	4698      	mov	r8, r3
10001590:	f004 fc28 	bl	10005de4 <i2c_write_blocking>
10001594:	2300      	movs	r3, #0
10001596:	9a04      	ldr	r2, [sp, #16]
10001598:	9300      	str	r3, [sp, #0]
1000159a:	4699      	mov	r9, r3
1000159c:	215c      	movs	r1, #92	; 0x5c
1000159e:	3301      	adds	r3, #1
100015a0:	0020      	movs	r0, r4
100015a2:	f004 fcab 	bl	10005efc <i2c_read_blocking>
100015a6:	9b04      	ldr	r3, [sp, #16]
100015a8:	9a08      	ldr	r2, [sp, #32]
100015aa:	781b      	ldrb	r3, [r3, #0]
100015ac:	7013      	strb	r3, [r2, #0]
100015ae:	4642      	mov	r2, r8
100015b0:	095b      	lsrs	r3, r3, #5
100015b2:	4013      	ands	r3, r2
100015b4:	9a10      	ldr	r2, [sp, #64]	; 0x40
100015b6:	7013      	strb	r3, [r2, #0]
100015b8:	d007      	beq.n	100015ca <main+0x59a>
100015ba:	464a      	mov	r2, r9
100015bc:	9b1b      	ldr	r3, [sp, #108]	; 0x6c
100015be:	601a      	str	r2, [r3, #0]
100015c0:	2380      	movs	r3, #128	; 0x80
100015c2:	055b      	lsls	r3, r3, #21
100015c4:	617b      	str	r3, [r7, #20]
100015c6:	4643      	mov	r3, r8
100015c8:	7033      	strb	r3, [r6, #0]
100015ca:	2064      	movs	r0, #100	; 0x64
100015cc:	f000 ff34 	bl	10002438 <sleep_ms>
100015d0:	e6a9      	b.n	10001326 <main+0x2f6>
100015d2:	465b      	mov	r3, fp
100015d4:	4652      	mov	r2, sl
100015d6:	681b      	ldr	r3, [r3, #0]
100015d8:	6812      	ldr	r2, [r2, #0]
100015da:	1a9b      	subs	r3, r3, r2
100015dc:	22fa      	movs	r2, #250	; 0xfa
100015de:	0052      	lsls	r2, r2, #1
100015e0:	4293      	cmp	r3, r2
100015e2:	d200      	bcs.n	100015e6 <main+0x5b6>
100015e4:	e69f      	b.n	10001326 <main+0x2f6>
100015e6:	2301      	movs	r3, #1
100015e8:	215c      	movs	r1, #92	; 0x5c
100015ea:	9a11      	ldr	r2, [sp, #68]	; 0x44
100015ec:	9300      	str	r3, [sp, #0]
100015ee:	0020      	movs	r0, r4
100015f0:	4698      	mov	r8, r3
100015f2:	f004 fbf7 	bl	10005de4 <i2c_write_blocking>
100015f6:	2300      	movs	r3, #0
100015f8:	002a      	movs	r2, r5
100015fa:	4699      	mov	r9, r3
100015fc:	215c      	movs	r1, #92	; 0x5c
100015fe:	9300      	str	r3, [sp, #0]
10001600:	0020      	movs	r0, r4
10001602:	3304      	adds	r3, #4
10001604:	f004 fc7a 	bl	10005efc <i2c_read_blocking>
10001608:	2064      	movs	r0, #100	; 0x64
1000160a:	682b      	ldr	r3, [r5, #0]
1000160c:	ba1b      	rev	r3, r3
1000160e:	4358      	muls	r0, r3
10001610:	9b12      	ldr	r3, [sp, #72]	; 0x48
10001612:	6819      	ldr	r1, [r3, #0]
10001614:	f003 f92a 	bl	1000486c <__wrap___aeabi_uidiv>
10001618:	9b13      	ldr	r3, [sp, #76]	; 0x4c
1000161a:	9914      	ldr	r1, [sp, #80]	; 0x50
1000161c:	681b      	ldr	r3, [r3, #0]
1000161e:	9a05      	ldr	r2, [sp, #20]
10001620:	4343      	muls	r3, r0
10001622:	6808      	ldr	r0, [r1, #0]
10001624:	6013      	str	r3, [r2, #0]
10001626:	2164      	movs	r1, #100	; 0x64
10001628:	4358      	muls	r0, r3
1000162a:	f003 f91f 	bl	1000486c <__wrap___aeabi_uidiv>
1000162e:	9b06      	ldr	r3, [sp, #24]
10001630:	6018      	str	r0, [r3, #0]
10001632:	200a      	movs	r0, #10
10001634:	f000 ff00 	bl	10002438 <sleep_ms>
10001638:	9a05      	ldr	r2, [sp, #20]
1000163a:	215a      	movs	r1, #90	; 0x5a
1000163c:	6813      	ldr	r3, [r2, #0]
1000163e:	4642      	mov	r2, r8
10001640:	ba1b      	rev	r3, r3
10001642:	602b      	str	r3, [r5, #0]
10001644:	0020      	movs	r0, r4
10001646:	2301      	movs	r3, #1
10001648:	9200      	str	r2, [sp, #0]
1000164a:	9a15      	ldr	r2, [sp, #84]	; 0x54
1000164c:	f004 fbca 	bl	10005de4 <i2c_write_blocking>
10001650:	464a      	mov	r2, r9
10001652:	2304      	movs	r3, #4
10001654:	215a      	movs	r1, #90	; 0x5a
10001656:	9200      	str	r2, [sp, #0]
10001658:	0020      	movs	r0, r4
1000165a:	002a      	movs	r2, r5
1000165c:	f004 fbc2 	bl	10005de4 <i2c_write_blocking>
10001660:	200a      	movs	r0, #10
10001662:	f000 fee9 	bl	10002438 <sleep_ms>
10001666:	9b06      	ldr	r3, [sp, #24]
10001668:	215a      	movs	r1, #90	; 0x5a
1000166a:	681b      	ldr	r3, [r3, #0]
1000166c:	9a16      	ldr	r2, [sp, #88]	; 0x58
1000166e:	ba1b      	rev	r3, r3
10001670:	602b      	str	r3, [r5, #0]
10001672:	4643      	mov	r3, r8
10001674:	0020      	movs	r0, r4
10001676:	9300      	str	r3, [sp, #0]
10001678:	f004 fbb4 	bl	10005de4 <i2c_write_blocking>
1000167c:	464b      	mov	r3, r9
1000167e:	002a      	movs	r2, r5
10001680:	215a      	movs	r1, #90	; 0x5a
10001682:	9300      	str	r3, [sp, #0]
10001684:	0020      	movs	r0, r4
10001686:	3304      	adds	r3, #4
10001688:	f004 fbac 	bl	10005de4 <i2c_write_blocking>
1000168c:	200a      	movs	r0, #10
1000168e:	f000 fed3 	bl	10002438 <sleep_ms>
10001692:	4643      	mov	r3, r8
10001694:	215a      	movs	r1, #90	; 0x5a
10001696:	9a07      	ldr	r2, [sp, #28]
10001698:	9300      	str	r3, [sp, #0]
1000169a:	0020      	movs	r0, r4
1000169c:	f004 fba2 	bl	10005de4 <i2c_write_blocking>
100016a0:	464b      	mov	r3, r9
100016a2:	002a      	movs	r2, r5
100016a4:	215a      	movs	r1, #90	; 0x5a
100016a6:	9300      	str	r3, [sp, #0]
100016a8:	0020      	movs	r0, r4
100016aa:	3301      	adds	r3, #1
100016ac:	f004 fc26 	bl	10005efc <i2c_read_blocking>
100016b0:	2240      	movs	r2, #64	; 0x40
100016b2:	9b04      	ldr	r3, [sp, #16]
100016b4:	9908      	ldr	r1, [sp, #32]
100016b6:	781b      	ldrb	r3, [r3, #0]
100016b8:	200a      	movs	r0, #10
100016ba:	4313      	orrs	r3, r2
100016bc:	700b      	strb	r3, [r1, #0]
100016be:	702b      	strb	r3, [r5, #0]
100016c0:	f000 feba 	bl	10002438 <sleep_ms>
100016c4:	4640      	mov	r0, r8
100016c6:	2301      	movs	r3, #1
100016c8:	215a      	movs	r1, #90	; 0x5a
100016ca:	9a07      	ldr	r2, [sp, #28]
100016cc:	9000      	str	r0, [sp, #0]
100016ce:	0020      	movs	r0, r4
100016d0:	f004 fb88 	bl	10005de4 <i2c_write_blocking>
100016d4:	464a      	mov	r2, r9
100016d6:	2301      	movs	r3, #1
100016d8:	215a      	movs	r1, #90	; 0x5a
100016da:	9200      	str	r2, [sp, #0]
100016dc:	0020      	movs	r0, r4
100016de:	002a      	movs	r2, r5
100016e0:	f004 fb80 	bl	10005de4 <i2c_write_blocking>
100016e4:	4642      	mov	r2, r8
100016e6:	2301      	movs	r3, #1
100016e8:	215c      	movs	r1, #92	; 0x5c
100016ea:	9200      	str	r2, [sp, #0]
100016ec:	0020      	movs	r0, r4
100016ee:	9a0e      	ldr	r2, [sp, #56]	; 0x38
100016f0:	f004 fb78 	bl	10005de4 <i2c_write_blocking>
100016f4:	464a      	mov	r2, r9
100016f6:	9200      	str	r2, [sp, #0]
100016f8:	9a04      	ldr	r2, [sp, #16]
100016fa:	2301      	movs	r3, #1
100016fc:	4691      	mov	r9, r2
100016fe:	215c      	movs	r1, #92	; 0x5c
10001700:	0020      	movs	r0, r4
10001702:	f004 fbfb 	bl	10005efc <i2c_read_blocking>
10001706:	464b      	mov	r3, r9
10001708:	4642      	mov	r2, r8
1000170a:	781b      	ldrb	r3, [r3, #0]
1000170c:	9908      	ldr	r1, [sp, #32]
1000170e:	700b      	strb	r3, [r1, #0]
10001710:	091b      	lsrs	r3, r3, #4
10001712:	4013      	ands	r3, r2
10001714:	9a10      	ldr	r2, [sp, #64]	; 0x40
10001716:	7013      	strb	r3, [r2, #0]
10001718:	b2da      	uxtb	r2, r3
1000171a:	4691      	mov	r9, r2
1000171c:	2b00      	cmp	r3, #0
1000171e:	d000      	beq.n	10001722 <main+0x6f2>
10001720:	e6e7      	b.n	100014f2 <main+0x4c2>
10001722:	4643      	mov	r3, r8
10001724:	215a      	movs	r1, #90	; 0x5a
10001726:	9a07      	ldr	r2, [sp, #28]
10001728:	9300      	str	r3, [sp, #0]
1000172a:	0020      	movs	r0, r4
1000172c:	f004 fb5a 	bl	10005de4 <i2c_write_blocking>
10001730:	464b      	mov	r3, r9
10001732:	002a      	movs	r2, r5
10001734:	215a      	movs	r1, #90	; 0x5a
10001736:	9300      	str	r3, [sp, #0]
10001738:	0020      	movs	r0, r4
1000173a:	2301      	movs	r3, #1
1000173c:	f004 fbde 	bl	10005efc <i2c_read_blocking>
10001740:	2240      	movs	r2, #64	; 0x40
10001742:	9b04      	ldr	r3, [sp, #16]
10001744:	9908      	ldr	r1, [sp, #32]
10001746:	781b      	ldrb	r3, [r3, #0]
10001748:	0020      	movs	r0, r4
1000174a:	4393      	bics	r3, r2
1000174c:	700b      	strb	r3, [r1, #0]
1000174e:	702b      	strb	r3, [r5, #0]
10001750:	4643      	mov	r3, r8
10001752:	215a      	movs	r1, #90	; 0x5a
10001754:	9a07      	ldr	r2, [sp, #28]
10001756:	9300      	str	r3, [sp, #0]
10001758:	f004 fb44 	bl	10005de4 <i2c_write_blocking>
1000175c:	464b      	mov	r3, r9
1000175e:	002a      	movs	r2, r5
10001760:	215a      	movs	r1, #90	; 0x5a
10001762:	9300      	str	r3, [sp, #0]
10001764:	0020      	movs	r0, r4
10001766:	2301      	movs	r3, #1
10001768:	f004 fb3c 	bl	10005de4 <i2c_write_blocking>
1000176c:	23a0      	movs	r3, #160	; 0xa0
1000176e:	702b      	strb	r3, [r5, #0]
10001770:	4643      	mov	r3, r8
10001772:	215c      	movs	r1, #92	; 0x5c
10001774:	9a07      	ldr	r2, [sp, #28]
10001776:	9300      	str	r3, [sp, #0]
10001778:	0020      	movs	r0, r4
1000177a:	f004 fb33 	bl	10005de4 <i2c_write_blocking>
1000177e:	464b      	mov	r3, r9
10001780:	002a      	movs	r2, r5
10001782:	9300      	str	r3, [sp, #0]
10001784:	215c      	movs	r1, #92	; 0x5c
10001786:	2301      	movs	r3, #1
10001788:	0020      	movs	r0, r4
1000178a:	f004 fb2b 	bl	10005de4 <i2c_write_blocking>
1000178e:	2303      	movs	r3, #3
10001790:	e6ae      	b.n	100014f0 <main+0x4c0>
10001792:	f7ff faa9 	bl	10000ce8 <check_status>
10001796:	465b      	mov	r3, fp
10001798:	4652      	mov	r2, sl
1000179a:	681b      	ldr	r3, [r3, #0]
1000179c:	6013      	str	r3, [r2, #0]
1000179e:	f7fe fe01 	bl	100003a4 <readDS3231Time>
100017a2:	9b0f      	ldr	r3, [sp, #60]	; 0x3c
100017a4:	781b      	ldrb	r3, [r3, #0]
100017a6:	2b00      	cmp	r3, #0
100017a8:	d103      	bne.n	100017b2 <main+0x782>
100017aa:	9b17      	ldr	r3, [sp, #92]	; 0x5c
100017ac:	781b      	ldrb	r3, [r3, #0]
100017ae:	2b01      	cmp	r3, #1
100017b0:	d903      	bls.n	100017ba <main+0x78a>
100017b2:	4818      	ldr	r0, [pc, #96]	; (10001814 <main+0x7e4>)
100017b4:	f000 fe40 	bl	10002438 <sleep_ms>
100017b8:	e6e4      	b.n	10001584 <main+0x554>
100017ba:	f7ff fbdd 	bl	10000f78 <printLog>
100017be:	e7f8      	b.n	100017b2 <main+0x782>
100017c0:	4a15      	ldr	r2, [pc, #84]	; (10001818 <main+0x7e8>)
100017c2:	782b      	ldrb	r3, [r5, #0]
100017c4:	920a      	str	r2, [sp, #40]	; 0x28
100017c6:	2b00      	cmp	r3, #0
100017c8:	d000      	beq.n	100017cc <main+0x79c>
100017ca:	e54c      	b.n	10001266 <main+0x236>
100017cc:	e546      	b.n	1000125c <main+0x22c>
100017ce:	4b13      	ldr	r3, [pc, #76]	; (1000181c <main+0x7ec>)
100017d0:	9309      	str	r3, [sp, #36]	; 0x24
100017d2:	e4f2      	b.n	100011ba <main+0x18a>
100017d4:	2284      	movs	r2, #132	; 0x84
100017d6:	4b12      	ldr	r3, [pc, #72]	; (10001820 <main+0x7f0>)
100017d8:	0292      	lsls	r2, r2, #10
100017da:	601a      	str	r2, [r3, #0]
100017dc:	4b11      	ldr	r3, [pc, #68]	; (10001824 <main+0x7f4>)
100017de:	931c      	str	r3, [sp, #112]	; 0x70
100017e0:	f3ef 8310 	mrs	r3, PRIMASK
100017e4:	b672      	cpsid	i
100017e6:	2180      	movs	r1, #128	; 0x80
100017e8:	2080      	movs	r0, #128	; 0x80
100017ea:	4e0f      	ldr	r6, [pc, #60]	; (10001828 <main+0x7f8>)
100017ec:	0149      	lsls	r1, r1, #5
100017ee:	0280      	lsls	r0, r0, #10
100017f0:	6033      	str	r3, [r6, #0]
100017f2:	f004 fcc9 	bl	10006188 <__flash_range_erase_veneer>
100017f6:	2280      	movs	r2, #128	; 0x80
100017f8:	2080      	movs	r0, #128	; 0x80
100017fa:	ad1c      	add	r5, sp, #112	; 0x70
100017fc:	0029      	movs	r1, r5
100017fe:	0152      	lsls	r2, r2, #5
10001800:	0280      	lsls	r0, r0, #10
10001802:	f004 fca9 	bl	10006158 <__flash_range_program_veneer>
10001806:	6833      	ldr	r3, [r6, #0]
10001808:	f383 8810 	msr	PRIMASK, r3
1000180c:	e474      	b.n	100010f8 <main+0xc8>
1000180e:	46c0      	nop			; (mov r8, r8)
10001810:	0000270f 	.word	0x0000270f
10001814:	00007530 	.word	0x00007530
10001818:	20001931 	.word	0x20001931
1000181c:	2000192b 	.word	0x2000192b
10001820:	20000338 	.word	0x20000338
10001824:	00100200 	.word	0x00100200
10001828:	200018bc 	.word	0x200018bc

1000182c <gpio_set_function>:
1000182c:	4a09      	ldr	r2, [pc, #36]	; (10001854 <gpio_set_function+0x28>)
1000182e:	b510      	push	{r4, lr}
10001830:	4694      	mov	ip, r2
10001832:	2440      	movs	r4, #64	; 0x40
10001834:	0083      	lsls	r3, r0, #2
10001836:	4463      	add	r3, ip
10001838:	681a      	ldr	r2, [r3, #0]
1000183a:	00c0      	lsls	r0, r0, #3
1000183c:	4062      	eors	r2, r4
1000183e:	3480      	adds	r4, #128	; 0x80
10001840:	4014      	ands	r4, r2
10001842:	2280      	movs	r2, #128	; 0x80
10001844:	0152      	lsls	r2, r2, #5
10001846:	4313      	orrs	r3, r2
10001848:	601c      	str	r4, [r3, #0]
1000184a:	4b03      	ldr	r3, [pc, #12]	; (10001858 <gpio_set_function+0x2c>)
1000184c:	469c      	mov	ip, r3
1000184e:	4460      	add	r0, ip
10001850:	6041      	str	r1, [r0, #4]
10001852:	bd10      	pop	{r4, pc}
10001854:	4001c004 	.word	0x4001c004
10001858:	40014000 	.word	0x40014000

1000185c <gpio_set_pulls>:
1000185c:	4b07      	ldr	r3, [pc, #28]	; (1000187c <gpio_set_pulls+0x20>)
1000185e:	0080      	lsls	r0, r0, #2
10001860:	469c      	mov	ip, r3
10001862:	4460      	add	r0, ip
10001864:	6803      	ldr	r3, [r0, #0]
10001866:	00c9      	lsls	r1, r1, #3
10001868:	0092      	lsls	r2, r2, #2
1000186a:	430a      	orrs	r2, r1
1000186c:	405a      	eors	r2, r3
1000186e:	230c      	movs	r3, #12
10001870:	401a      	ands	r2, r3
10001872:	2380      	movs	r3, #128	; 0x80
10001874:	015b      	lsls	r3, r3, #5
10001876:	4303      	orrs	r3, r0
10001878:	601a      	str	r2, [r3, #0]
1000187a:	4770      	bx	lr
1000187c:	4001c004 	.word	0x4001c004

10001880 <gpio_init>:
10001880:	2301      	movs	r3, #1
10001882:	22d0      	movs	r2, #208	; 0xd0
10001884:	4083      	lsls	r3, r0
10001886:	0612      	lsls	r2, r2, #24
10001888:	6293      	str	r3, [r2, #40]	; 0x28
1000188a:	6193      	str	r3, [r2, #24]
1000188c:	4a09      	ldr	r2, [pc, #36]	; (100018b4 <gpio_init+0x34>)
1000188e:	2140      	movs	r1, #64	; 0x40
10001890:	4694      	mov	ip, r2
10001892:	0083      	lsls	r3, r0, #2
10001894:	4463      	add	r3, ip
10001896:	681a      	ldr	r2, [r3, #0]
10001898:	00c0      	lsls	r0, r0, #3
1000189a:	404a      	eors	r2, r1
1000189c:	3180      	adds	r1, #128	; 0x80
1000189e:	4011      	ands	r1, r2
100018a0:	2280      	movs	r2, #128	; 0x80
100018a2:	0152      	lsls	r2, r2, #5
100018a4:	4313      	orrs	r3, r2
100018a6:	6019      	str	r1, [r3, #0]
100018a8:	4b03      	ldr	r3, [pc, #12]	; (100018b8 <gpio_init+0x38>)
100018aa:	469c      	mov	ip, r3
100018ac:	2305      	movs	r3, #5
100018ae:	4460      	add	r0, ip
100018b0:	6043      	str	r3, [r0, #4]
100018b2:	4770      	bx	lr
100018b4:	4001c004 	.word	0x4001c004
100018b8:	40014000 	.word	0x40014000

100018bc <hw_claim_or_assert>:
100018bc:	b570      	push	{r4, r5, r6, lr}
100018be:	f3ef 8c10 	mrs	ip, PRIMASK
100018c2:	b672      	cpsid	i
100018c4:	4d0d      	ldr	r5, [pc, #52]	; (100018fc <hw_claim_or_assert+0x40>)
100018c6:	682b      	ldr	r3, [r5, #0]
100018c8:	2b00      	cmp	r3, #0
100018ca:	d0fc      	beq.n	100018c6 <hw_claim_or_assert+0xa>
100018cc:	f3bf 8f5f 	dmb	sy
100018d0:	2407      	movs	r4, #7
100018d2:	08cb      	lsrs	r3, r1, #3
100018d4:	18c6      	adds	r6, r0, r3
100018d6:	5cc0      	ldrb	r0, [r0, r3]
100018d8:	2301      	movs	r3, #1
100018da:	400c      	ands	r4, r1
100018dc:	40a3      	lsls	r3, r4
100018de:	001c      	movs	r4, r3
100018e0:	4004      	ands	r4, r0
100018e2:	4203      	tst	r3, r0
100018e4:	d107      	bne.n	100018f6 <hw_claim_or_assert+0x3a>
100018e6:	4318      	orrs	r0, r3
100018e8:	7030      	strb	r0, [r6, #0]
100018ea:	f3bf 8f5f 	dmb	sy
100018ee:	602c      	str	r4, [r5, #0]
100018f0:	f38c 8810 	msr	PRIMASK, ip
100018f4:	bd70      	pop	{r4, r5, r6, pc}
100018f6:	0010      	movs	r0, r2
100018f8:	f001 fa34 	bl	10002d64 <panic>
100018fc:	d000012c 	.word	0xd000012c

10001900 <running_on_fpga>:
10001900:	4b02      	ldr	r3, [pc, #8]	; (1000190c <running_on_fpga+0xc>)
10001902:	6818      	ldr	r0, [r3, #0]
10001904:	0780      	lsls	r0, r0, #30
10001906:	0fc0      	lsrs	r0, r0, #31
10001908:	4770      	bx	lr
1000190a:	46c0      	nop			; (mov r8, r8)
1000190c:	4006c000 	.word	0x4006c000

10001910 <spin_locks_reset>:
10001910:	2100      	movs	r1, #0
10001912:	4b04      	ldr	r3, [pc, #16]	; (10001924 <spin_locks_reset+0x14>)
10001914:	4a04      	ldr	r2, [pc, #16]	; (10001928 <spin_locks_reset+0x18>)
10001916:	f3bf 8f5f 	dmb	sy
1000191a:	c302      	stmia	r3!, {r1}
1000191c:	4293      	cmp	r3, r2
1000191e:	d1fa      	bne.n	10001916 <spin_locks_reset+0x6>
10001920:	4770      	bx	lr
10001922:	46c0      	nop			; (mov r8, r8)
10001924:	d0000100 	.word	0xd0000100
10001928:	d0000180 	.word	0xd0000180

1000192c <next_striped_spin_lock_num>:
1000192c:	4a04      	ldr	r2, [pc, #16]	; (10001940 <next_striped_spin_lock_num+0x14>)
1000192e:	7810      	ldrb	r0, [r2, #0]
10001930:	1c43      	adds	r3, r0, #1
10001932:	b2db      	uxtb	r3, r3
10001934:	2b17      	cmp	r3, #23
10001936:	d900      	bls.n	1000193a <next_striped_spin_lock_num+0xe>
10001938:	2310      	movs	r3, #16
1000193a:	7013      	strb	r3, [r2, #0]
1000193c:	4770      	bx	lr
1000193e:	46c0      	nop			; (mov r8, r8)
10001940:	20000344 	.word	0x20000344

10001944 <irq_set_enabled>:
10001944:	2301      	movs	r3, #1
10001946:	4083      	lsls	r3, r0
10001948:	2900      	cmp	r1, #0
1000194a:	d004      	beq.n	10001956 <irq_set_enabled+0x12>
1000194c:	4a03      	ldr	r2, [pc, #12]	; (1000195c <irq_set_enabled+0x18>)
1000194e:	6013      	str	r3, [r2, #0]
10001950:	4a03      	ldr	r2, [pc, #12]	; (10001960 <irq_set_enabled+0x1c>)
10001952:	6013      	str	r3, [r2, #0]
10001954:	4770      	bx	lr
10001956:	4a03      	ldr	r2, [pc, #12]	; (10001964 <irq_set_enabled+0x20>)
10001958:	6013      	str	r3, [r2, #0]
1000195a:	e7fb      	b.n	10001954 <irq_set_enabled+0x10>
1000195c:	e000e280 	.word	0xe000e280
10001960:	e000e100 	.word	0xe000e100
10001964:	e000e180 	.word	0xe000e180

10001968 <irq_get_vtable_handler>:
10001968:	4b02      	ldr	r3, [pc, #8]	; (10001974 <irq_get_vtable_handler+0xc>)
1000196a:	3010      	adds	r0, #16
1000196c:	689b      	ldr	r3, [r3, #8]
1000196e:	0080      	lsls	r0, r0, #2
10001970:	58c0      	ldr	r0, [r0, r3]
10001972:	4770      	bx	lr
10001974:	e000ed00 	.word	0xe000ed00

10001978 <irq_set_exclusive_handler>:
10001978:	b570      	push	{r4, r5, r6, lr}
1000197a:	000d      	movs	r5, r1
1000197c:	f3ef 8610 	mrs	r6, PRIMASK
10001980:	b672      	cpsid	i
10001982:	4a0f      	ldr	r2, [pc, #60]	; (100019c0 <irq_set_exclusive_handler+0x48>)
10001984:	6813      	ldr	r3, [r2, #0]
10001986:	2b00      	cmp	r3, #0
10001988:	d0fc      	beq.n	10001984 <irq_set_exclusive_handler+0xc>
1000198a:	f3bf 8f5f 	dmb	sy
1000198e:	4b0d      	ldr	r3, [pc, #52]	; (100019c4 <irq_set_exclusive_handler+0x4c>)
10001990:	3010      	adds	r0, #16
10001992:	689b      	ldr	r3, [r3, #8]
10001994:	0084      	lsls	r4, r0, #2
10001996:	591b      	ldr	r3, [r3, r4]
10001998:	4a0b      	ldr	r2, [pc, #44]	; (100019c8 <irq_set_exclusive_handler+0x50>)
1000199a:	4293      	cmp	r3, r2
1000199c:	d003      	beq.n	100019a6 <irq_set_exclusive_handler+0x2e>
1000199e:	429d      	cmp	r5, r3
100019a0:	d001      	beq.n	100019a6 <irq_set_exclusive_handler+0x2e>
100019a2:	f001 f9f7 	bl	10002d94 <hard_assertion_failure>
100019a6:	4b07      	ldr	r3, [pc, #28]	; (100019c4 <irq_set_exclusive_handler+0x4c>)
100019a8:	689b      	ldr	r3, [r3, #8]
100019aa:	511d      	str	r5, [r3, r4]
100019ac:	f3bf 8f5f 	dmb	sy
100019b0:	f3bf 8f5f 	dmb	sy
100019b4:	2200      	movs	r2, #0
100019b6:	4b02      	ldr	r3, [pc, #8]	; (100019c0 <irq_set_exclusive_handler+0x48>)
100019b8:	601a      	str	r2, [r3, #0]
100019ba:	f386 8810 	msr	PRIMASK, r6
100019be:	bd70      	pop	{r4, r5, r6, pc}
100019c0:	d0000124 	.word	0xd0000124
100019c4:	e000ed00 	.word	0xe000ed00
100019c8:	100001cd 	.word	0x100001cd

100019cc <irq_remove_handler>:
100019cc:	b5f0      	push	{r4, r5, r6, r7, lr}
100019ce:	46de      	mov	lr, fp
100019d0:	4657      	mov	r7, sl
100019d2:	464e      	mov	r6, r9
100019d4:	4645      	mov	r5, r8
100019d6:	b5e0      	push	{r5, r6, r7, lr}
100019d8:	000c      	movs	r4, r1
100019da:	b083      	sub	sp, #12
100019dc:	f3ef 8a10 	mrs	sl, PRIMASK
100019e0:	b672      	cpsid	i
100019e2:	4a60      	ldr	r2, [pc, #384]	; (10001b64 <irq_remove_handler+0x198>)
100019e4:	6813      	ldr	r3, [r2, #0]
100019e6:	2b00      	cmp	r3, #0
100019e8:	d0fc      	beq.n	100019e4 <irq_remove_handler+0x18>
100019ea:	f3bf 8f5f 	dmb	sy
100019ee:	2210      	movs	r2, #16
100019f0:	4691      	mov	r9, r2
100019f2:	4481      	add	r9, r0
100019f4:	464a      	mov	r2, r9
100019f6:	4b5c      	ldr	r3, [pc, #368]	; (10001b68 <irq_remove_handler+0x19c>)
100019f8:	0096      	lsls	r6, r2, #2
100019fa:	689b      	ldr	r3, [r3, #8]
100019fc:	599d      	ldr	r5, [r3, r6]
100019fe:	4b5b      	ldr	r3, [pc, #364]	; (10001b6c <irq_remove_handler+0x1a0>)
10001a00:	4698      	mov	r8, r3
10001a02:	429d      	cmp	r5, r3
10001a04:	d005      	beq.n	10001a12 <irq_remove_handler+0x46>
10001a06:	42a5      	cmp	r5, r4
10001a08:	d016      	beq.n	10001a38 <irq_remove_handler+0x6c>
10001a0a:	4f59      	ldr	r7, [pc, #356]	; (10001b70 <irq_remove_handler+0x1a4>)
10001a0c:	1beb      	subs	r3, r5, r7
10001a0e:	2b2f      	cmp	r3, #47	; 0x2f
10001a10:	d914      	bls.n	10001a3c <irq_remove_handler+0x70>
10001a12:	4b55      	ldr	r3, [pc, #340]	; (10001b68 <irq_remove_handler+0x19c>)
10001a14:	689b      	ldr	r3, [r3, #8]
10001a16:	519d      	str	r5, [r3, r6]
10001a18:	f3bf 8f5f 	dmb	sy
10001a1c:	f3bf 8f5f 	dmb	sy
10001a20:	2200      	movs	r2, #0
10001a22:	4b50      	ldr	r3, [pc, #320]	; (10001b64 <irq_remove_handler+0x198>)
10001a24:	601a      	str	r2, [r3, #0]
10001a26:	f38a 8810 	msr	PRIMASK, sl
10001a2a:	b003      	add	sp, #12
10001a2c:	bcf0      	pop	{r4, r5, r6, r7}
10001a2e:	46bb      	mov	fp, r7
10001a30:	46b2      	mov	sl, r6
10001a32:	46a9      	mov	r9, r5
10001a34:	46a0      	mov	r8, r4
10001a36:	bdf0      	pop	{r4, r5, r6, r7, pc}
10001a38:	001d      	movs	r5, r3
10001a3a:	e7ea      	b.n	10001a12 <irq_remove_handler+0x46>
10001a3c:	2301      	movs	r3, #1
10001a3e:	4083      	lsls	r3, r0
10001a40:	469b      	mov	fp, r3
10001a42:	465a      	mov	r2, fp
10001a44:	4b4b      	ldr	r3, [pc, #300]	; (10001b74 <irq_remove_handler+0x1a8>)
10001a46:	681b      	ldr	r3, [r3, #0]
10001a48:	401a      	ands	r2, r3
10001a4a:	9200      	str	r2, [sp, #0]
10001a4c:	465a      	mov	r2, fp
10001a4e:	4b4a      	ldr	r3, [pc, #296]	; (10001b78 <irq_remove_handler+0x1ac>)
10001a50:	601a      	str	r2, [r3, #0]
10001a52:	f3bf 8f5f 	dmb	sy
10001a56:	f7fe fc06 	bl	10000266 <__get_current_exception>
10001a5a:	1e03      	subs	r3, r0, #0
10001a5c:	9001      	str	r0, [sp, #4]
10001a5e:	d11d      	bne.n	10001a9c <irq_remove_handler+0xd0>
10001a60:	002a      	movs	r2, r5
10001a62:	3301      	adds	r3, #1
10001a64:	439a      	bics	r2, r3
10001a66:	6890      	ldr	r0, [r2, #8]
10001a68:	4284      	cmp	r4, r0
10001a6a:	d108      	bne.n	10001a7e <irq_remove_handler+0xb2>
10001a6c:	e071      	b.n	10001b52 <irq_remove_handler+0x186>
10001a6e:	004b      	lsls	r3, r1, #1
10001a70:	185b      	adds	r3, r3, r1
10001a72:	009b      	lsls	r3, r3, #2
10001a74:	18fb      	adds	r3, r7, r3
10001a76:	6898      	ldr	r0, [r3, #8]
10001a78:	42a0      	cmp	r0, r4
10001a7a:	d045      	beq.n	10001b08 <irq_remove_handler+0x13c>
10001a7c:	001a      	movs	r2, r3
10001a7e:	2106      	movs	r1, #6
10001a80:	5651      	ldrsb	r1, [r2, r1]
10001a82:	2900      	cmp	r1, #0
10001a84:	daf3      	bge.n	10001a6e <irq_remove_handler+0xa2>
10001a86:	4284      	cmp	r4, r0
10001a88:	d06a      	beq.n	10001b60 <irq_remove_handler+0x194>
10001a8a:	9b00      	ldr	r3, [sp, #0]
10001a8c:	2b00      	cmp	r3, #0
10001a8e:	d034      	beq.n	10001afa <irq_remove_handler+0x12e>
10001a90:	465a      	mov	r2, fp
10001a92:	4b3a      	ldr	r3, [pc, #232]	; (10001b7c <irq_remove_handler+0x1b0>)
10001a94:	601a      	str	r2, [r3, #0]
10001a96:	4b37      	ldr	r3, [pc, #220]	; (10001b74 <irq_remove_handler+0x1a8>)
10001a98:	601a      	str	r2, [r3, #0]
10001a9a:	e7ba      	b.n	10001a12 <irq_remove_handler+0x46>
10001a9c:	4581      	cmp	r9, r0
10001a9e:	d130      	bne.n	10001b02 <irq_remove_handler+0x136>
10001aa0:	002a      	movs	r2, r5
10001aa2:	2301      	movs	r3, #1
10001aa4:	439a      	bics	r2, r3
10001aa6:	6890      	ldr	r0, [r2, #8]
10001aa8:	4284      	cmp	r4, r0
10001aaa:	d1e8      	bne.n	10001a7e <irq_remove_handler+0xb2>
10001aac:	2106      	movs	r1, #6
10001aae:	5651      	ldrsb	r1, [r2, r1]
10001ab0:	0013      	movs	r3, r2
10001ab2:	2900      	cmp	r1, #0
10001ab4:	db40      	blt.n	10001b38 <irq_remove_handler+0x16c>
10001ab6:	004a      	lsls	r2, r1, #1
10001ab8:	1850      	adds	r0, r2, r1
10001aba:	0080      	lsls	r0, r0, #2
10001abc:	183c      	adds	r4, r7, r0
10001abe:	4680      	mov	r8, r0
10001ac0:	68a0      	ldr	r0, [r4, #8]
10001ac2:	6098      	str	r0, [r3, #8]
10001ac4:	79e0      	ldrb	r0, [r4, #7]
10001ac6:	71d8      	strb	r0, [r3, #7]
10001ac8:	2006      	movs	r0, #6
10001aca:	5620      	ldrsb	r0, [r4, r0]
10001acc:	7198      	strb	r0, [r3, #6]
10001ace:	2800      	cmp	r0, #0
10001ad0:	db2f      	blt.n	10001b32 <irq_remove_handler+0x166>
10001ad2:	88a4      	ldrh	r4, [r4, #4]
10001ad4:	1af8      	subs	r0, r7, r3
10001ad6:	0564      	lsls	r4, r4, #21
10001ad8:	1524      	asrs	r4, r4, #20
10001ada:	4444      	add	r4, r8
10001adc:	1900      	adds	r0, r0, r4
10001ade:	24e0      	movs	r4, #224	; 0xe0
10001ae0:	0500      	lsls	r0, r0, #20
10001ae2:	0d40      	lsrs	r0, r0, #21
10001ae4:	0224      	lsls	r4, r4, #8
10001ae6:	4320      	orrs	r0, r4
10001ae8:	8098      	strh	r0, [r3, #4]
10001aea:	1853      	adds	r3, r2, r1
10001aec:	4a24      	ldr	r2, [pc, #144]	; (10001b80 <irq_remove_handler+0x1b4>)
10001aee:	009b      	lsls	r3, r3, #2
10001af0:	7810      	ldrb	r0, [r2, #0]
10001af2:	18fb      	adds	r3, r7, r3
10001af4:	7198      	strb	r0, [r3, #6]
10001af6:	7011      	strb	r1, [r2, #0]
10001af8:	e7c7      	b.n	10001a8a <irq_remove_handler+0xbe>
10001afa:	465a      	mov	r2, fp
10001afc:	4b1e      	ldr	r3, [pc, #120]	; (10001b78 <irq_remove_handler+0x1ac>)
10001afe:	601a      	str	r2, [r3, #0]
10001b00:	e787      	b.n	10001a12 <irq_remove_handler+0x46>
10001b02:	f001 f947 	bl	10002d94 <hard_assertion_failure>
10001b06:	e7cb      	b.n	10001aa0 <irq_remove_handler+0xd4>
10001b08:	2106      	movs	r1, #6
10001b0a:	5659      	ldrsb	r1, [r3, r1]
10001b0c:	2900      	cmp	r1, #0
10001b0e:	dad2      	bge.n	10001ab6 <irq_remove_handler+0xea>
10001b10:	9901      	ldr	r1, [sp, #4]
10001b12:	2900      	cmp	r1, #0
10001b14:	d110      	bne.n	10001b38 <irq_remove_handler+0x16c>
10001b16:	31ff      	adds	r1, #255	; 0xff
10001b18:	7191      	strb	r1, [r2, #6]
10001b1a:	491a      	ldr	r1, [pc, #104]	; (10001b84 <irq_remove_handler+0x1b8>)
10001b1c:	8091      	strh	r1, [r2, #4]
10001b1e:	4918      	ldr	r1, [pc, #96]	; (10001b80 <irq_remove_handler+0x1b4>)
10001b20:	780a      	ldrb	r2, [r1, #0]
10001b22:	719a      	strb	r2, [r3, #6]
10001b24:	4a18      	ldr	r2, [pc, #96]	; (10001b88 <irq_remove_handler+0x1bc>)
10001b26:	1bdb      	subs	r3, r3, r7
10001b28:	415b      	adcs	r3, r3
10001b2a:	435a      	muls	r2, r3
10001b2c:	0d12      	lsrs	r2, r2, #20
10001b2e:	700a      	strb	r2, [r1, #0]
10001b30:	e7ab      	b.n	10001a8a <irq_remove_handler+0xbe>
10001b32:	20bd      	movs	r0, #189	; 0xbd
10001b34:	0200      	lsls	r0, r0, #8
10001b36:	e7d7      	b.n	10001ae8 <irq_remove_handler+0x11c>
10001b38:	4a14      	ldr	r2, [pc, #80]	; (10001b8c <irq_remove_handler+0x1c0>)
10001b3a:	4915      	ldr	r1, [pc, #84]	; (10001b90 <irq_remove_handler+0x1c4>)
10001b3c:	1ad2      	subs	r2, r2, r3
10001b3e:	3a08      	subs	r2, #8
10001b40:	0250      	lsls	r0, r2, #9
10001b42:	0d40      	lsrs	r0, r0, #21
10001b44:	4301      	orrs	r1, r0
10001b46:	8099      	strh	r1, [r3, #4]
10001b48:	4912      	ldr	r1, [pc, #72]	; (10001b94 <irq_remove_handler+0x1c8>)
10001b4a:	0852      	lsrs	r2, r2, #1
10001b4c:	430a      	orrs	r2, r1
10001b4e:	80da      	strh	r2, [r3, #6]
10001b50:	e79b      	b.n	10001a8a <irq_remove_handler+0xbe>
10001b52:	2106      	movs	r1, #6
10001b54:	5651      	ldrsb	r1, [r2, r1]
10001b56:	0013      	movs	r3, r2
10001b58:	2900      	cmp	r1, #0
10001b5a:	daac      	bge.n	10001ab6 <irq_remove_handler+0xea>
10001b5c:	4645      	mov	r5, r8
10001b5e:	e7de      	b.n	10001b1e <irq_remove_handler+0x152>
10001b60:	0013      	movs	r3, r2
10001b62:	e7d5      	b.n	10001b10 <irq_remove_handler+0x144>
10001b64:	d0000124 	.word	0xd0000124
10001b68:	e000ed00 	.word	0xe000ed00
10001b6c:	100001cd 	.word	0x100001cd
10001b70:	20000348 	.word	0x20000348
10001b74:	e000e100 	.word	0xe000e100
10001b78:	e000e180 	.word	0xe000e180
10001b7c:	e000e280 	.word	0xe000e280
10001b80:	2000192e 	.word	0x2000192e
10001b84:	ffffbd00 	.word	0xffffbd00
10001b88:	0000aaaa 	.word	0x0000aaaa
10001b8c:	20000382 	.word	0x20000382
10001b90:	fffff000 	.word	0xfffff000
10001b94:	fffff800 	.word	0xfffff800

10001b98 <irq_add_tail_to_free_list>:
10001b98:	b5f8      	push	{r3, r4, r5, r6, r7, lr}
10001b9a:	2501      	movs	r5, #1
10001b9c:	0004      	movs	r4, r0
10001b9e:	4305      	orrs	r5, r0
10001ba0:	f7fe fb61 	bl	10000266 <__get_current_exception>
10001ba4:	f3ef 8c10 	mrs	ip, PRIMASK
10001ba8:	b672      	cpsid	i
10001baa:	4a21      	ldr	r2, [pc, #132]	; (10001c30 <irq_add_tail_to_free_list+0x98>)
10001bac:	6813      	ldr	r3, [r2, #0]
10001bae:	2b00      	cmp	r3, #0
10001bb0:	d0fc      	beq.n	10001bac <irq_add_tail_to_free_list+0x14>
10001bb2:	f3bf 8f5f 	dmb	sy
10001bb6:	4e1f      	ldr	r6, [pc, #124]	; (10001c34 <irq_add_tail_to_free_list+0x9c>)
10001bb8:	0021      	movs	r1, r4
10001bba:	68b7      	ldr	r7, [r6, #8]
10001bbc:	4a1e      	ldr	r2, [pc, #120]	; (10001c38 <irq_add_tail_to_free_list+0xa0>)
10001bbe:	4b1f      	ldr	r3, [pc, #124]	; (10001c3c <irq_add_tail_to_free_list+0xa4>)
10001bc0:	1a89      	subs	r1, r1, r2
10001bc2:	4149      	adcs	r1, r1
10001bc4:	434b      	muls	r3, r1
10001bc6:	0d1b      	lsrs	r3, r3, #20
10001bc8:	b259      	sxtb	r1, r3
10001bca:	0083      	lsls	r3, r0, #2
10001bcc:	58f8      	ldr	r0, [r7, r3]
10001bce:	42a8      	cmp	r0, r5
10001bd0:	d01c      	beq.n	10001c0c <irq_add_tail_to_free_list+0x74>
10001bd2:	2306      	movs	r3, #6
10001bd4:	56d3      	ldrsb	r3, [r2, r3]
10001bd6:	428b      	cmp	r3, r1
10001bd8:	d01c      	beq.n	10001c14 <irq_add_tail_to_free_list+0x7c>
10001bda:	2312      	movs	r3, #18
10001bdc:	56d3      	ldrsb	r3, [r2, r3]
10001bde:	428b      	cmp	r3, r1
10001be0:	d022      	beq.n	10001c28 <irq_add_tail_to_free_list+0x90>
10001be2:	231e      	movs	r3, #30
10001be4:	56d3      	ldrsb	r3, [r2, r3]
10001be6:	428b      	cmp	r3, r1
10001be8:	d020      	beq.n	10001c2c <irq_add_tail_to_free_list+0x94>
10001bea:	232a      	movs	r3, #42	; 0x2a
10001bec:	56d3      	ldrsb	r3, [r2, r3]
10001bee:	2003      	movs	r0, #3
10001bf0:	428b      	cmp	r3, r1
10001bf2:	d010      	beq.n	10001c16 <irq_add_tail_to_free_list+0x7e>
10001bf4:	4b12      	ldr	r3, [pc, #72]	; (10001c40 <irq_add_tail_to_free_list+0xa8>)
10001bf6:	781a      	ldrb	r2, [r3, #0]
10001bf8:	7019      	strb	r1, [r3, #0]
10001bfa:	71a2      	strb	r2, [r4, #6]
10001bfc:	f3bf 8f5f 	dmb	sy
10001c00:	2200      	movs	r2, #0
10001c02:	4b0b      	ldr	r3, [pc, #44]	; (10001c30 <irq_add_tail_to_free_list+0x98>)
10001c04:	601a      	str	r2, [r3, #0]
10001c06:	f38c 8810 	msr	PRIMASK, ip
10001c0a:	bdf8      	pop	{r3, r4, r5, r6, r7, pc}
10001c0c:	68b2      	ldr	r2, [r6, #8]
10001c0e:	480d      	ldr	r0, [pc, #52]	; (10001c44 <irq_add_tail_to_free_list+0xac>)
10001c10:	50d0      	str	r0, [r2, r3]
10001c12:	e7ef      	b.n	10001bf4 <irq_add_tail_to_free_list+0x5c>
10001c14:	2000      	movs	r0, #0
10001c16:	0043      	lsls	r3, r0, #1
10001c18:	181b      	adds	r3, r3, r0
10001c1a:	009b      	lsls	r3, r3, #2
10001c1c:	18d2      	adds	r2, r2, r3
10001c1e:	23ff      	movs	r3, #255	; 0xff
10001c20:	7193      	strb	r3, [r2, #6]
10001c22:	4b09      	ldr	r3, [pc, #36]	; (10001c48 <irq_add_tail_to_free_list+0xb0>)
10001c24:	8093      	strh	r3, [r2, #4]
10001c26:	e7e5      	b.n	10001bf4 <irq_add_tail_to_free_list+0x5c>
10001c28:	2001      	movs	r0, #1
10001c2a:	e7f4      	b.n	10001c16 <irq_add_tail_to_free_list+0x7e>
10001c2c:	2002      	movs	r0, #2
10001c2e:	e7f2      	b.n	10001c16 <irq_add_tail_to_free_list+0x7e>
10001c30:	d0000124 	.word	0xd0000124
10001c34:	e000ed00 	.word	0xe000ed00
10001c38:	20000348 	.word	0x20000348
10001c3c:	0000aaaa 	.word	0x0000aaaa
10001c40:	2000192e 	.word	0x2000192e
10001c44:	100001cd 	.word	0x100001cd
10001c48:	ffffbd00 	.word	0xffffbd00

10001c4c <irq_init_priorities>:
10001c4c:	4b05      	ldr	r3, [pc, #20]	; (10001c64 <irq_init_priorities+0x18>)
10001c4e:	4a06      	ldr	r2, [pc, #24]	; (10001c68 <irq_init_priorities+0x1c>)
10001c50:	6013      	str	r3, [r2, #0]
10001c52:	4a06      	ldr	r2, [pc, #24]	; (10001c6c <irq_init_priorities+0x20>)
10001c54:	6013      	str	r3, [r2, #0]
10001c56:	6053      	str	r3, [r2, #4]
10001c58:	6093      	str	r3, [r2, #8]
10001c5a:	60d3      	str	r3, [r2, #12]
10001c5c:	6113      	str	r3, [r2, #16]
10001c5e:	6153      	str	r3, [r2, #20]
10001c60:	6193      	str	r3, [r2, #24]
10001c62:	4770      	bx	lr
10001c64:	80808080 	.word	0x80808080
10001c68:	e000e400 	.word	0xe000e400
10001c6c:	e000e404 	.word	0xe000e404

10001c70 <lock_init>:
10001c70:	4b02      	ldr	r3, [pc, #8]	; (10001c7c <lock_init+0xc>)
10001c72:	469c      	mov	ip, r3
10001c74:	4461      	add	r1, ip
10001c76:	0089      	lsls	r1, r1, #2
10001c78:	6001      	str	r1, [r0, #0]
10001c7a:	4770      	bx	lr
10001c7c:	34000040 	.word	0x34000040

10001c80 <timer_pool_entry_comparator>:
10001c80:	6883      	ldr	r3, [r0, #8]
10001c82:	480b      	ldr	r0, [pc, #44]	; (10001cb0 <timer_pool_entry_comparator+0x30>)
10001c84:	b510      	push	{r4, lr}
10001c86:	4684      	mov	ip, r0
10001c88:	4461      	add	r1, ip
10001c8a:	4462      	add	r2, ip
10001c8c:	0112      	lsls	r2, r2, #4
10001c8e:	0109      	lsls	r1, r1, #4
10001c90:	1859      	adds	r1, r3, r1
10001c92:	189b      	adds	r3, r3, r2
10001c94:	685c      	ldr	r4, [r3, #4]
10001c96:	684a      	ldr	r2, [r1, #4]
10001c98:	2001      	movs	r0, #1
10001c9a:	4294      	cmp	r4, r2
10001c9c:	d801      	bhi.n	10001ca2 <timer_pool_entry_comparator+0x22>
10001c9e:	d002      	beq.n	10001ca6 <timer_pool_entry_comparator+0x26>
10001ca0:	2000      	movs	r0, #0
10001ca2:	b2c0      	uxtb	r0, r0
10001ca4:	bd10      	pop	{r4, pc}
10001ca6:	681a      	ldr	r2, [r3, #0]
10001ca8:	680b      	ldr	r3, [r1, #0]
10001caa:	429a      	cmp	r2, r3
10001cac:	d8f9      	bhi.n	10001ca2 <timer_pool_entry_comparator+0x22>
10001cae:	e7f7      	b.n	10001ca0 <timer_pool_entry_comparator+0x20>
10001cb0:	0fffffff 	.word	0x0fffffff

10001cb4 <repeating_timer_callback>:
10001cb4:	b510      	push	{r4, lr}
10001cb6:	0008      	movs	r0, r1
10001cb8:	690b      	ldr	r3, [r1, #16]
10001cba:	000c      	movs	r4, r1
10001cbc:	4798      	blx	r3
10001cbe:	2800      	cmp	r0, #0
10001cc0:	d002      	beq.n	10001cc8 <repeating_timer_callback+0x14>
10001cc2:	6820      	ldr	r0, [r4, #0]
10001cc4:	6861      	ldr	r1, [r4, #4]
10001cc6:	bd10      	pop	{r4, pc}
10001cc8:	60e0      	str	r0, [r4, #12]
10001cca:	2100      	movs	r1, #0
10001ccc:	2000      	movs	r0, #0
10001cce:	e7fa      	b.n	10001cc6 <repeating_timer_callback+0x12>

10001cd0 <sleep_until_callback>:
10001cd0:	4b0a      	ldr	r3, [pc, #40]	; (10001cfc <sleep_until_callback+0x2c>)
10001cd2:	6819      	ldr	r1, [r3, #0]
10001cd4:	f3ef 8010 	mrs	r0, PRIMASK
10001cd8:	b672      	cpsid	i
10001cda:	680a      	ldr	r2, [r1, #0]
10001cdc:	2a00      	cmp	r2, #0
10001cde:	d0fc      	beq.n	10001cda <sleep_until_callback+0xa>
10001ce0:	f3bf 8f5f 	dmb	sy
10001ce4:	681b      	ldr	r3, [r3, #0]
10001ce6:	f3bf 8f5f 	dmb	sy
10001cea:	2200      	movs	r2, #0
10001cec:	601a      	str	r2, [r3, #0]
10001cee:	f380 8810 	msr	PRIMASK, r0
10001cf2:	bf40      	sev
10001cf4:	2000      	movs	r0, #0
10001cf6:	2100      	movs	r1, #0
10001cf8:	4770      	bx	lr
10001cfa:	46c0      	nop			; (mov r8, r8)
10001cfc:	20001908 	.word	0x20001908

10001d00 <add_alarm_under_lock.isra.0>:
10001d00:	b5f8      	push	{r3, r4, r5, r6, r7, lr}
10001d02:	4657      	mov	r7, sl
10001d04:	4645      	mov	r5, r8
10001d06:	464e      	mov	r6, r9
10001d08:	46de      	mov	lr, fp
10001d0a:	b5e0      	push	{r5, r6, r7, lr}
10001d0c:	4698      	mov	r8, r3
10001d0e:	ab0c      	add	r3, sp, #48	; 0x30
10001d10:	781c      	ldrb	r4, [r3, #0]
10001d12:	ab0d      	add	r3, sp, #52	; 0x34
10001d14:	781b      	ldrb	r3, [r3, #0]
10001d16:	0007      	movs	r7, r0
10001d18:	4691      	mov	r9, r2
10001d1a:	469a      	mov	sl, r3
10001d1c:	6805      	ldr	r5, [r0, #0]
10001d1e:	2c00      	cmp	r4, #0
10001d20:	d15e      	bne.n	10001de0 <add_alarm_under_lock.isra.0+0xe0>
10001d22:	7bac      	ldrb	r4, [r5, #14]
10001d24:	2c00      	cmp	r4, #0
10001d26:	d03b      	beq.n	10001da0 <add_alarm_under_lock.isra.0+0xa0>
10001d28:	0066      	lsls	r6, r4, #1
10001d2a:	6829      	ldr	r1, [r5, #0]
10001d2c:	1936      	adds	r6, r6, r4
10001d2e:	3e03      	subs	r6, #3
10001d30:	1989      	adds	r1, r1, r6
10001d32:	784b      	ldrb	r3, [r1, #1]
10001d34:	73ab      	strb	r3, [r5, #14]
10001d36:	2b00      	cmp	r3, #0
10001d38:	d100      	bne.n	10001d3c <add_alarm_under_lock.isra.0+0x3c>
10001d3a:	73eb      	strb	r3, [r5, #15]
10001d3c:	2300      	movs	r3, #0
10001d3e:	708b      	strb	r3, [r1, #2]
10001d40:	704b      	strb	r3, [r1, #1]
10001d42:	700b      	strb	r3, [r1, #0]
10001d44:	4b2d      	ldr	r3, [pc, #180]	; (10001dfc <add_alarm_under_lock.isra.0+0xfc>)
10001d46:	18e2      	adds	r2, r4, r3
10001d48:	68bb      	ldr	r3, [r7, #8]
10001d4a:	0112      	lsls	r2, r2, #4
10001d4c:	189b      	adds	r3, r3, r2
10001d4e:	464a      	mov	r2, r9
10001d50:	601a      	str	r2, [r3, #0]
10001d52:	4642      	mov	r2, r8
10001d54:	605a      	str	r2, [r3, #4]
10001d56:	9a0a      	ldr	r2, [sp, #40]	; 0x28
10001d58:	609a      	str	r2, [r3, #8]
10001d5a:	9a0b      	ldr	r2, [sp, #44]	; 0x2c
10001d5c:	60da      	str	r2, [r3, #12]
10001d5e:	2300      	movs	r3, #0
10001d60:	708b      	strb	r3, [r1, #2]
10001d62:	704b      	strb	r3, [r1, #1]
10001d64:	700b      	strb	r3, [r1, #0]
10001d66:	7b6b      	ldrb	r3, [r5, #13]
10001d68:	469b      	mov	fp, r3
10001d6a:	2b00      	cmp	r3, #0
10001d6c:	d02b      	beq.n	10001dc6 <add_alarm_under_lock.isra.0+0xc6>
10001d6e:	0022      	movs	r2, r4
10001d70:	4659      	mov	r1, fp
10001d72:	68a8      	ldr	r0, [r5, #8]
10001d74:	686b      	ldr	r3, [r5, #4]
10001d76:	4798      	blx	r3
10001d78:	682a      	ldr	r2, [r5, #0]
10001d7a:	2800      	cmp	r0, #0
10001d7c:	d016      	beq.n	10001dac <add_alarm_under_lock.isra.0+0xac>
10001d7e:	465b      	mov	r3, fp
10001d80:	4658      	mov	r0, fp
10001d82:	005b      	lsls	r3, r3, #1
10001d84:	445b      	add	r3, fp
10001d86:	1996      	adds	r6, r2, r6
10001d88:	3b03      	subs	r3, #3
10001d8a:	70b0      	strb	r0, [r6, #2]
10001d8c:	18d1      	adds	r1, r2, r3
10001d8e:	5cd3      	ldrb	r3, [r2, r3]
10001d90:	2b00      	cmp	r3, #0
10001d92:	d000      	beq.n	10001d96 <add_alarm_under_lock.isra.0+0x96>
10001d94:	7073      	strb	r3, [r6, #1]
10001d96:	465b      	mov	r3, fp
10001d98:	700c      	strb	r4, [r1, #0]
10001d9a:	736b      	strb	r3, [r5, #13]
10001d9c:	455c      	cmp	r4, fp
10001d9e:	d013      	beq.n	10001dc8 <add_alarm_under_lock.isra.0+0xc8>
10001da0:	bcf0      	pop	{r4, r5, r6, r7}
10001da2:	46bb      	mov	fp, r7
10001da4:	46b2      	mov	sl, r6
10001da6:	46a9      	mov	r9, r5
10001da8:	46a0      	mov	r8, r4
10001daa:	bdf8      	pop	{r3, r4, r5, r6, r7, pc}
10001dac:	465b      	mov	r3, fp
10001dae:	005b      	lsls	r3, r3, #1
10001db0:	445b      	add	r3, fp
10001db2:	3b03      	subs	r3, #3
10001db4:	18d3      	adds	r3, r2, r3
10001db6:	709c      	strb	r4, [r3, #2]
10001db8:	1991      	adds	r1, r2, r6
10001dba:	5d92      	ldrb	r2, [r2, r6]
10001dbc:	2a00      	cmp	r2, #0
10001dbe:	d000      	beq.n	10001dc2 <add_alarm_under_lock.isra.0+0xc2>
10001dc0:	705a      	strb	r2, [r3, #1]
10001dc2:	465b      	mov	r3, fp
10001dc4:	700b      	strb	r3, [r1, #0]
10001dc6:	736c      	strb	r4, [r5, #13]
10001dc8:	464a      	mov	r2, r9
10001dca:	4643      	mov	r3, r8
10001dcc:	7d38      	ldrb	r0, [r7, #20]
10001dce:	f000 fc31 	bl	10002634 <hardware_alarm_set_target>
10001dd2:	1e05      	subs	r5, r0, #0
10001dd4:	d10a      	bne.n	10001dec <add_alarm_under_lock.isra.0+0xec>
10001dd6:	9b0e      	ldr	r3, [sp, #56]	; 0x38
10001dd8:	2b00      	cmp	r3, #0
10001dda:	d0e1      	beq.n	10001da0 <add_alarm_under_lock.isra.0+0xa0>
10001ddc:	701d      	strb	r5, [r3, #0]
10001dde:	e7df      	b.n	10001da0 <add_alarm_under_lock.isra.0+0xa0>
10001de0:	0066      	lsls	r6, r4, #1
10001de2:	6829      	ldr	r1, [r5, #0]
10001de4:	1936      	adds	r6, r6, r4
10001de6:	3e03      	subs	r6, #3
10001de8:	1989      	adds	r1, r1, r6
10001dea:	e7ab      	b.n	10001d44 <add_alarm_under_lock.isra.0+0x44>
10001dec:	4653      	mov	r3, sl
10001dee:	2b00      	cmp	r3, #0
10001df0:	d1f1      	bne.n	10001dd6 <add_alarm_under_lock.isra.0+0xd6>
10001df2:	0021      	movs	r1, r4
10001df4:	6838      	ldr	r0, [r7, #0]
10001df6:	f000 fe73 	bl	10002ae0 <ph_remove_and_free_node>
10001dfa:	e7ec      	b.n	10001dd6 <add_alarm_under_lock.isra.0+0xd6>
10001dfc:	0fffffff 	.word	0x0fffffff

10001e00 <alarm_pool_alarm_callback>:
10001e00:	b5f0      	push	{r4, r5, r6, r7, lr}
10001e02:	46de      	mov	lr, fp
10001e04:	4657      	mov	r7, sl
10001e06:	464e      	mov	r6, r9
10001e08:	4645      	mov	r5, r8
10001e0a:	2300      	movs	r3, #0
10001e0c:	b5e0      	push	{r5, r6, r7, lr}
10001e0e:	b08d      	sub	sp, #52	; 0x34
10001e10:	930a      	str	r3, [sp, #40]	; 0x28
10001e12:	4b6a      	ldr	r3, [pc, #424]	; (10001fbc <alarm_pool_alarm_callback+0x1bc>)
10001e14:	0082      	lsls	r2, r0, #2
10001e16:	58d7      	ldr	r7, [r2, r3]
10001e18:	2300      	movs	r3, #0
10001e1a:	469b      	mov	fp, r3
10001e1c:	900b      	str	r0, [sp, #44]	; 0x2c
10001e1e:	f000 fba9 	bl	10002574 <time_us_64>
10001e22:	0002      	movs	r2, r0
10001e24:	000b      	movs	r3, r1
10001e26:	6878      	ldr	r0, [r7, #4]
10001e28:	f3ef 8910 	mrs	r9, PRIMASK
10001e2c:	b672      	cpsid	i
10001e2e:	464d      	mov	r5, r9
10001e30:	6801      	ldr	r1, [r0, #0]
10001e32:	2900      	cmp	r1, #0
10001e34:	d0fc      	beq.n	10001e30 <alarm_pool_alarm_callback+0x30>
10001e36:	46a9      	mov	r9, r5
10001e38:	f3bf 8f5f 	dmb	sy
10001e3c:	6839      	ldr	r1, [r7, #0]
10001e3e:	7b4e      	ldrb	r6, [r1, #13]
10001e40:	468c      	mov	ip, r1
10001e42:	2e00      	cmp	r6, #0
10001e44:	d02e      	beq.n	10001ea4 <alarm_pool_alarm_callback+0xa4>
10001e46:	68bc      	ldr	r4, [r7, #8]
10001e48:	495d      	ldr	r1, [pc, #372]	; (10001fc0 <alarm_pool_alarm_callback+0x1c0>)
10001e4a:	46a2      	mov	sl, r4
10001e4c:	1871      	adds	r1, r6, r1
10001e4e:	0109      	lsls	r1, r1, #4
10001e50:	448a      	add	sl, r1
10001e52:	4651      	mov	r1, sl
10001e54:	6808      	ldr	r0, [r1, #0]
10001e56:	6849      	ldr	r1, [r1, #4]
10001e58:	0004      	movs	r4, r0
10001e5a:	000d      	movs	r5, r1
10001e5c:	1aa4      	subs	r4, r4, r2
10001e5e:	419d      	sbcs	r5, r3
10001e60:	2d00      	cmp	r5, #0
10001e62:	dd5e      	ble.n	10001f22 <alarm_pool_alarm_callback+0x122>
10001e64:	0002      	movs	r2, r0
10001e66:	000b      	movs	r3, r1
10001e68:	980b      	ldr	r0, [sp, #44]	; 0x2c
10001e6a:	f000 fbe3 	bl	10002634 <hardware_alarm_set_target>
10001e6e:	2300      	movs	r3, #0
10001e70:	2200      	movs	r2, #0
10001e72:	469a      	mov	sl, r3
10001e74:	2300      	movs	r3, #0
10001e76:	9208      	str	r2, [sp, #32]
10001e78:	9309      	str	r3, [sp, #36]	; 0x24
10001e7a:	2300      	movs	r3, #0
10001e7c:	4698      	mov	r8, r3
10001e7e:	687b      	ldr	r3, [r7, #4]
10001e80:	f3bf 8f5f 	dmb	sy
10001e84:	465a      	mov	r2, fp
10001e86:	601a      	str	r2, [r3, #0]
10001e88:	f389 8810 	msr	PRIMASK, r9
10001e8c:	4643      	mov	r3, r8
10001e8e:	2b00      	cmp	r3, #0
10001e90:	d112      	bne.n	10001eb8 <alarm_pool_alarm_callback+0xb8>
10001e92:	2800      	cmp	r0, #0
10001e94:	d1c3      	bne.n	10001e1e <alarm_pool_alarm_callback+0x1e>
10001e96:	b00d      	add	sp, #52	; 0x34
10001e98:	bcf0      	pop	{r4, r5, r6, r7}
10001e9a:	46bb      	mov	fp, r7
10001e9c:	46b2      	mov	sl, r6
10001e9e:	46a9      	mov	r9, r5
10001ea0:	46a0      	mov	r8, r4
10001ea2:	bdf0      	pop	{r4, r5, r6, r7, pc}
10001ea4:	2300      	movs	r3, #0
10001ea6:	2200      	movs	r2, #0
10001ea8:	469a      	mov	sl, r3
10001eaa:	2300      	movs	r3, #0
10001eac:	9208      	str	r2, [sp, #32]
10001eae:	9309      	str	r3, [sp, #36]	; 0x24
10001eb0:	2300      	movs	r3, #0
10001eb2:	2000      	movs	r0, #0
10001eb4:	4698      	mov	r8, r3
10001eb6:	e7e2      	b.n	10001e7e <alarm_pool_alarm_callback+0x7e>
10001eb8:	9b0a      	ldr	r3, [sp, #40]	; 0x28
10001eba:	4651      	mov	r1, sl
10001ebc:	0218      	lsls	r0, r3, #8
10001ebe:	4330      	orrs	r0, r6
10001ec0:	47c0      	blx	r8
10001ec2:	9006      	str	r0, [sp, #24]
10001ec4:	9107      	str	r1, [sp, #28]
10001ec6:	687a      	ldr	r2, [r7, #4]
10001ec8:	f3ef 8510 	mrs	r5, PRIMASK
10001ecc:	b672      	cpsid	i
10001ece:	4654      	mov	r4, sl
10001ed0:	6813      	ldr	r3, [r2, #0]
10001ed2:	2b00      	cmp	r3, #0
10001ed4:	d0fc      	beq.n	10001ed0 <alarm_pool_alarm_callback+0xd0>
10001ed6:	46a2      	mov	sl, r4
10001ed8:	f3bf 8f5f 	dmb	sy
10001edc:	9906      	ldr	r1, [sp, #24]
10001ede:	9a07      	ldr	r2, [sp, #28]
10001ee0:	2a00      	cmp	r2, #0
10001ee2:	db3b      	blt.n	10001f5c <alarm_pool_alarm_callback+0x15c>
10001ee4:	4311      	orrs	r1, r2
10001ee6:	d002      	beq.n	10001eee <alarm_pool_alarm_callback+0xee>
10001ee8:	693b      	ldr	r3, [r7, #16]
10001eea:	2b00      	cmp	r3, #0
10001eec:	d152      	bne.n	10001f94 <alarm_pool_alarm_callback+0x194>
10001eee:	683b      	ldr	r3, [r7, #0]
10001ef0:	7bd9      	ldrb	r1, [r3, #15]
10001ef2:	2900      	cmp	r1, #0
10001ef4:	d005      	beq.n	10001f02 <alarm_pool_alarm_callback+0x102>
10001ef6:	681a      	ldr	r2, [r3, #0]
10001ef8:	0048      	lsls	r0, r1, #1
10001efa:	1841      	adds	r1, r0, r1
10001efc:	1852      	adds	r2, r2, r1
10001efe:	3a03      	subs	r2, #3
10001f00:	7056      	strb	r6, [r2, #1]
10001f02:	73de      	strb	r6, [r3, #15]
10001f04:	68fa      	ldr	r2, [r7, #12]
10001f06:	3e01      	subs	r6, #1
10001f08:	5d93      	ldrb	r3, [r2, r6]
10001f0a:	3301      	adds	r3, #1
10001f0c:	5593      	strb	r3, [r2, r6]
10001f0e:	465b      	mov	r3, fp
10001f10:	613b      	str	r3, [r7, #16]
10001f12:	687b      	ldr	r3, [r7, #4]
10001f14:	f3bf 8f5f 	dmb	sy
10001f18:	465a      	mov	r2, fp
10001f1a:	601a      	str	r2, [r3, #0]
10001f1c:	f385 8810 	msr	PRIMASK, r5
10001f20:	e77d      	b.n	10001e1e <alarm_pool_alarm_callback+0x1e>
10001f22:	2d00      	cmp	r5, #0
10001f24:	d101      	bne.n	10001f2a <alarm_pool_alarm_callback+0x12a>
10001f26:	2c00      	cmp	r4, #0
10001f28:	d19c      	bne.n	10001e64 <alarm_pool_alarm_callback+0x64>
10001f2a:	2100      	movs	r1, #0
10001f2c:	4660      	mov	r0, ip
10001f2e:	f000 fd3f 	bl	100029b0 <ph_remove_head>
10001f32:	4653      	mov	r3, sl
10001f34:	685c      	ldr	r4, [r3, #4]
10001f36:	681b      	ldr	r3, [r3, #0]
10001f38:	9308      	str	r3, [sp, #32]
10001f3a:	9409      	str	r4, [sp, #36]	; 0x24
10001f3c:	4653      	mov	r3, sl
10001f3e:	689b      	ldr	r3, [r3, #8]
10001f40:	4698      	mov	r8, r3
10001f42:	4653      	mov	r3, sl
10001f44:	68db      	ldr	r3, [r3, #12]
10001f46:	469a      	mov	sl, r3
10001f48:	68fb      	ldr	r3, [r7, #12]
10001f4a:	199b      	adds	r3, r3, r6
10001f4c:	3b01      	subs	r3, #1
10001f4e:	781b      	ldrb	r3, [r3, #0]
10001f50:	930a      	str	r3, [sp, #40]	; 0x28
10001f52:	021b      	lsls	r3, r3, #8
10001f54:	4303      	orrs	r3, r0
10001f56:	613b      	str	r3, [r7, #16]
10001f58:	2000      	movs	r0, #0
10001f5a:	e790      	b.n	10001e7e <alarm_pool_alarm_callback+0x7e>
10001f5c:	693b      	ldr	r3, [r7, #16]
10001f5e:	2b00      	cmp	r3, #0
10001f60:	d0c5      	beq.n	10001eee <alarm_pool_alarm_callback+0xee>
10001f62:	9b08      	ldr	r3, [sp, #32]
10001f64:	9c09      	ldr	r4, [sp, #36]	; 0x24
10001f66:	1a5b      	subs	r3, r3, r1
10001f68:	4194      	sbcs	r4, r2
10001f6a:	9808      	ldr	r0, [sp, #32]
10001f6c:	9909      	ldr	r1, [sp, #36]	; 0x24
10001f6e:	001a      	movs	r2, r3
10001f70:	0023      	movs	r3, r4
10001f72:	42a1      	cmp	r1, r4
10001f74:	d819      	bhi.n	10001faa <alarm_pool_alarm_callback+0x1aa>
10001f76:	4299      	cmp	r1, r3
10001f78:	d01b      	beq.n	10001fb2 <alarm_pool_alarm_callback+0x1b2>
10001f7a:	2100      	movs	r1, #0
10001f7c:	9104      	str	r1, [sp, #16]
10001f7e:	3101      	adds	r1, #1
10001f80:	9103      	str	r1, [sp, #12]
10001f82:	4651      	mov	r1, sl
10001f84:	9101      	str	r1, [sp, #4]
10001f86:	4641      	mov	r1, r8
10001f88:	0038      	movs	r0, r7
10001f8a:	9602      	str	r6, [sp, #8]
10001f8c:	9100      	str	r1, [sp, #0]
10001f8e:	f7ff feb7 	bl	10001d00 <add_alarm_under_lock.isra.0>
10001f92:	e7bc      	b.n	10001f0e <alarm_pool_alarm_callback+0x10e>
10001f94:	f000 faee 	bl	10002574 <time_us_64>
10001f98:	9a06      	ldr	r2, [sp, #24]
10001f9a:	9b07      	ldr	r3, [sp, #28]
10001f9c:	1812      	adds	r2, r2, r0
10001f9e:	414b      	adcs	r3, r1
10001fa0:	4299      	cmp	r1, r3
10001fa2:	d802      	bhi.n	10001faa <alarm_pool_alarm_callback+0x1aa>
10001fa4:	d1e9      	bne.n	10001f7a <alarm_pool_alarm_callback+0x17a>
10001fa6:	4290      	cmp	r0, r2
10001fa8:	d9e7      	bls.n	10001f7a <alarm_pool_alarm_callback+0x17a>
10001faa:	2201      	movs	r2, #1
10001fac:	4252      	negs	r2, r2
10001fae:	17d3      	asrs	r3, r2, #31
10001fb0:	e7e3      	b.n	10001f7a <alarm_pool_alarm_callback+0x17a>
10001fb2:	9908      	ldr	r1, [sp, #32]
10001fb4:	4291      	cmp	r1, r2
10001fb6:	d9e0      	bls.n	10001f7a <alarm_pool_alarm_callback+0x17a>
10001fb8:	e7f7      	b.n	10001faa <alarm_pool_alarm_callback+0x1aa>
10001fba:	46c0      	nop			; (mov r8, r8)
10001fbc:	200018f0 	.word	0x200018f0
10001fc0:	0fffffff 	.word	0x0fffffff

10001fc4 <alarm_pool_add_alarm_at.constprop.0>:
10001fc4:	b5f8      	push	{r3, r4, r5, r6, r7, lr}
10001fc6:	4657      	mov	r7, sl
10001fc8:	464e      	mov	r6, r9
10001fca:	4645      	mov	r5, r8
10001fcc:	46de      	mov	lr, fp
10001fce:	b5e0      	push	{r5, r6, r7, lr}
10001fd0:	4d40      	ldr	r5, [pc, #256]	; (100020d4 <alarm_pool_add_alarm_at.constprop.0+0x110>)
10001fd2:	4682      	mov	sl, r0
10001fd4:	4689      	mov	r9, r1
10001fd6:	686a      	ldr	r2, [r5, #4]
10001fd8:	f3ef 8810 	mrs	r8, PRIMASK
10001fdc:	b672      	cpsid	i
10001fde:	6813      	ldr	r3, [r2, #0]
10001fe0:	2b00      	cmp	r3, #0
10001fe2:	d0fc      	beq.n	10001fde <alarm_pool_add_alarm_at.constprop.0+0x1a>
10001fe4:	f3bf 8f5f 	dmb	sy
10001fe8:	682e      	ldr	r6, [r5, #0]
10001fea:	7bb4      	ldrb	r4, [r6, #14]
10001fec:	2c00      	cmp	r4, #0
10001fee:	d048      	beq.n	10002082 <alarm_pool_add_alarm_at.constprop.0+0xbe>
10001ff0:	0067      	lsls	r7, r4, #1
10001ff2:	6833      	ldr	r3, [r6, #0]
10001ff4:	193f      	adds	r7, r7, r4
10001ff6:	3f03      	subs	r7, #3
10001ff8:	19db      	adds	r3, r3, r7
10001ffa:	785a      	ldrb	r2, [r3, #1]
10001ffc:	73b2      	strb	r2, [r6, #14]
10001ffe:	2a00      	cmp	r2, #0
10002000:	d100      	bne.n	10002004 <alarm_pool_add_alarm_at.constprop.0+0x40>
10002002:	73f2      	strb	r2, [r6, #15]
10002004:	4a34      	ldr	r2, [pc, #208]	; (100020d8 <alarm_pool_add_alarm_at.constprop.0+0x114>)
10002006:	18a1      	adds	r1, r4, r2
10002008:	68aa      	ldr	r2, [r5, #8]
1000200a:	0109      	lsls	r1, r1, #4
1000200c:	1852      	adds	r2, r2, r1
1000200e:	4651      	mov	r1, sl
10002010:	6011      	str	r1, [r2, #0]
10002012:	4649      	mov	r1, r9
10002014:	6051      	str	r1, [r2, #4]
10002016:	4931      	ldr	r1, [pc, #196]	; (100020dc <alarm_pool_add_alarm_at.constprop.0+0x118>)
10002018:	6091      	str	r1, [r2, #8]
1000201a:	2100      	movs	r1, #0
1000201c:	60d1      	str	r1, [r2, #12]
1000201e:	7099      	strb	r1, [r3, #2]
10002020:	7059      	strb	r1, [r3, #1]
10002022:	7019      	strb	r1, [r3, #0]
10002024:	7b73      	ldrb	r3, [r6, #13]
10002026:	469b      	mov	fp, r3
10002028:	2b00      	cmp	r3, #0
1000202a:	d045      	beq.n	100020b8 <alarm_pool_add_alarm_at.constprop.0+0xf4>
1000202c:	0022      	movs	r2, r4
1000202e:	4659      	mov	r1, fp
10002030:	68b0      	ldr	r0, [r6, #8]
10002032:	6873      	ldr	r3, [r6, #4]
10002034:	4798      	blx	r3
10002036:	6832      	ldr	r2, [r6, #0]
10002038:	2800      	cmp	r0, #0
1000203a:	d030      	beq.n	1000209e <alarm_pool_add_alarm_at.constprop.0+0xda>
1000203c:	465b      	mov	r3, fp
1000203e:	4658      	mov	r0, fp
10002040:	005b      	lsls	r3, r3, #1
10002042:	445b      	add	r3, fp
10002044:	19d7      	adds	r7, r2, r7
10002046:	3b03      	subs	r3, #3
10002048:	70b8      	strb	r0, [r7, #2]
1000204a:	18d1      	adds	r1, r2, r3
1000204c:	5cd3      	ldrb	r3, [r2, r3]
1000204e:	2b00      	cmp	r3, #0
10002050:	d000      	beq.n	10002054 <alarm_pool_add_alarm_at.constprop.0+0x90>
10002052:	707b      	strb	r3, [r7, #1]
10002054:	465b      	mov	r3, fp
10002056:	700c      	strb	r4, [r1, #0]
10002058:	7373      	strb	r3, [r6, #13]
1000205a:	455c      	cmp	r4, fp
1000205c:	d02d      	beq.n	100020ba <alarm_pool_add_alarm_at.constprop.0+0xf6>
1000205e:	2600      	movs	r6, #0
10002060:	68eb      	ldr	r3, [r5, #12]
10002062:	191b      	adds	r3, r3, r4
10002064:	3b01      	subs	r3, #1
10002066:	7819      	ldrb	r1, [r3, #0]
10002068:	686b      	ldr	r3, [r5, #4]
1000206a:	f3bf 8f5f 	dmb	sy
1000206e:	2200      	movs	r2, #0
10002070:	601a      	str	r2, [r3, #0]
10002072:	f388 8810 	msr	PRIMASK, r8
10002076:	2000      	movs	r0, #0
10002078:	2e00      	cmp	r6, #0
1000207a:	d10a      	bne.n	10002092 <alarm_pool_add_alarm_at.constprop.0+0xce>
1000207c:	0208      	lsls	r0, r1, #8
1000207e:	4320      	orrs	r0, r4
10002080:	e007      	b.n	10002092 <alarm_pool_add_alarm_at.constprop.0+0xce>
10002082:	686b      	ldr	r3, [r5, #4]
10002084:	f3bf 8f5f 	dmb	sy
10002088:	601c      	str	r4, [r3, #0]
1000208a:	f388 8810 	msr	PRIMASK, r8
1000208e:	2001      	movs	r0, #1
10002090:	4240      	negs	r0, r0
10002092:	bcf0      	pop	{r4, r5, r6, r7}
10002094:	46bb      	mov	fp, r7
10002096:	46b2      	mov	sl, r6
10002098:	46a9      	mov	r9, r5
1000209a:	46a0      	mov	r8, r4
1000209c:	bdf8      	pop	{r3, r4, r5, r6, r7, pc}
1000209e:	465b      	mov	r3, fp
100020a0:	005b      	lsls	r3, r3, #1
100020a2:	445b      	add	r3, fp
100020a4:	3b03      	subs	r3, #3
100020a6:	18d3      	adds	r3, r2, r3
100020a8:	709c      	strb	r4, [r3, #2]
100020aa:	19d1      	adds	r1, r2, r7
100020ac:	5dd2      	ldrb	r2, [r2, r7]
100020ae:	2a00      	cmp	r2, #0
100020b0:	d000      	beq.n	100020b4 <alarm_pool_add_alarm_at.constprop.0+0xf0>
100020b2:	705a      	strb	r2, [r3, #1]
100020b4:	465b      	mov	r3, fp
100020b6:	700b      	strb	r3, [r1, #0]
100020b8:	7374      	strb	r4, [r6, #13]
100020ba:	4652      	mov	r2, sl
100020bc:	464b      	mov	r3, r9
100020be:	7d28      	ldrb	r0, [r5, #20]
100020c0:	f000 fab8 	bl	10002634 <hardware_alarm_set_target>
100020c4:	1e06      	subs	r6, r0, #0
100020c6:	d0ca      	beq.n	1000205e <alarm_pool_add_alarm_at.constprop.0+0x9a>
100020c8:	0021      	movs	r1, r4
100020ca:	6828      	ldr	r0, [r5, #0]
100020cc:	f000 fd08 	bl	10002ae0 <ph_remove_and_free_node>
100020d0:	e7c6      	b.n	10002060 <alarm_pool_add_alarm_at.constprop.0+0x9c>
100020d2:	46c0      	nop			; (mov r8, r8)
100020d4:	20000390 	.word	0x20000390
100020d8:	0fffffff 	.word	0x0fffffff
100020dc:	10001cd1 	.word	0x10001cd1

100020e0 <alarm_pool_init_default>:
100020e0:	b510      	push	{r4, lr}
100020e2:	4c12      	ldr	r4, [pc, #72]	; (1000212c <alarm_pool_init_default+0x4c>)
100020e4:	6863      	ldr	r3, [r4, #4]
100020e6:	2b00      	cmp	r3, #0
100020e8:	d004      	beq.n	100020f4 <alarm_pool_init_default+0x14>
100020ea:	210a      	movs	r1, #10
100020ec:	4810      	ldr	r0, [pc, #64]	; (10002130 <alarm_pool_init_default+0x50>)
100020ee:	f7ff fdbf 	bl	10001c70 <lock_init>
100020f2:	bd10      	pop	{r4, pc}
100020f4:	0023      	movs	r3, r4
100020f6:	4a0f      	ldr	r2, [pc, #60]	; (10002134 <alarm_pool_init_default+0x54>)
100020f8:	2110      	movs	r1, #16
100020fa:	6820      	ldr	r0, [r4, #0]
100020fc:	f000 fb58 	bl	100027b0 <ph_post_alloc_init>
10002100:	2003      	movs	r0, #3
10002102:	f000 fa2b 	bl	1000255c <hardware_alarm_claim>
10002106:	2003      	movs	r0, #3
10002108:	f000 fb02 	bl	10002710 <hardware_alarm_cancel>
1000210c:	2003      	movs	r0, #3
1000210e:	490a      	ldr	r1, [pc, #40]	; (10002138 <alarm_pool_init_default+0x58>)
10002110:	f000 fa4a 	bl	100025a8 <hardware_alarm_set_callback>
10002114:	f7ff fc0a 	bl	1000192c <next_striped_spin_lock_num>
10002118:	4b08      	ldr	r3, [pc, #32]	; (1000213c <alarm_pool_init_default+0x5c>)
1000211a:	469c      	mov	ip, r3
1000211c:	2303      	movs	r3, #3
1000211e:	4460      	add	r0, ip
10002120:	7523      	strb	r3, [r4, #20]
10002122:	4b07      	ldr	r3, [pc, #28]	; (10002140 <alarm_pool_init_default+0x60>)
10002124:	0080      	lsls	r0, r0, #2
10002126:	6060      	str	r0, [r4, #4]
10002128:	60dc      	str	r4, [r3, #12]
1000212a:	e7de      	b.n	100020ea <alarm_pool_init_default+0xa>
1000212c:	20000390 	.word	0x20000390
10002130:	20001908 	.word	0x20001908
10002134:	10001c81 	.word	0x10001c81
10002138:	10001e01 	.word	0x10001e01
1000213c:	34000040 	.word	0x34000040
10002140:	200018f0 	.word	0x200018f0

10002144 <alarm_pool_get_default>:
10002144:	4800      	ldr	r0, [pc, #0]	; (10002148 <alarm_pool_get_default+0x4>)
10002146:	4770      	bx	lr
10002148:	20000390 	.word	0x20000390

1000214c <alarm_pool_add_repeating_timer_us>:
1000214c:	b5f0      	push	{r4, r5, r6, r7, lr}
1000214e:	4657      	mov	r7, sl
10002150:	464e      	mov	r6, r9
10002152:	46de      	mov	lr, fp
10002154:	4645      	mov	r5, r8
10002156:	0011      	movs	r1, r2
10002158:	b5e0      	push	{r5, r6, r7, lr}
1000215a:	b085      	sub	sp, #20
1000215c:	0006      	movs	r6, r0
1000215e:	469c      	mov	ip, r3
10002160:	9f10      	ldr	r7, [sp, #64]	; 0x40
10002162:	4319      	orrs	r1, r3
10002164:	d100      	bne.n	10002168 <alarm_pool_add_repeating_timer_us+0x1c>
10002166:	e0f9      	b.n	1000235c <alarm_pool_add_repeating_timer_us+0x210>
10002168:	4661      	mov	r1, ip
1000216a:	17db      	asrs	r3, r3, #31
1000216c:	9301      	str	r3, [sp, #4]
1000216e:	9300      	str	r3, [sp, #0]
10002170:	4053      	eors	r3, r2
10002172:	001c      	movs	r4, r3
10002174:	9b01      	ldr	r3, [sp, #4]
10002176:	404b      	eors	r3, r1
10002178:	001d      	movs	r5, r3
1000217a:	9800      	ldr	r0, [sp, #0]
1000217c:	9901      	ldr	r1, [sp, #4]
1000217e:	1a24      	subs	r4, r4, r0
10002180:	418d      	sbcs	r5, r1
10002182:	4663      	mov	r3, ip
10002184:	990e      	ldr	r1, [sp, #56]	; 0x38
10002186:	607b      	str	r3, [r7, #4]
10002188:	9b0f      	ldr	r3, [sp, #60]	; 0x3c
1000218a:	603a      	str	r2, [r7, #0]
1000218c:	617b      	str	r3, [r7, #20]
1000218e:	60be      	str	r6, [r7, #8]
10002190:	6139      	str	r1, [r7, #16]
10002192:	f000 f9ef 	bl	10002574 <time_us_64>
10002196:	0002      	movs	r2, r0
10002198:	000b      	movs	r3, r1
1000219a:	18a4      	adds	r4, r4, r2
1000219c:	415d      	adcs	r5, r3
1000219e:	9400      	str	r4, [sp, #0]
100021a0:	9501      	str	r5, [sp, #4]
100021a2:	42a9      	cmp	r1, r5
100021a4:	d900      	bls.n	100021a8 <alarm_pool_add_repeating_timer_us+0x5c>
100021a6:	e0e3      	b.n	10002370 <alarm_pool_add_repeating_timer_us+0x224>
100021a8:	d100      	bne.n	100021ac <alarm_pool_add_repeating_timer_us+0x60>
100021aa:	e0dd      	b.n	10002368 <alarm_pool_add_repeating_timer_us+0x21c>
100021ac:	2300      	movs	r3, #0
100021ae:	4698      	mov	r8, r3
100021b0:	4b74      	ldr	r3, [pc, #464]	; (10002384 <alarm_pool_add_repeating_timer_us+0x238>)
100021b2:	9710      	str	r7, [sp, #64]	; 0x40
100021b4:	9303      	str	r3, [sp, #12]
100021b6:	2300      	movs	r3, #0
100021b8:	4699      	mov	r9, r3
100021ba:	9b10      	ldr	r3, [sp, #64]	; 0x40
100021bc:	0037      	movs	r7, r6
100021be:	4646      	mov	r6, r8
100021c0:	4698      	mov	r8, r3
100021c2:	687a      	ldr	r2, [r7, #4]
100021c4:	f3ef 8b10 	mrs	fp, PRIMASK
100021c8:	b672      	cpsid	i
100021ca:	6813      	ldr	r3, [r2, #0]
100021cc:	2b00      	cmp	r3, #0
100021ce:	d0fc      	beq.n	100021ca <alarm_pool_add_repeating_timer_us+0x7e>
100021d0:	f3bf 8f5f 	dmb	sy
100021d4:	683d      	ldr	r5, [r7, #0]
100021d6:	7bac      	ldrb	r4, [r5, #14]
100021d8:	2c00      	cmp	r4, #0
100021da:	d100      	bne.n	100021de <alarm_pool_add_repeating_timer_us+0x92>
100021dc:	e074      	b.n	100022c8 <alarm_pool_add_repeating_timer_us+0x17c>
100021de:	0063      	lsls	r3, r4, #1
100021e0:	191b      	adds	r3, r3, r4
100021e2:	3b03      	subs	r3, #3
100021e4:	001a      	movs	r2, r3
100021e6:	4694      	mov	ip, r2
100021e8:	9302      	str	r3, [sp, #8]
100021ea:	682b      	ldr	r3, [r5, #0]
100021ec:	4463      	add	r3, ip
100021ee:	785a      	ldrb	r2, [r3, #1]
100021f0:	73aa      	strb	r2, [r5, #14]
100021f2:	2a00      	cmp	r2, #0
100021f4:	d100      	bne.n	100021f8 <alarm_pool_add_repeating_timer_us+0xac>
100021f6:	73ea      	strb	r2, [r5, #15]
100021f8:	4a63      	ldr	r2, [pc, #396]	; (10002388 <alarm_pool_add_repeating_timer_us+0x23c>)
100021fa:	18a1      	adds	r1, r4, r2
100021fc:	68ba      	ldr	r2, [r7, #8]
100021fe:	0109      	lsls	r1, r1, #4
10002200:	1852      	adds	r2, r2, r1
10002202:	9800      	ldr	r0, [sp, #0]
10002204:	9901      	ldr	r1, [sp, #4]
10002206:	6010      	str	r0, [r2, #0]
10002208:	6051      	str	r1, [r2, #4]
1000220a:	9903      	ldr	r1, [sp, #12]
1000220c:	6091      	str	r1, [r2, #8]
1000220e:	4641      	mov	r1, r8
10002210:	60d1      	str	r1, [r2, #12]
10002212:	464a      	mov	r2, r9
10002214:	709a      	strb	r2, [r3, #2]
10002216:	705a      	strb	r2, [r3, #1]
10002218:	701a      	strb	r2, [r3, #0]
1000221a:	7b6b      	ldrb	r3, [r5, #13]
1000221c:	469a      	mov	sl, r3
1000221e:	2b00      	cmp	r3, #0
10002220:	d100      	bne.n	10002224 <alarm_pool_add_repeating_timer_us+0xd8>
10002222:	e084      	b.n	1000232e <alarm_pool_add_repeating_timer_us+0x1e2>
10002224:	0022      	movs	r2, r4
10002226:	4651      	mov	r1, sl
10002228:	68a8      	ldr	r0, [r5, #8]
1000222a:	686b      	ldr	r3, [r5, #4]
1000222c:	4798      	blx	r3
1000222e:	682a      	ldr	r2, [r5, #0]
10002230:	2800      	cmp	r0, #0
10002232:	d100      	bne.n	10002236 <alarm_pool_add_repeating_timer_us+0xea>
10002234:	e06d      	b.n	10002312 <alarm_pool_add_repeating_timer_us+0x1c6>
10002236:	4653      	mov	r3, sl
10002238:	005b      	lsls	r3, r3, #1
1000223a:	4453      	add	r3, sl
1000223c:	3b03      	subs	r3, #3
1000223e:	469c      	mov	ip, r3
10002240:	18d1      	adds	r1, r2, r3
10002242:	4653      	mov	r3, sl
10002244:	9802      	ldr	r0, [sp, #8]
10002246:	1810      	adds	r0, r2, r0
10002248:	7083      	strb	r3, [r0, #2]
1000224a:	4663      	mov	r3, ip
1000224c:	5cd3      	ldrb	r3, [r2, r3]
1000224e:	2b00      	cmp	r3, #0
10002250:	d000      	beq.n	10002254 <alarm_pool_add_repeating_timer_us+0x108>
10002252:	7043      	strb	r3, [r0, #1]
10002254:	4653      	mov	r3, sl
10002256:	700c      	strb	r4, [r1, #0]
10002258:	736b      	strb	r3, [r5, #13]
1000225a:	0035      	movs	r5, r6
1000225c:	4554      	cmp	r4, sl
1000225e:	d067      	beq.n	10002330 <alarm_pool_add_repeating_timer_us+0x1e4>
10002260:	68fb      	ldr	r3, [r7, #12]
10002262:	687a      	ldr	r2, [r7, #4]
10002264:	191b      	adds	r3, r3, r4
10002266:	3b01      	subs	r3, #1
10002268:	781b      	ldrb	r3, [r3, #0]
1000226a:	f3bf 8f5f 	dmb	sy
1000226e:	4649      	mov	r1, r9
10002270:	6011      	str	r1, [r2, #0]
10002272:	f38b 8810 	msr	PRIMASK, fp
10002276:	2d00      	cmp	r5, #0
10002278:	d10c      	bne.n	10002294 <alarm_pool_add_repeating_timer_us+0x148>
1000227a:	4647      	mov	r7, r8
1000227c:	021b      	lsls	r3, r3, #8
1000227e:	4323      	orrs	r3, r4
10002280:	3501      	adds	r5, #1
10002282:	0028      	movs	r0, r5
10002284:	60fb      	str	r3, [r7, #12]
10002286:	b005      	add	sp, #20
10002288:	bcf0      	pop	{r4, r5, r6, r7}
1000228a:	46bb      	mov	fp, r7
1000228c:	46b2      	mov	sl, r6
1000228e:	46a9      	mov	r9, r5
10002290:	46a0      	mov	r8, r4
10002292:	bdf0      	pop	{r4, r5, r6, r7, pc}
10002294:	4643      	mov	r3, r8
10002296:	4640      	mov	r0, r8
10002298:	691b      	ldr	r3, [r3, #16]
1000229a:	4798      	blx	r3
1000229c:	1e06      	subs	r6, r0, #0
1000229e:	d01f      	beq.n	100022e0 <alarm_pool_add_repeating_timer_us+0x194>
100022a0:	4642      	mov	r2, r8
100022a2:	6814      	ldr	r4, [r2, #0]
100022a4:	6855      	ldr	r5, [r2, #4]
100022a6:	0022      	movs	r2, r4
100022a8:	432a      	orrs	r2, r5
100022aa:	d067      	beq.n	1000237c <alarm_pool_add_repeating_timer_us+0x230>
100022ac:	2d00      	cmp	r5, #0
100022ae:	da1a      	bge.n	100022e6 <alarm_pool_add_repeating_timer_us+0x19a>
100022b0:	9800      	ldr	r0, [sp, #0]
100022b2:	9901      	ldr	r1, [sp, #4]
100022b4:	0002      	movs	r2, r0
100022b6:	000b      	movs	r3, r1
100022b8:	1b12      	subs	r2, r2, r4
100022ba:	41ab      	sbcs	r3, r5
100022bc:	4299      	cmp	r1, r3
100022be:	d822      	bhi.n	10002306 <alarm_pool_add_repeating_timer_us+0x1ba>
100022c0:	d043      	beq.n	1000234a <alarm_pool_add_repeating_timer_us+0x1fe>
100022c2:	9200      	str	r2, [sp, #0]
100022c4:	9301      	str	r3, [sp, #4]
100022c6:	e77c      	b.n	100021c2 <alarm_pool_add_repeating_timer_us+0x76>
100022c8:	003e      	movs	r6, r7
100022ca:	4647      	mov	r7, r8
100022cc:	6873      	ldr	r3, [r6, #4]
100022ce:	f3bf 8f5f 	dmb	sy
100022d2:	601c      	str	r4, [r3, #0]
100022d4:	f38b 8810 	msr	PRIMASK, fp
100022d8:	2301      	movs	r3, #1
100022da:	2500      	movs	r5, #0
100022dc:	425b      	negs	r3, r3
100022de:	e7d0      	b.n	10002282 <alarm_pool_add_repeating_timer_us+0x136>
100022e0:	4647      	mov	r7, r8
100022e2:	2300      	movs	r3, #0
100022e4:	e7cd      	b.n	10002282 <alarm_pool_add_repeating_timer_us+0x136>
100022e6:	f000 f945 	bl	10002574 <time_us_64>
100022ea:	0002      	movs	r2, r0
100022ec:	000b      	movs	r3, r1
100022ee:	18a4      	adds	r4, r4, r2
100022f0:	415d      	adcs	r5, r3
100022f2:	9400      	str	r4, [sp, #0]
100022f4:	9501      	str	r5, [sp, #4]
100022f6:	42a9      	cmp	r1, r5
100022f8:	d805      	bhi.n	10002306 <alarm_pool_add_repeating_timer_us+0x1ba>
100022fa:	d000      	beq.n	100022fe <alarm_pool_add_repeating_timer_us+0x1b2>
100022fc:	e761      	b.n	100021c2 <alarm_pool_add_repeating_timer_us+0x76>
100022fe:	9900      	ldr	r1, [sp, #0]
10002300:	428a      	cmp	r2, r1
10002302:	d800      	bhi.n	10002306 <alarm_pool_add_repeating_timer_us+0x1ba>
10002304:	e75d      	b.n	100021c2 <alarm_pool_add_repeating_timer_us+0x76>
10002306:	2301      	movs	r3, #1
10002308:	425b      	negs	r3, r3
1000230a:	17dc      	asrs	r4, r3, #31
1000230c:	9300      	str	r3, [sp, #0]
1000230e:	9401      	str	r4, [sp, #4]
10002310:	e757      	b.n	100021c2 <alarm_pool_add_repeating_timer_us+0x76>
10002312:	4653      	mov	r3, sl
10002314:	005b      	lsls	r3, r3, #1
10002316:	4453      	add	r3, sl
10002318:	3b03      	subs	r3, #3
1000231a:	9802      	ldr	r0, [sp, #8]
1000231c:	18d3      	adds	r3, r2, r3
1000231e:	709c      	strb	r4, [r3, #2]
10002320:	1811      	adds	r1, r2, r0
10002322:	5c12      	ldrb	r2, [r2, r0]
10002324:	2a00      	cmp	r2, #0
10002326:	d000      	beq.n	1000232a <alarm_pool_add_repeating_timer_us+0x1de>
10002328:	705a      	strb	r2, [r3, #1]
1000232a:	4653      	mov	r3, sl
1000232c:	700b      	strb	r3, [r1, #0]
1000232e:	736c      	strb	r4, [r5, #13]
10002330:	7d38      	ldrb	r0, [r7, #20]
10002332:	9a00      	ldr	r2, [sp, #0]
10002334:	9b01      	ldr	r3, [sp, #4]
10002336:	f000 f97d 	bl	10002634 <hardware_alarm_set_target>
1000233a:	1e05      	subs	r5, r0, #0
1000233c:	d100      	bne.n	10002340 <alarm_pool_add_repeating_timer_us+0x1f4>
1000233e:	e78f      	b.n	10002260 <alarm_pool_add_repeating_timer_us+0x114>
10002340:	0021      	movs	r1, r4
10002342:	6838      	ldr	r0, [r7, #0]
10002344:	f000 fbcc 	bl	10002ae0 <ph_remove_and_free_node>
10002348:	e78a      	b.n	10002260 <alarm_pool_add_repeating_timer_us+0x114>
1000234a:	9900      	ldr	r1, [sp, #0]
1000234c:	4291      	cmp	r1, r2
1000234e:	d9b8      	bls.n	100022c2 <alarm_pool_add_repeating_timer_us+0x176>
10002350:	2301      	movs	r3, #1
10002352:	425b      	negs	r3, r3
10002354:	17dc      	asrs	r4, r3, #31
10002356:	9300      	str	r3, [sp, #0]
10002358:	9401      	str	r4, [sp, #4]
1000235a:	e732      	b.n	100021c2 <alarm_pool_add_repeating_timer_us+0x76>
1000235c:	2300      	movs	r3, #0
1000235e:	2401      	movs	r4, #1
10002360:	2500      	movs	r5, #0
10002362:	2201      	movs	r2, #1
10002364:	469c      	mov	ip, r3
10002366:	e70c      	b.n	10002182 <alarm_pool_add_repeating_timer_us+0x36>
10002368:	9900      	ldr	r1, [sp, #0]
1000236a:	428a      	cmp	r2, r1
1000236c:	d800      	bhi.n	10002370 <alarm_pool_add_repeating_timer_us+0x224>
1000236e:	e71d      	b.n	100021ac <alarm_pool_add_repeating_timer_us+0x60>
10002370:	2301      	movs	r3, #1
10002372:	425b      	negs	r3, r3
10002374:	17dc      	asrs	r4, r3, #31
10002376:	9300      	str	r3, [sp, #0]
10002378:	9401      	str	r4, [sp, #4]
1000237a:	e717      	b.n	100021ac <alarm_pool_add_repeating_timer_us+0x60>
1000237c:	4647      	mov	r7, r8
1000237e:	0005      	movs	r5, r0
10002380:	2300      	movs	r3, #0
10002382:	e77e      	b.n	10002282 <alarm_pool_add_repeating_timer_us+0x136>
10002384:	10001cb5 	.word	0x10001cb5
10002388:	0fffffff 	.word	0x0fffffff

1000238c <sleep_until>:
1000238c:	b5f0      	push	{r4, r5, r6, r7, lr}
1000238e:	0004      	movs	r4, r0
10002390:	000d      	movs	r5, r1
10002392:	2606      	movs	r6, #6
10002394:	4276      	negs	r6, r6
10002396:	17f7      	asrs	r7, r6, #31
10002398:	46c6      	mov	lr, r8
1000239a:	1936      	adds	r6, r6, r4
1000239c:	416f      	adcs	r7, r5
1000239e:	b500      	push	{lr}
100023a0:	428f      	cmp	r7, r1
100023a2:	d813      	bhi.n	100023cc <sleep_until+0x40>
100023a4:	d010      	beq.n	100023c8 <sleep_until+0x3c>
100023a6:	f000 f8e5 	bl	10002574 <time_us_64>
100023aa:	0032      	movs	r2, r6
100023ac:	003b      	movs	r3, r7
100023ae:	1a12      	subs	r2, r2, r0
100023b0:	418b      	sbcs	r3, r1
100023b2:	2b00      	cmp	r3, #0
100023b4:	dc14      	bgt.n	100023e0 <sleep_until+0x54>
100023b6:	2b00      	cmp	r3, #0
100023b8:	d037      	beq.n	1000242a <sleep_until+0x9e>
100023ba:	0029      	movs	r1, r5
100023bc:	0020      	movs	r0, r4
100023be:	f000 f8e3 	bl	10002588 <busy_wait_until>
100023c2:	bc80      	pop	{r7}
100023c4:	46b8      	mov	r8, r7
100023c6:	bdf0      	pop	{r4, r5, r6, r7, pc}
100023c8:	4286      	cmp	r6, r0
100023ca:	d9ec      	bls.n	100023a6 <sleep_until+0x1a>
100023cc:	2600      	movs	r6, #0
100023ce:	2700      	movs	r7, #0
100023d0:	f000 f8d0 	bl	10002574 <time_us_64>
100023d4:	0032      	movs	r2, r6
100023d6:	003b      	movs	r3, r7
100023d8:	1a12      	subs	r2, r2, r0
100023da:	418b      	sbcs	r3, r1
100023dc:	2b00      	cmp	r3, #0
100023de:	ddea      	ble.n	100023b6 <sleep_until+0x2a>
100023e0:	0030      	movs	r0, r6
100023e2:	0039      	movs	r1, r7
100023e4:	f7ff fdee 	bl	10001fc4 <alarm_pool_add_alarm_at.constprop.0>
100023e8:	2800      	cmp	r0, #0
100023ea:	dbe6      	blt.n	100023ba <sleep_until+0x2e>
100023ec:	2300      	movs	r3, #0
100023ee:	4698      	mov	r8, r3
100023f0:	46bc      	mov	ip, r7
100023f2:	4a0f      	ldr	r2, [pc, #60]	; (10002430 <sleep_until+0xa4>)
100023f4:	4f0f      	ldr	r7, [pc, #60]	; (10002434 <sleep_until+0xa8>)
100023f6:	6a7b      	ldr	r3, [r7, #36]	; 0x24
100023f8:	459c      	cmp	ip, r3
100023fa:	d804      	bhi.n	10002406 <sleep_until+0x7a>
100023fc:	6ab9      	ldr	r1, [r7, #40]	; 0x28
100023fe:	42b1      	cmp	r1, r6
10002400:	d2db      	bcs.n	100023ba <sleep_until+0x2e>
10002402:	459c      	cmp	ip, r3
10002404:	d1d9      	bne.n	100023ba <sleep_until+0x2e>
10002406:	6811      	ldr	r1, [r2, #0]
10002408:	f3ef 8010 	mrs	r0, PRIMASK
1000240c:	b672      	cpsid	i
1000240e:	680b      	ldr	r3, [r1, #0]
10002410:	2b00      	cmp	r3, #0
10002412:	d0fc      	beq.n	1000240e <sleep_until+0x82>
10002414:	f3bf 8f5f 	dmb	sy
10002418:	6813      	ldr	r3, [r2, #0]
1000241a:	f3bf 8f5f 	dmb	sy
1000241e:	4641      	mov	r1, r8
10002420:	6019      	str	r1, [r3, #0]
10002422:	f380 8810 	msr	PRIMASK, r0
10002426:	bf20      	wfe
10002428:	e7e5      	b.n	100023f6 <sleep_until+0x6a>
1000242a:	2a00      	cmp	r2, #0
1000242c:	d0c5      	beq.n	100023ba <sleep_until+0x2e>
1000242e:	e7d7      	b.n	100023e0 <sleep_until+0x54>
10002430:	20001908 	.word	0x20001908
10002434:	40054000 	.word	0x40054000

10002438 <sleep_ms>:
10002438:	b570      	push	{r4, r5, r6, lr}
1000243a:	0006      	movs	r6, r0
1000243c:	f000 f89a 	bl	10002574 <time_us_64>
10002440:	22fa      	movs	r2, #250	; 0xfa
10002442:	0004      	movs	r4, r0
10002444:	000d      	movs	r5, r1
10002446:	2300      	movs	r3, #0
10002448:	0030      	movs	r0, r6
1000244a:	2100      	movs	r1, #0
1000244c:	0092      	lsls	r2, r2, #2
1000244e:	f003 f82d 	bl	100054ac <__wrap___aeabi_lmul>
10002452:	1900      	adds	r0, r0, r4
10002454:	4169      	adcs	r1, r5
10002456:	428d      	cmp	r5, r1
10002458:	d805      	bhi.n	10002466 <sleep_ms+0x2e>
1000245a:	d002      	beq.n	10002462 <sleep_ms+0x2a>
1000245c:	f7ff ff96 	bl	1000238c <sleep_until>
10002460:	bd70      	pop	{r4, r5, r6, pc}
10002462:	4284      	cmp	r4, r0
10002464:	d9fa      	bls.n	1000245c <sleep_ms+0x24>
10002466:	2001      	movs	r0, #1
10002468:	4240      	negs	r0, r0
1000246a:	17c1      	asrs	r1, r0, #31
1000246c:	e7f6      	b.n	1000245c <sleep_ms+0x24>
1000246e:	46c0      	nop			; (mov r8, r8)

10002470 <check_single_timeout_us>:
10002470:	4a08      	ldr	r2, [pc, #32]	; (10002494 <check_single_timeout_us+0x24>)
10002472:	6843      	ldr	r3, [r0, #4]
10002474:	6a51      	ldr	r1, [r2, #36]	; 0x24
10002476:	b510      	push	{r4, lr}
10002478:	6804      	ldr	r4, [r0, #0]
1000247a:	2000      	movs	r0, #0
1000247c:	428b      	cmp	r3, r1
1000247e:	d803      	bhi.n	10002488 <check_single_timeout_us+0x18>
10002480:	6a92      	ldr	r2, [r2, #40]	; 0x28
10002482:	3001      	adds	r0, #1
10002484:	42a2      	cmp	r2, r4
10002486:	d300      	bcc.n	1000248a <check_single_timeout_us+0x1a>
10002488:	bd10      	pop	{r4, pc}
1000248a:	1a5b      	subs	r3, r3, r1
1000248c:	1e5a      	subs	r2, r3, #1
1000248e:	4193      	sbcs	r3, r2
10002490:	b2d8      	uxtb	r0, r3
10002492:	e7f9      	b.n	10002488 <check_single_timeout_us+0x18>
10002494:	40054000 	.word	0x40054000

10002498 <init_single_timeout_until>:
10002498:	6002      	str	r2, [r0, #0]
1000249a:	6043      	str	r3, [r0, #4]
1000249c:	4800      	ldr	r0, [pc, #0]	; (100024a0 <init_single_timeout_until+0x8>)
1000249e:	4770      	bx	lr
100024a0:	10002471 	.word	0x10002471

100024a4 <hardware_alarm_irq_handler>:
100024a4:	b5f0      	push	{r4, r5, r6, r7, lr}
100024a6:	46d6      	mov	lr, sl
100024a8:	464f      	mov	r7, r9
100024aa:	4646      	mov	r6, r8
100024ac:	b5c0      	push	{r6, r7, lr}
100024ae:	f3ef 8205 	mrs	r2, IPSR
100024b2:	233f      	movs	r3, #63	; 0x3f
100024b4:	4013      	ands	r3, r2
100024b6:	0018      	movs	r0, r3
100024b8:	3810      	subs	r0, #16
100024ba:	f3ef 8c10 	mrs	ip, PRIMASK
100024be:	b672      	cpsid	i
100024c0:	4920      	ldr	r1, [pc, #128]	; (10002544 <hardware_alarm_irq_handler+0xa0>)
100024c2:	680a      	ldr	r2, [r1, #0]
100024c4:	2a00      	cmp	r2, #0
100024c6:	d0fc      	beq.n	100024c2 <hardware_alarm_irq_handler+0x1e>
100024c8:	f3bf 8f5f 	dmb	sy
100024cc:	2201      	movs	r2, #1
100024ce:	0017      	movs	r7, r2
100024d0:	4087      	lsls	r7, r0
100024d2:	4c1d      	ldr	r4, [pc, #116]	; (10002548 <hardware_alarm_irq_handler+0xa4>)
100024d4:	0016      	movs	r6, r2
100024d6:	46a2      	mov	sl, r4
100024d8:	6367      	str	r7, [r4, #52]	; 0x34
100024da:	4c1c      	ldr	r4, [pc, #112]	; (1000254c <hardware_alarm_irq_handler+0xa8>)
100024dc:	7825      	ldrb	r5, [r4, #0]
100024de:	46a0      	mov	r8, r4
100024e0:	002c      	movs	r4, r5
100024e2:	40c4      	lsrs	r4, r0
100024e4:	4026      	ands	r6, r4
100024e6:	4222      	tst	r2, r4
100024e8:	d015      	beq.n	10002516 <hardware_alarm_irq_handler+0x72>
100024ea:	4652      	mov	r2, sl
100024ec:	6a56      	ldr	r6, [r2, #36]	; 0x24
100024ee:	4a18      	ldr	r2, [pc, #96]	; (10002550 <hardware_alarm_irq_handler+0xac>)
100024f0:	0084      	lsls	r4, r0, #2
100024f2:	58a2      	ldr	r2, [r4, r2]
100024f4:	4296      	cmp	r6, r2
100024f6:	d318      	bcc.n	1000252a <hardware_alarm_irq_handler+0x86>
100024f8:	4642      	mov	r2, r8
100024fa:	4b16      	ldr	r3, [pc, #88]	; (10002554 <hardware_alarm_irq_handler+0xb0>)
100024fc:	43bd      	bics	r5, r7
100024fe:	58e3      	ldr	r3, [r4, r3]
10002500:	7015      	strb	r5, [r2, #0]
10002502:	f3bf 8f5f 	dmb	sy
10002506:	2200      	movs	r2, #0
10002508:	600a      	str	r2, [r1, #0]
1000250a:	f38c 8810 	msr	PRIMASK, ip
1000250e:	2b00      	cmp	r3, #0
10002510:	d006      	beq.n	10002520 <hardware_alarm_irq_handler+0x7c>
10002512:	4798      	blx	r3
10002514:	e004      	b.n	10002520 <hardware_alarm_irq_handler+0x7c>
10002516:	f3bf 8f5f 	dmb	sy
1000251a:	600e      	str	r6, [r1, #0]
1000251c:	f38c 8810 	msr	PRIMASK, ip
10002520:	bce0      	pop	{r5, r6, r7}
10002522:	46ba      	mov	sl, r7
10002524:	46b1      	mov	r9, r6
10002526:	46a8      	mov	r8, r5
10002528:	bdf0      	pop	{r4, r5, r6, r7, pc}
1000252a:	4a0b      	ldr	r2, [pc, #44]	; (10002558 <hardware_alarm_irq_handler+0xb4>)
1000252c:	009b      	lsls	r3, r3, #2
1000252e:	4690      	mov	r8, r2
10002530:	4443      	add	r3, r8
10002532:	681a      	ldr	r2, [r3, #0]
10002534:	601a      	str	r2, [r3, #0]
10002536:	f3bf 8f5f 	dmb	sy
1000253a:	2300      	movs	r3, #0
1000253c:	600b      	str	r3, [r1, #0]
1000253e:	f38c 8810 	msr	PRIMASK, ip
10002542:	e7ed      	b.n	10002520 <hardware_alarm_irq_handler+0x7c>
10002544:	d0000128 	.word	0xd0000128
10002548:	40054000 	.word	0x40054000
1000254c:	20001935 	.word	0x20001935
10002550:	2000190c 	.word	0x2000190c
10002554:	20000758 	.word	0x20000758
10002558:	40053fd0 	.word	0x40053fd0

1000255c <hardware_alarm_claim>:
1000255c:	b510      	push	{r4, lr}
1000255e:	4b03      	ldr	r3, [pc, #12]	; (1000256c <hardware_alarm_claim+0x10>)
10002560:	0001      	movs	r1, r0
10002562:	0018      	movs	r0, r3
10002564:	4a02      	ldr	r2, [pc, #8]	; (10002570 <hardware_alarm_claim+0x14>)
10002566:	f7ff f9a9 	bl	100018bc <hw_claim_or_assert>
1000256a:	bd10      	pop	{r4, pc}
1000256c:	20001927 	.word	0x20001927
10002570:	10006304 	.word	0x10006304

10002574 <time_us_64>:
10002574:	4b03      	ldr	r3, [pc, #12]	; (10002584 <time_us_64+0x10>)
10002576:	6a59      	ldr	r1, [r3, #36]	; 0x24
10002578:	000a      	movs	r2, r1
1000257a:	6a98      	ldr	r0, [r3, #40]	; 0x28
1000257c:	6a59      	ldr	r1, [r3, #36]	; 0x24
1000257e:	428a      	cmp	r2, r1
10002580:	d1fa      	bne.n	10002578 <time_us_64+0x4>
10002582:	4770      	bx	lr
10002584:	40054000 	.word	0x40054000

10002588 <busy_wait_until>:
10002588:	4a06      	ldr	r2, [pc, #24]	; (100025a4 <busy_wait_until+0x1c>)
1000258a:	6a53      	ldr	r3, [r2, #36]	; 0x24
1000258c:	4299      	cmp	r1, r3
1000258e:	d8fc      	bhi.n	1000258a <busy_wait_until+0x2>
10002590:	d107      	bne.n	100025a2 <busy_wait_until+0x1a>
10002592:	4b04      	ldr	r3, [pc, #16]	; (100025a4 <busy_wait_until+0x1c>)
10002594:	e002      	b.n	1000259c <busy_wait_until+0x14>
10002596:	6a5a      	ldr	r2, [r3, #36]	; 0x24
10002598:	4291      	cmp	r1, r2
1000259a:	d102      	bne.n	100025a2 <busy_wait_until+0x1a>
1000259c:	6a9a      	ldr	r2, [r3, #40]	; 0x28
1000259e:	4282      	cmp	r2, r0
100025a0:	d3f9      	bcc.n	10002596 <busy_wait_until+0xe>
100025a2:	4770      	bx	lr
100025a4:	40054000 	.word	0x40054000

100025a8 <hardware_alarm_set_callback>:
100025a8:	b570      	push	{r4, r5, r6, lr}
100025aa:	0004      	movs	r4, r0
100025ac:	000d      	movs	r5, r1
100025ae:	f3ef 8610 	mrs	r6, PRIMASK
100025b2:	b672      	cpsid	i
100025b4:	4a1a      	ldr	r2, [pc, #104]	; (10002620 <hardware_alarm_set_callback+0x78>)
100025b6:	6813      	ldr	r3, [r2, #0]
100025b8:	2b00      	cmp	r3, #0
100025ba:	d0fc      	beq.n	100025b6 <hardware_alarm_set_callback+0xe>
100025bc:	f3bf 8f5f 	dmb	sy
100025c0:	2d00      	cmp	r5, #0
100025c2:	d01b      	beq.n	100025fc <hardware_alarm_set_callback+0x54>
100025c4:	0020      	movs	r0, r4
100025c6:	f7ff f9cf 	bl	10001968 <irq_get_vtable_handler>
100025ca:	4916      	ldr	r1, [pc, #88]	; (10002624 <hardware_alarm_set_callback+0x7c>)
100025cc:	4281      	cmp	r1, r0
100025ce:	d00a      	beq.n	100025e6 <hardware_alarm_set_callback+0x3e>
100025d0:	0020      	movs	r0, r4
100025d2:	f7ff f9d1 	bl	10001978 <irq_set_exclusive_handler>
100025d6:	2101      	movs	r1, #1
100025d8:	0020      	movs	r0, r4
100025da:	f7ff f9b3 	bl	10001944 <irq_set_enabled>
100025de:	2301      	movs	r3, #1
100025e0:	40a3      	lsls	r3, r4
100025e2:	4a11      	ldr	r2, [pc, #68]	; (10002628 <hardware_alarm_set_callback+0x80>)
100025e4:	6013      	str	r3, [r2, #0]
100025e6:	4b11      	ldr	r3, [pc, #68]	; (1000262c <hardware_alarm_set_callback+0x84>)
100025e8:	00a4      	lsls	r4, r4, #2
100025ea:	50e5      	str	r5, [r4, r3]
100025ec:	f3bf 8f5f 	dmb	sy
100025f0:	2200      	movs	r2, #0
100025f2:	4b0b      	ldr	r3, [pc, #44]	; (10002620 <hardware_alarm_set_callback+0x78>)
100025f4:	601a      	str	r2, [r3, #0]
100025f6:	f386 8810 	msr	PRIMASK, r6
100025fa:	bd70      	pop	{r4, r5, r6, pc}
100025fc:	2101      	movs	r1, #1
100025fe:	40a1      	lsls	r1, r4
10002600:	4b0a      	ldr	r3, [pc, #40]	; (1000262c <hardware_alarm_set_callback+0x84>)
10002602:	00a2      	lsls	r2, r4, #2
10002604:	50d5      	str	r5, [r2, r3]
10002606:	4b0a      	ldr	r3, [pc, #40]	; (10002630 <hardware_alarm_set_callback+0x88>)
10002608:	0020      	movs	r0, r4
1000260a:	781a      	ldrb	r2, [r3, #0]
1000260c:	438a      	bics	r2, r1
1000260e:	4905      	ldr	r1, [pc, #20]	; (10002624 <hardware_alarm_set_callback+0x7c>)
10002610:	701a      	strb	r2, [r3, #0]
10002612:	f7ff f9db 	bl	100019cc <irq_remove_handler>
10002616:	2100      	movs	r1, #0
10002618:	0020      	movs	r0, r4
1000261a:	f7ff f993 	bl	10001944 <irq_set_enabled>
1000261e:	e7e5      	b.n	100025ec <hardware_alarm_set_callback+0x44>
10002620:	d0000128 	.word	0xd0000128
10002624:	100024a5 	.word	0x100024a5
10002628:	40056038 	.word	0x40056038
1000262c:	20000758 	.word	0x20000758
10002630:	20001935 	.word	0x20001935

10002634 <hardware_alarm_set_target>:
10002634:	b5f0      	push	{r4, r5, r6, r7, lr}
10002636:	464f      	mov	r7, r9
10002638:	46d6      	mov	lr, sl
1000263a:	4646      	mov	r6, r8
1000263c:	b5c0      	push	{r6, r7, lr}
1000263e:	0007      	movs	r7, r0
10002640:	4c2e      	ldr	r4, [pc, #184]	; (100026fc <hardware_alarm_set_target+0xc8>)
10002642:	6a61      	ldr	r1, [r4, #36]	; 0x24
10002644:	000d      	movs	r5, r1
10002646:	6aa6      	ldr	r6, [r4, #40]	; 0x28
10002648:	6a61      	ldr	r1, [r4, #36]	; 0x24
1000264a:	42a9      	cmp	r1, r5
1000264c:	d1fa      	bne.n	10002644 <hardware_alarm_set_target+0x10>
1000264e:	428b      	cmp	r3, r1
10002650:	d808      	bhi.n	10002664 <hardware_alarm_set_target+0x30>
10002652:	d005      	beq.n	10002660 <hardware_alarm_set_target+0x2c>
10002654:	2001      	movs	r0, #1
10002656:	bce0      	pop	{r5, r6, r7}
10002658:	46ba      	mov	sl, r7
1000265a:	46b1      	mov	r9, r6
1000265c:	46a8      	mov	r8, r5
1000265e:	bdf0      	pop	{r4, r5, r6, r7, pc}
10002660:	42b2      	cmp	r2, r6
10002662:	d9f7      	bls.n	10002654 <hardware_alarm_set_target+0x20>
10002664:	f3ef 8a10 	mrs	sl, PRIMASK
10002668:	b672      	cpsid	i
1000266a:	4825      	ldr	r0, [pc, #148]	; (10002700 <hardware_alarm_set_target+0xcc>)
1000266c:	6801      	ldr	r1, [r0, #0]
1000266e:	2900      	cmp	r1, #0
10002670:	d0fc      	beq.n	1000266c <hardware_alarm_set_target+0x38>
10002672:	f3bf 8f5f 	dmb	sy
10002676:	2501      	movs	r5, #1
10002678:	40bd      	lsls	r5, r7
1000267a:	4922      	ldr	r1, [pc, #136]	; (10002704 <hardware_alarm_set_target+0xd0>)
1000267c:	4c1f      	ldr	r4, [pc, #124]	; (100026fc <hardware_alarm_set_target+0xc8>)
1000267e:	4688      	mov	r8, r1
10002680:	7809      	ldrb	r1, [r1, #0]
10002682:	4689      	mov	r9, r1
10002684:	4329      	orrs	r1, r5
10002686:	b2c9      	uxtb	r1, r1
10002688:	468c      	mov	ip, r1
1000268a:	4641      	mov	r1, r8
1000268c:	4660      	mov	r0, ip
1000268e:	7008      	strb	r0, [r1, #0]
10002690:	1d39      	adds	r1, r7, #4
10002692:	0089      	lsls	r1, r1, #2
10002694:	6365      	str	r5, [r4, #52]	; 0x34
10002696:	510a      	str	r2, [r1, r4]
10002698:	491b      	ldr	r1, [pc, #108]	; (10002708 <hardware_alarm_set_target+0xd4>)
1000269a:	00b8      	lsls	r0, r7, #2
1000269c:	5043      	str	r3, [r0, r1]
1000269e:	6a21      	ldr	r1, [r4, #32]
100026a0:	2000      	movs	r0, #0
100026a2:	4229      	tst	r1, r5
100026a4:	d019      	beq.n	100026da <hardware_alarm_set_target+0xa6>
100026a6:	6a61      	ldr	r1, [r4, #36]	; 0x24
100026a8:	0008      	movs	r0, r1
100026aa:	6aa6      	ldr	r6, [r4, #40]	; 0x28
100026ac:	6a61      	ldr	r1, [r4, #36]	; 0x24
100026ae:	4281      	cmp	r1, r0
100026b0:	d1fa      	bne.n	100026a8 <hardware_alarm_set_target+0x74>
100026b2:	428b      	cmp	r3, r1
100026b4:	d819      	bhi.n	100026ea <hardware_alarm_set_target+0xb6>
100026b6:	d101      	bne.n	100026bc <hardware_alarm_set_target+0x88>
100026b8:	42b2      	cmp	r2, r6
100026ba:	d816      	bhi.n	100026ea <hardware_alarm_set_target+0xb6>
100026bc:	45cc      	cmp	ip, r9
100026be:	d00b      	beq.n	100026d8 <hardware_alarm_set_target+0xa4>
100026c0:	4b0e      	ldr	r3, [pc, #56]	; (100026fc <hardware_alarm_set_target+0xc8>)
100026c2:	221f      	movs	r2, #31
100026c4:	621d      	str	r5, [r3, #32]
100026c6:	635d      	str	r5, [r3, #52]	; 0x34
100026c8:	2301      	movs	r3, #1
100026ca:	403a      	ands	r2, r7
100026cc:	4093      	lsls	r3, r2
100026ce:	4a0f      	ldr	r2, [pc, #60]	; (1000270c <hardware_alarm_set_target+0xd8>)
100026d0:	6013      	str	r3, [r2, #0]
100026d2:	4643      	mov	r3, r8
100026d4:	464a      	mov	r2, r9
100026d6:	701a      	strb	r2, [r3, #0]
100026d8:	2001      	movs	r0, #1
100026da:	f3bf 8f5f 	dmb	sy
100026de:	2200      	movs	r2, #0
100026e0:	4b07      	ldr	r3, [pc, #28]	; (10002700 <hardware_alarm_set_target+0xcc>)
100026e2:	601a      	str	r2, [r3, #0]
100026e4:	f38a 8810 	msr	PRIMASK, sl
100026e8:	e7b5      	b.n	10002656 <hardware_alarm_set_target+0x22>
100026ea:	2000      	movs	r0, #0
100026ec:	f3bf 8f5f 	dmb	sy
100026f0:	2200      	movs	r2, #0
100026f2:	4b03      	ldr	r3, [pc, #12]	; (10002700 <hardware_alarm_set_target+0xcc>)
100026f4:	601a      	str	r2, [r3, #0]
100026f6:	f38a 8810 	msr	PRIMASK, sl
100026fa:	e7ac      	b.n	10002656 <hardware_alarm_set_target+0x22>
100026fc:	40054000 	.word	0x40054000
10002700:	d0000128 	.word	0xd0000128
10002704:	20001935 	.word	0x20001935
10002708:	2000190c 	.word	0x2000190c
1000270c:	e000e280 	.word	0xe000e280

10002710 <hardware_alarm_cancel>:
10002710:	f3ef 8c10 	mrs	ip, PRIMASK
10002714:	b672      	cpsid	i
10002716:	490a      	ldr	r1, [pc, #40]	; (10002740 <hardware_alarm_cancel+0x30>)
10002718:	680b      	ldr	r3, [r1, #0]
1000271a:	2b00      	cmp	r3, #0
1000271c:	d0fc      	beq.n	10002718 <hardware_alarm_cancel+0x8>
1000271e:	f3bf 8f5f 	dmb	sy
10002722:	2301      	movs	r3, #1
10002724:	4083      	lsls	r3, r0
10002726:	4a07      	ldr	r2, [pc, #28]	; (10002744 <hardware_alarm_cancel+0x34>)
10002728:	4807      	ldr	r0, [pc, #28]	; (10002748 <hardware_alarm_cancel+0x38>)
1000272a:	6213      	str	r3, [r2, #32]
1000272c:	7802      	ldrb	r2, [r0, #0]
1000272e:	439a      	bics	r2, r3
10002730:	7002      	strb	r2, [r0, #0]
10002732:	f3bf 8f5f 	dmb	sy
10002736:	2300      	movs	r3, #0
10002738:	600b      	str	r3, [r1, #0]
1000273a:	f38c 8810 	msr	PRIMASK, ip
1000273e:	4770      	bx	lr
10002740:	d0000128 	.word	0xd0000128
10002744:	40054000 	.word	0x40054000
10002748:	20001935 	.word	0x20001935

1000274c <ph_merge_nodes>:
1000274c:	b570      	push	{r4, r5, r6, lr}
1000274e:	0005      	movs	r5, r0
10002750:	000e      	movs	r6, r1
10002752:	0014      	movs	r4, r2
10002754:	2900      	cmp	r1, #0
10002756:	d023      	beq.n	100027a0 <ph_merge_nodes+0x54>
10002758:	2a00      	cmp	r2, #0
1000275a:	d012      	beq.n	10002782 <ph_merge_nodes+0x36>
1000275c:	6880      	ldr	r0, [r0, #8]
1000275e:	686b      	ldr	r3, [r5, #4]
10002760:	4798      	blx	r3
10002762:	6829      	ldr	r1, [r5, #0]
10002764:	2800      	cmp	r0, #0
10002766:	d00e      	beq.n	10002786 <ph_merge_nodes+0x3a>
10002768:	0063      	lsls	r3, r4, #1
1000276a:	191b      	adds	r3, r3, r4
1000276c:	0072      	lsls	r2, r6, #1
1000276e:	3b03      	subs	r3, #3
10002770:	1992      	adds	r2, r2, r6
10002772:	18cb      	adds	r3, r1, r3
10002774:	3a03      	subs	r2, #3
10002776:	709e      	strb	r6, [r3, #2]
10002778:	1888      	adds	r0, r1, r2
1000277a:	5c8a      	ldrb	r2, [r1, r2]
1000277c:	2a00      	cmp	r2, #0
1000277e:	d111      	bne.n	100027a4 <ph_merge_nodes+0x58>
10002780:	7004      	strb	r4, [r0, #0]
10002782:	0030      	movs	r0, r6
10002784:	bd70      	pop	{r4, r5, r6, pc}
10002786:	0073      	lsls	r3, r6, #1
10002788:	199b      	adds	r3, r3, r6
1000278a:	0062      	lsls	r2, r4, #1
1000278c:	3b03      	subs	r3, #3
1000278e:	1912      	adds	r2, r2, r4
10002790:	18cb      	adds	r3, r1, r3
10002792:	3a03      	subs	r2, #3
10002794:	709c      	strb	r4, [r3, #2]
10002796:	1888      	adds	r0, r1, r2
10002798:	5c8a      	ldrb	r2, [r1, r2]
1000279a:	2a00      	cmp	r2, #0
1000279c:	d105      	bne.n	100027aa <ph_merge_nodes+0x5e>
1000279e:	7006      	strb	r6, [r0, #0]
100027a0:	0020      	movs	r0, r4
100027a2:	e7ef      	b.n	10002784 <ph_merge_nodes+0x38>
100027a4:	705a      	strb	r2, [r3, #1]
100027a6:	7004      	strb	r4, [r0, #0]
100027a8:	e7eb      	b.n	10002782 <ph_merge_nodes+0x36>
100027aa:	705a      	strb	r2, [r3, #1]
100027ac:	7006      	strb	r6, [r0, #0]
100027ae:	e7f7      	b.n	100027a0 <ph_merge_nodes+0x54>

100027b0 <ph_post_alloc_init>:
100027b0:	b530      	push	{r4, r5, lr}
100027b2:	6083      	str	r3, [r0, #8]
100027b4:	2300      	movs	r3, #0
100027b6:	b2cc      	uxtb	r4, r1
100027b8:	7343      	strb	r3, [r0, #13]
100027ba:	3301      	adds	r3, #1
100027bc:	7304      	strb	r4, [r0, #12]
100027be:	6042      	str	r2, [r0, #4]
100027c0:	7383      	strb	r3, [r0, #14]
100027c2:	73c4      	strb	r4, [r0, #15]
100027c4:	000d      	movs	r5, r1
100027c6:	6800      	ldr	r0, [r0, #0]
100027c8:	2c01      	cmp	r4, #1
100027ca:	d906      	bls.n	100027da <ph_post_alloc_init+0x2a>
100027cc:	1c42      	adds	r2, r0, #1
100027ce:	3301      	adds	r3, #1
100027d0:	b2db      	uxtb	r3, r3
100027d2:	7013      	strb	r3, [r2, #0]
100027d4:	3203      	adds	r2, #3
100027d6:	429c      	cmp	r4, r3
100027d8:	d1f9      	bne.n	100027ce <ph_post_alloc_init+0x1e>
100027da:	21ff      	movs	r1, #255	; 0xff
100027dc:	4029      	ands	r1, r5
100027de:	004b      	lsls	r3, r1, #1
100027e0:	185b      	adds	r3, r3, r1
100027e2:	18c0      	adds	r0, r0, r3
100027e4:	2300      	movs	r3, #0
100027e6:	3803      	subs	r0, #3
100027e8:	7043      	strb	r3, [r0, #1]
100027ea:	bd30      	pop	{r4, r5, pc}

100027ec <ph_merge_two_pass>:
100027ec:	b570      	push	{r4, r5, r6, lr}
100027ee:	0005      	movs	r5, r0
100027f0:	1e0c      	subs	r4, r1, #0
100027f2:	d007      	beq.n	10002804 <ph_merge_two_pass+0x18>
100027f4:	0063      	lsls	r3, r4, #1
100027f6:	6801      	ldr	r1, [r0, #0]
100027f8:	191b      	adds	r3, r3, r4
100027fa:	3b03      	subs	r3, #3
100027fc:	18cb      	adds	r3, r1, r3
100027fe:	785a      	ldrb	r2, [r3, #1]
10002800:	2a00      	cmp	r2, #0
10002802:	d101      	bne.n	10002808 <ph_merge_two_pass+0x1c>
10002804:	0020      	movs	r0, r4
10002806:	bd70      	pop	{r4, r5, r6, pc}
10002808:	0050      	lsls	r0, r2, #1
1000280a:	1880      	adds	r0, r0, r2
1000280c:	3803      	subs	r0, #3
1000280e:	1809      	adds	r1, r1, r0
10002810:	2000      	movs	r0, #0
10002812:	784e      	ldrb	r6, [r1, #1]
10002814:	7048      	strb	r0, [r1, #1]
10002816:	0021      	movs	r1, r4
10002818:	7058      	strb	r0, [r3, #1]
1000281a:	0028      	movs	r0, r5
1000281c:	f7ff ff96 	bl	1000274c <ph_merge_nodes>
10002820:	0031      	movs	r1, r6
10002822:	0004      	movs	r4, r0
10002824:	0028      	movs	r0, r5
10002826:	f7ff ffe1 	bl	100027ec <ph_merge_two_pass>
1000282a:	0006      	movs	r6, r0
1000282c:	2c00      	cmp	r4, #0
1000282e:	d026      	beq.n	1000287e <ph_merge_two_pass+0x92>
10002830:	2800      	cmp	r0, #0
10002832:	d0e7      	beq.n	10002804 <ph_merge_two_pass+0x18>
10002834:	0021      	movs	r1, r4
10002836:	0032      	movs	r2, r6
10002838:	68a8      	ldr	r0, [r5, #8]
1000283a:	686b      	ldr	r3, [r5, #4]
1000283c:	4798      	blx	r3
1000283e:	6829      	ldr	r1, [r5, #0]
10002840:	2800      	cmp	r0, #0
10002842:	d00e      	beq.n	10002862 <ph_merge_two_pass+0x76>
10002844:	0073      	lsls	r3, r6, #1
10002846:	199b      	adds	r3, r3, r6
10002848:	0062      	lsls	r2, r4, #1
1000284a:	3b03      	subs	r3, #3
1000284c:	1912      	adds	r2, r2, r4
1000284e:	18cb      	adds	r3, r1, r3
10002850:	3a03      	subs	r2, #3
10002852:	709c      	strb	r4, [r3, #2]
10002854:	1888      	adds	r0, r1, r2
10002856:	5c8a      	ldrb	r2, [r1, r2]
10002858:	2a00      	cmp	r2, #0
1000285a:	d000      	beq.n	1000285e <ph_merge_two_pass+0x72>
1000285c:	705a      	strb	r2, [r3, #1]
1000285e:	7006      	strb	r6, [r0, #0]
10002860:	e7d0      	b.n	10002804 <ph_merge_two_pass+0x18>
10002862:	0063      	lsls	r3, r4, #1
10002864:	191b      	adds	r3, r3, r4
10002866:	0072      	lsls	r2, r6, #1
10002868:	3b03      	subs	r3, #3
1000286a:	1992      	adds	r2, r2, r6
1000286c:	18cb      	adds	r3, r1, r3
1000286e:	3a03      	subs	r2, #3
10002870:	709e      	strb	r6, [r3, #2]
10002872:	1888      	adds	r0, r1, r2
10002874:	5c8a      	ldrb	r2, [r1, r2]
10002876:	2a00      	cmp	r2, #0
10002878:	d000      	beq.n	1000287c <ph_merge_two_pass+0x90>
1000287a:	705a      	strb	r2, [r3, #1]
1000287c:	7004      	strb	r4, [r0, #0]
1000287e:	0034      	movs	r4, r6
10002880:	e7c0      	b.n	10002804 <ph_merge_two_pass+0x18>
10002882:	46c0      	nop			; (mov r8, r8)

10002884 <ph_remove_any_head>:
10002884:	b5f8      	push	{r3, r4, r5, r6, r7, lr}
10002886:	4657      	mov	r7, sl
10002888:	464e      	mov	r6, r9
1000288a:	4645      	mov	r5, r8
1000288c:	46de      	mov	lr, fp
1000288e:	004c      	lsls	r4, r1, #1
10002890:	b5e0      	push	{r5, r6, r7, lr}
10002892:	1864      	adds	r4, r4, r1
10002894:	0017      	movs	r7, r2
10002896:	6802      	ldr	r2, [r0, #0]
10002898:	3c03      	subs	r4, #3
1000289a:	0005      	movs	r5, r0
1000289c:	5d10      	ldrb	r0, [r2, r4]
1000289e:	1913      	adds	r3, r2, r4
100028a0:	000e      	movs	r6, r1
100028a2:	469c      	mov	ip, r3
100028a4:	2800      	cmp	r0, #0
100028a6:	d052      	beq.n	1000294e <ph_remove_any_head+0xca>
100028a8:	0043      	lsls	r3, r0, #1
100028aa:	4698      	mov	r8, r3
100028ac:	181b      	adds	r3, r3, r0
100028ae:	3b03      	subs	r3, #3
100028b0:	18d3      	adds	r3, r2, r3
100028b2:	7859      	ldrb	r1, [r3, #1]
100028b4:	468a      	mov	sl, r1
100028b6:	2900      	cmp	r1, #0
100028b8:	d119      	bne.n	100028ee <ph_remove_any_head+0x6a>
100028ba:	2f00      	cmp	r7, #0
100028bc:	d00c      	beq.n	100028d8 <ph_remove_any_head+0x54>
100028be:	7bec      	ldrb	r4, [r5, #15]
100028c0:	2c00      	cmp	r4, #0
100028c2:	d050      	beq.n	10002966 <ph_remove_any_head+0xe2>
100028c4:	0063      	lsls	r3, r4, #1
100028c6:	191b      	adds	r3, r3, r4
100028c8:	18d3      	adds	r3, r2, r3
100028ca:	3b03      	subs	r3, #3
100028cc:	705e      	strb	r6, [r3, #1]
100028ce:	73ee      	strb	r6, [r5, #15]
100028d0:	4643      	mov	r3, r8
100028d2:	1819      	adds	r1, r3, r0
100028d4:	3903      	subs	r1, #3
100028d6:	1853      	adds	r3, r2, r1
100028d8:	2200      	movs	r2, #0
100028da:	709a      	strb	r2, [r3, #2]
100028dc:	2300      	movs	r3, #0
100028de:	4662      	mov	r2, ip
100028e0:	7053      	strb	r3, [r2, #1]
100028e2:	bcf0      	pop	{r4, r5, r6, r7}
100028e4:	46bb      	mov	fp, r7
100028e6:	46b2      	mov	sl, r6
100028e8:	46a9      	mov	r9, r5
100028ea:	46a0      	mov	r8, r4
100028ec:	bdf8      	pop	{r3, r4, r5, r6, r7, pc}
100028ee:	0049      	lsls	r1, r1, #1
100028f0:	4451      	add	r1, sl
100028f2:	3903      	subs	r1, #3
100028f4:	1852      	adds	r2, r2, r1
100028f6:	7851      	ldrb	r1, [r2, #1]
100028f8:	4688      	mov	r8, r1
100028fa:	2100      	movs	r1, #0
100028fc:	7051      	strb	r1, [r2, #1]
100028fe:	4689      	mov	r9, r1
10002900:	7059      	strb	r1, [r3, #1]
10002902:	4652      	mov	r2, sl
10002904:	0001      	movs	r1, r0
10002906:	0028      	movs	r0, r5
10002908:	f7ff ff20 	bl	1000274c <ph_merge_nodes>
1000290c:	4643      	mov	r3, r8
1000290e:	4682      	mov	sl, r0
10002910:	2b00      	cmp	r3, #0
10002912:	d007      	beq.n	10002924 <ph_remove_any_head+0xa0>
10002914:	005b      	lsls	r3, r3, #1
10002916:	6829      	ldr	r1, [r5, #0]
10002918:	4443      	add	r3, r8
1000291a:	3b03      	subs	r3, #3
1000291c:	18cb      	adds	r3, r1, r3
1000291e:	785a      	ldrb	r2, [r3, #1]
10002920:	2a00      	cmp	r2, #0
10002922:	d12c      	bne.n	1000297e <ph_remove_any_head+0xfa>
10002924:	4651      	mov	r1, sl
10002926:	4642      	mov	r2, r8
10002928:	0028      	movs	r0, r5
1000292a:	f7ff ff0f 	bl	1000274c <ph_merge_nodes>
1000292e:	0001      	movs	r1, r0
10002930:	2f00      	cmp	r7, #0
10002932:	d01a      	beq.n	1000296a <ph_remove_any_head+0xe6>
10002934:	46a4      	mov	ip, r4
10002936:	682a      	ldr	r2, [r5, #0]
10002938:	7bef      	ldrb	r7, [r5, #15]
1000293a:	4494      	add	ip, r2
1000293c:	2f00      	cmp	r7, #0
1000293e:	d004      	beq.n	1000294a <ph_remove_any_head+0xc6>
10002940:	007b      	lsls	r3, r7, #1
10002942:	19db      	adds	r3, r3, r7
10002944:	18d3      	adds	r3, r2, r3
10002946:	3b03      	subs	r3, #3
10002948:	705e      	strb	r6, [r3, #1]
1000294a:	73ee      	strb	r6, [r5, #15]
1000294c:	e010      	b.n	10002970 <ph_remove_any_head+0xec>
1000294e:	2f00      	cmp	r7, #0
10002950:	d0c4      	beq.n	100028dc <ph_remove_any_head+0x58>
10002952:	7be9      	ldrb	r1, [r5, #15]
10002954:	2900      	cmp	r1, #0
10002956:	d010      	beq.n	1000297a <ph_remove_any_head+0xf6>
10002958:	004b      	lsls	r3, r1, #1
1000295a:	185b      	adds	r3, r3, r1
1000295c:	18d3      	adds	r3, r2, r3
1000295e:	3b03      	subs	r3, #3
10002960:	705e      	strb	r6, [r3, #1]
10002962:	73ee      	strb	r6, [r5, #15]
10002964:	e7ba      	b.n	100028dc <ph_remove_any_head+0x58>
10002966:	73ee      	strb	r6, [r5, #15]
10002968:	e7b6      	b.n	100028d8 <ph_remove_any_head+0x54>
1000296a:	46a4      	mov	ip, r4
1000296c:	682a      	ldr	r2, [r5, #0]
1000296e:	4494      	add	ip, r2
10002970:	2900      	cmp	r1, #0
10002972:	d0b3      	beq.n	100028dc <ph_remove_any_head+0x58>
10002974:	004b      	lsls	r3, r1, #1
10002976:	4698      	mov	r8, r3
10002978:	e7aa      	b.n	100028d0 <ph_remove_any_head+0x4c>
1000297a:	73ee      	strb	r6, [r5, #15]
1000297c:	e7ae      	b.n	100028dc <ph_remove_any_head+0x58>
1000297e:	0050      	lsls	r0, r2, #1
10002980:	1880      	adds	r0, r0, r2
10002982:	3803      	subs	r0, #3
10002984:	1809      	adds	r1, r1, r0
10002986:	7848      	ldrb	r0, [r1, #1]
10002988:	4683      	mov	fp, r0
1000298a:	4648      	mov	r0, r9
1000298c:	7048      	strb	r0, [r1, #1]
1000298e:	7058      	strb	r0, [r3, #1]
10002990:	4641      	mov	r1, r8
10002992:	0028      	movs	r0, r5
10002994:	f7ff feda 	bl	1000274c <ph_merge_nodes>
10002998:	4659      	mov	r1, fp
1000299a:	4680      	mov	r8, r0
1000299c:	0028      	movs	r0, r5
1000299e:	f7ff ff25 	bl	100027ec <ph_merge_two_pass>
100029a2:	4641      	mov	r1, r8
100029a4:	0002      	movs	r2, r0
100029a6:	0028      	movs	r0, r5
100029a8:	f7ff fed0 	bl	1000274c <ph_merge_nodes>
100029ac:	4680      	mov	r8, r0
100029ae:	e7b9      	b.n	10002924 <ph_remove_any_head+0xa0>

100029b0 <ph_remove_head>:
100029b0:	b5f8      	push	{r3, r4, r5, r6, r7, lr}
100029b2:	4657      	mov	r7, sl
100029b4:	464e      	mov	r6, r9
100029b6:	4645      	mov	r5, r8
100029b8:	46de      	mov	lr, fp
100029ba:	b5e0      	push	{r5, r6, r7, lr}
100029bc:	7b46      	ldrb	r6, [r0, #13]
100029be:	6802      	ldr	r2, [r0, #0]
100029c0:	0075      	lsls	r5, r6, #1
100029c2:	19ad      	adds	r5, r5, r6
100029c4:	3d03      	subs	r5, #3
100029c6:	000f      	movs	r7, r1
100029c8:	5d51      	ldrb	r1, [r2, r5]
100029ca:	1953      	adds	r3, r2, r5
100029cc:	0004      	movs	r4, r0
100029ce:	469c      	mov	ip, r3
100029d0:	2900      	cmp	r1, #0
100029d2:	d053      	beq.n	10002a7c <ph_remove_head+0xcc>
100029d4:	004b      	lsls	r3, r1, #1
100029d6:	4698      	mov	r8, r3
100029d8:	185b      	adds	r3, r3, r1
100029da:	3b03      	subs	r3, #3
100029dc:	18d3      	adds	r3, r2, r3
100029de:	7858      	ldrb	r0, [r3, #1]
100029e0:	4682      	mov	sl, r0
100029e2:	2800      	cmp	r0, #0
100029e4:	d11b      	bne.n	10002a1e <ph_remove_head+0x6e>
100029e6:	2f00      	cmp	r7, #0
100029e8:	d00c      	beq.n	10002a04 <ph_remove_head+0x54>
100029ea:	7be5      	ldrb	r5, [r4, #15]
100029ec:	2d00      	cmp	r5, #0
100029ee:	d051      	beq.n	10002a94 <ph_remove_head+0xe4>
100029f0:	006b      	lsls	r3, r5, #1
100029f2:	195b      	adds	r3, r3, r5
100029f4:	18d3      	adds	r3, r2, r3
100029f6:	3b03      	subs	r3, #3
100029f8:	705e      	strb	r6, [r3, #1]
100029fa:	73e6      	strb	r6, [r4, #15]
100029fc:	4643      	mov	r3, r8
100029fe:	1858      	adds	r0, r3, r1
10002a00:	3803      	subs	r0, #3
10002a02:	1813      	adds	r3, r2, r0
10002a04:	2200      	movs	r2, #0
10002a06:	709a      	strb	r2, [r3, #2]
10002a08:	2300      	movs	r3, #0
10002a0a:	4662      	mov	r2, ip
10002a0c:	0030      	movs	r0, r6
10002a0e:	7053      	strb	r3, [r2, #1]
10002a10:	7361      	strb	r1, [r4, #13]
10002a12:	bcf0      	pop	{r4, r5, r6, r7}
10002a14:	46bb      	mov	fp, r7
10002a16:	46b2      	mov	sl, r6
10002a18:	46a9      	mov	r9, r5
10002a1a:	46a0      	mov	r8, r4
10002a1c:	bdf8      	pop	{r3, r4, r5, r6, r7, pc}
10002a1e:	0040      	lsls	r0, r0, #1
10002a20:	4450      	add	r0, sl
10002a22:	3803      	subs	r0, #3
10002a24:	1812      	adds	r2, r2, r0
10002a26:	7850      	ldrb	r0, [r2, #1]
10002a28:	4680      	mov	r8, r0
10002a2a:	2000      	movs	r0, #0
10002a2c:	7050      	strb	r0, [r2, #1]
10002a2e:	4681      	mov	r9, r0
10002a30:	7058      	strb	r0, [r3, #1]
10002a32:	4652      	mov	r2, sl
10002a34:	0020      	movs	r0, r4
10002a36:	f7ff fe89 	bl	1000274c <ph_merge_nodes>
10002a3a:	4643      	mov	r3, r8
10002a3c:	4682      	mov	sl, r0
10002a3e:	2b00      	cmp	r3, #0
10002a40:	d007      	beq.n	10002a52 <ph_remove_head+0xa2>
10002a42:	005b      	lsls	r3, r3, #1
10002a44:	6821      	ldr	r1, [r4, #0]
10002a46:	4443      	add	r3, r8
10002a48:	3b03      	subs	r3, #3
10002a4a:	18cb      	adds	r3, r1, r3
10002a4c:	785a      	ldrb	r2, [r3, #1]
10002a4e:	2a00      	cmp	r2, #0
10002a50:	d12c      	bne.n	10002aac <ph_remove_head+0xfc>
10002a52:	4651      	mov	r1, sl
10002a54:	4642      	mov	r2, r8
10002a56:	0020      	movs	r0, r4
10002a58:	f7ff fe78 	bl	1000274c <ph_merge_nodes>
10002a5c:	0001      	movs	r1, r0
10002a5e:	2f00      	cmp	r7, #0
10002a60:	d01a      	beq.n	10002a98 <ph_remove_head+0xe8>
10002a62:	46ac      	mov	ip, r5
10002a64:	6822      	ldr	r2, [r4, #0]
10002a66:	7be7      	ldrb	r7, [r4, #15]
10002a68:	4494      	add	ip, r2
10002a6a:	2f00      	cmp	r7, #0
10002a6c:	d004      	beq.n	10002a78 <ph_remove_head+0xc8>
10002a6e:	007b      	lsls	r3, r7, #1
10002a70:	19db      	adds	r3, r3, r7
10002a72:	18d3      	adds	r3, r2, r3
10002a74:	3b03      	subs	r3, #3
10002a76:	705e      	strb	r6, [r3, #1]
10002a78:	73e6      	strb	r6, [r4, #15]
10002a7a:	e010      	b.n	10002a9e <ph_remove_head+0xee>
10002a7c:	2f00      	cmp	r7, #0
10002a7e:	d0c3      	beq.n	10002a08 <ph_remove_head+0x58>
10002a80:	7bc0      	ldrb	r0, [r0, #15]
10002a82:	2800      	cmp	r0, #0
10002a84:	d010      	beq.n	10002aa8 <ph_remove_head+0xf8>
10002a86:	0043      	lsls	r3, r0, #1
10002a88:	181b      	adds	r3, r3, r0
10002a8a:	18d3      	adds	r3, r2, r3
10002a8c:	3b03      	subs	r3, #3
10002a8e:	705e      	strb	r6, [r3, #1]
10002a90:	73e6      	strb	r6, [r4, #15]
10002a92:	e7b9      	b.n	10002a08 <ph_remove_head+0x58>
10002a94:	73e6      	strb	r6, [r4, #15]
10002a96:	e7b5      	b.n	10002a04 <ph_remove_head+0x54>
10002a98:	46ac      	mov	ip, r5
10002a9a:	6822      	ldr	r2, [r4, #0]
10002a9c:	4494      	add	ip, r2
10002a9e:	2800      	cmp	r0, #0
10002aa0:	d0b2      	beq.n	10002a08 <ph_remove_head+0x58>
10002aa2:	0043      	lsls	r3, r0, #1
10002aa4:	4698      	mov	r8, r3
10002aa6:	e7a9      	b.n	100029fc <ph_remove_head+0x4c>
10002aa8:	73e6      	strb	r6, [r4, #15]
10002aaa:	e7ad      	b.n	10002a08 <ph_remove_head+0x58>
10002aac:	0050      	lsls	r0, r2, #1
10002aae:	1880      	adds	r0, r0, r2
10002ab0:	3803      	subs	r0, #3
10002ab2:	1809      	adds	r1, r1, r0
10002ab4:	7848      	ldrb	r0, [r1, #1]
10002ab6:	4683      	mov	fp, r0
10002ab8:	4648      	mov	r0, r9
10002aba:	7048      	strb	r0, [r1, #1]
10002abc:	7058      	strb	r0, [r3, #1]
10002abe:	4641      	mov	r1, r8
10002ac0:	0020      	movs	r0, r4
10002ac2:	f7ff fe43 	bl	1000274c <ph_merge_nodes>
10002ac6:	4659      	mov	r1, fp
10002ac8:	4680      	mov	r8, r0
10002aca:	0020      	movs	r0, r4
10002acc:	f7ff fe8e 	bl	100027ec <ph_merge_two_pass>
10002ad0:	4641      	mov	r1, r8
10002ad2:	0002      	movs	r2, r0
10002ad4:	0020      	movs	r0, r4
10002ad6:	f7ff fe39 	bl	1000274c <ph_merge_nodes>
10002ada:	4680      	mov	r8, r0
10002adc:	e7b9      	b.n	10002a52 <ph_remove_head+0xa2>
10002ade:	46c0      	nop			; (mov r8, r8)

10002ae0 <ph_remove_and_free_node>:
10002ae0:	b570      	push	{r4, r5, r6, lr}
10002ae2:	0005      	movs	r5, r0
10002ae4:	2900      	cmp	r1, #0
10002ae6:	d02c      	beq.n	10002b42 <ph_remove_and_free_node+0x62>
10002ae8:	7b43      	ldrb	r3, [r0, #13]
10002aea:	428b      	cmp	r3, r1
10002aec:	d02e      	beq.n	10002b4c <ph_remove_and_free_node+0x6c>
10002aee:	004c      	lsls	r4, r1, #1
10002af0:	6800      	ldr	r0, [r0, #0]
10002af2:	1864      	adds	r4, r4, r1
10002af4:	3c03      	subs	r4, #3
10002af6:	1904      	adds	r4, r0, r4
10002af8:	78a2      	ldrb	r2, [r4, #2]
10002afa:	2a00      	cmp	r2, #0
10002afc:	d021      	beq.n	10002b42 <ph_remove_and_free_node+0x62>
10002afe:	0053      	lsls	r3, r2, #1
10002b00:	189b      	adds	r3, r3, r2
10002b02:	3b03      	subs	r3, #3
10002b04:	5cc2      	ldrb	r2, [r0, r3]
10002b06:	18c6      	adds	r6, r0, r3
10002b08:	428a      	cmp	r2, r1
10002b0a:	d102      	bne.n	10002b12 <ph_remove_and_free_node+0x32>
10002b0c:	e01b      	b.n	10002b46 <ph_remove_and_free_node+0x66>
10002b0e:	2a00      	cmp	r2, #0
10002b10:	d008      	beq.n	10002b24 <ph_remove_and_free_node+0x44>
10002b12:	0053      	lsls	r3, r2, #1
10002b14:	189b      	adds	r3, r3, r2
10002b16:	3b03      	subs	r3, #3
10002b18:	18c3      	adds	r3, r0, r3
